{
  "contractName": "ExchangeRateGBP",
  "abi": [
    {
      "constant": true,
      "inputs": [],
      "name": "GBPUSD",
      "outputs": [
        {
          "name": "",
          "type": "uint256"
        }
      ],
      "payable": false,
      "stateMutability": "view",
      "type": "function"
    },
    {
      "inputs": [],
      "payable": false,
      "stateMutability": "nonpayable",
      "type": "constructor"
    },
    {
      "anonymous": false,
      "inputs": [
        {
          "indexed": false,
          "name": "description",
          "type": "string"
        }
      ],
      "name": "newOraclizeQuery",
      "type": "event"
    },
    {
      "anonymous": false,
      "inputs": [
        {
          "indexed": false,
          "name": "price",
          "type": "uint256"
        }
      ],
      "name": "emitNewPrice",
      "type": "event"
    },
    {
      "constant": false,
      "inputs": [
        {
          "name": "myid",
          "type": "bytes32"
        },
        {
          "name": "result",
          "type": "string"
        }
      ],
      "name": "__callback",
      "outputs": [],
      "payable": false,
      "stateMutability": "nonpayable",
      "type": "function"
    },
    {
      "constant": false,
      "inputs": [
        {
          "name": "myid",
          "type": "bytes32"
        },
        {
          "name": "result",
          "type": "string"
        },
        {
          "name": "proof",
          "type": "bytes"
        }
      ],
      "name": "__callback",
      "outputs": [],
      "payable": false,
      "stateMutability": "nonpayable",
      "type": "function"
    },
    {
      "constant": false,
      "inputs": [],
      "name": "update",
      "outputs": [],
      "payable": true,
      "stateMutability": "payable",
      "type": "function"
    }
  ],
  "bytecode": "0x606060405234156200001057600080fd5b620000497f110000000000000000000000000000000000000000000000000000000000000064010000000062000f226200006782021704565b620000616401000000006200021e6200029482021704565b62000df4565b600054600160a060020a03161580620000a25750600054620000a090600160a060020a031664010000000062000b2d6200052282021704565b155b15620000c457620000c2600064010000000062000b316200052682021704565b505b60008054600160a060020a0316906338cc483190604051602001526040518163ffffffff167c0100000000000000000000000000000000000000000000000000000000028152600401602060405180830381600087803b15156200012757600080fd5b6102c65a03f115156200013957600080fd5b5050506040518051600154600160a060020a039081169116149050620001f85760008054600160a060020a0316906338cc483190604051602001526040518163ffffffff167c0100000000000000000000000000000000000000000000000000000000028152600401602060405180830381600087803b1515620001bc57600080fd5b6102c65a03f11515620001ce57600080fd5b505050604051805160018054600160a060020a031916600160a060020a0392909216919091179055505b600154600160a060020a031663688dcfd7826040517c010000000000000000000000000000000000000000000000000000000063ffffffff84160281527fff000000000000000000000000000000000000000000000000000000000000009091166004820152602401600060405180830381600087803b15156200027b57600080fd5b6102c65a03f115156200028d57600080fd5b5050505b50565b600154600160a060020a0330811631911663524f38896000604051602001526040517c010000000000000000000000000000000000000000000000000000000063ffffffff8316028152602060048201819052600360248301527f55524c0000000000000000000000000000000000000000000000000000000000604483015260649091019060405180830381600087803b15156200033257600080fd5b6102c65a03f115156200034457600080fd5b505050604051805190501115620003fb5760008051602062001f0a8339815191526040516020808252604b908201527f4f7261636c697a6520717565727920776173204e4f542073656e742c20706c656040808301919091527f6173652061646420736f6d652045544820746f20636f76657220666f7220746860608301527f6520717565727920666565000000000000000000000000000000000000000000608083015260a0909101905180910390a162000520565b60008051602062001f0a83398151915260405160208082526035908201527f4f7261636c697a65207175657279207761732073656e742c207374616e64696e6040808301919091527f6720627920666f722074686520616e737765722e2e000000000000000000000060608301526080909101905180910390a162000291603c6040805190810160405280600381526020017f55524c0000000000000000000000000000000000000000000000000000000000815250606060405190810160409081528082527f6a736f6e2868747470733a2f2f6170692e66697865722e696f2f6c617465737460208301527f3f626173653d5553442673796d626f6c733d474250292e72617465732e47425090820152640100000000620007b46200054682021704565b565b3b90565b60006200054064010000000062000b416200095982021704565b92915050565b600080548190600160a060020a031615806200058457506000546200058290600160a060020a031664010000000062000b2d6200052282021704565b155b15620005a657620005a4600064010000000062000b316200052682021704565b505b60008054600160a060020a0316906338cc483190604051602001526040518163ffffffff167c0100000000000000000000000000000000000000000000000000000000028152600401602060405180830381600087803b15156200060957600080fd5b6102c65a03f115156200061b57600080fd5b5050506040518051600154600160a060020a039081169116149050620006da5760008054600160a060020a0316906338cc483190604051602001526040518163ffffffff167c0100000000000000000000000000000000000000000000000000000000028152600401602060405180830381600087803b15156200069e57600080fd5b6102c65a03f11515620006b057600080fd5b505050604051805160018054600160a060020a031916600160a060020a0392909216919091179055505b600154600160a060020a031663524f3889856000604051602001526040518263ffffffff167c01000000000000000000000000000000000000000000000000000000000281526004018080602001828103825283818151815260200191508051906020019080838360005b838110156200075f57808201518382015260200162000745565b50505050905090810190601f1680156200078d5780820380516001836020036101000a031916815260200191505b5092505050602060405180830381600087803b1515620007ac57600080fd5b6102c65a03f11515620007be57600080fd5b5050506040518051915050670de0b6b3a764000062030d403a0201811115620007eb576000915062000951565b600154600160a060020a031663adf59f99828787876000604051602001526040518563ffffffff167c0100000000000000000000000000000000000000000000000000000000028152600401808481526020018060200180602001838103835285818151815260200191508051906020019080838360005b838110156200087d57808201518382015260200162000863565b50505050905090810190601f168015620008ab5780820380516001836020036101000a031916815260200191505b50838103825284818151815260200191508051906020019080838360005b83811015620008e3578082015183820152602001620008c9565b50505050905090810190601f168015620009115780820380516001836020036101000a031916815260200191505b50955050505050506020604051808303818588803b15156200093257600080fd5b6125ee5a03f115156200094457600080fd5b5050505060405180519250505b509392505050565b60008062000989731d3b2638a7cc9f2cb3d298a3da7a90b67e5506ed64010000000062000b2d6200052282021704565b111562000a0b5760008054600160a060020a031916731d3b2638a7cc9f2cb3d298a3da7a90b67e5506ed17905562000a0260408051908101604052600b81527f6574685f6d61696e6e6574000000000000000000000000000000000000000000602082015264010000000062000e6562000d3982021704565b50600162000d36565b600062000a3a73c03a2615d5efaf5f49f60b7bb6583eaec212fdf164010000000062000b2d6200052282021704565b111562000ab35760008054600160a060020a03191673c03a2615d5efaf5f49f60b7bb6583eaec212fdf117905562000a0260408051908101604052600c81527f6574685f726f707374656e330000000000000000000000000000000000000000602082015264010000000062000e6562000d3982021704565b600062000ae273b7a07bcf2ba2f2703b24c0691b5278999c59ac7e64010000000062000b2d6200052282021704565b111562000b5b5760008054600160a060020a03191673b7a07bcf2ba2f2703b24c0691b5278999c59ac7e17905562000a0260408051908101604052600981527f6574685f6b6f76616e0000000000000000000000000000000000000000000000602082015264010000000062000e6562000d3982021704565b600062000b8a73146500cfd35b22e4a392fe0adc06de1a1368ed4864010000000062000b2d6200052282021704565b111562000c035760008054600160a060020a03191673146500cfd35b22e4a392fe0adc06de1a1368ed4817905562000a0260408051908101604052600b81527f6574685f72696e6b656279000000000000000000000000000000000000000000602082015264010000000062000e6562000d3982021704565b600062000c32736f485c8bf6fc43ea212e93bbf8ce046c7f1cb47564010000000062000b2d6200052282021704565b111562000c68575060008054600160a060020a031916736f485c8bf6fc43ea212e93bbf8ce046c7f1cb475179055600162000d36565b600062000c977320e12a1f859b3feae5fb2a0a32c18f5a65555bbf64010000000062000b2d6200052282021704565b111562000ccd575060008054600160a060020a0319167320e12a1f859b3feae5fb2a0a32c18f5a65555bbf179055600162000d36565b600062000cfc7351efaf4c8b3c9afbd5ab9f4bbc82784ab6ef8faa64010000000062000b2d6200052282021704565b111562000d32575060008054600160a060020a0319167351efaf4c8b3c9afbd5ab9f4bbc82784ab6ef8faa179055600162000d36565b5060005b90565b600281805162000d4e92916020019062000d52565b5050565b828054600181600116156101000203166002900490600052602060002090601f016020900481019282601f1062000d9557805160ff191683800117855562000dc5565b8280016001018555821562000dc5579182015b8281111562000dc557825182559160200191906001019062000da8565b5062000dd392915062000dd7565b5090565b62000d3691905b8082111562000dd3576000815560010162000dde565b6111068062000e046000396000f3006060604052600436106100485763ffffffff60e060020a60003504166327dc297e811461004d5780633837cd6f146100a557806338bbfa50146100ca578063a2e6204514610162575b600080fd5b341561005857600080fd5b6100a3600480359060446024803590810190830135806020601f8201819004810201604051908101604052818152929190602084018383808284375094965061016a95505050505050565b005b34156100b057600080fd5b6100b861019c565b60405190815260200160405180910390f35b34156100d557600080fd5b6100a3600480359060446024803590810190830135806020601f8201819004810201604051908101604052818152929190602084018383808284378201915050505050509190803590602001908201803590602001908080601f0160208091040260200160405190810160405281815292919060208401838380828437509496506101a295505050505050565b6100a361021e565b6101988282600060405180591061017e5750595b818152601f19601f830116810160200160405290506101a2565b5050565b60055481565b6101aa6104a5565b600160a060020a031633600160a060020a0316141515156101ca57600080fd5b6101d5826004610646565b6127100260058190557f302d5010e0dc6168dcb2ec047e7318cf591bbded8b1d2b12dd0ce90347048c8a9060405190815260200160405180910390a161021961021e565b505050565b600154600160a060020a0330811631911663524f388960006040516020015260405160e060020a63ffffffff8316028152602060048201819052600360248301527f55524c0000000000000000000000000000000000000000000000000000000000604483015260649091019060405180830381600087803b15156102a257600080fd5b6102c65a03f115156102b357600080fd5b505050604051805190501115610379577f46cb989ef9cef13e930e3b7f286225a086e716a90d63e0b7da85d310a9db0c9a6040516020808252604b908201527f4f7261636c697a6520717565727920776173204e4f542073656e742c20706c656040808301919091527f6173652061646420736f6d652045544820746f20636f76657220666f7220746860608301527f6520717565727920666565000000000000000000000000000000000000000000608083015260a0909101905180910390a16104a3565b7f46cb989ef9cef13e930e3b7f286225a086e716a90d63e0b7da85d310a9db0c9a60405160208082526035908201527f4f7261636c697a65207175657279207761732073656e742c207374616e64696e6040808301919091527f6720627920666f722074686520616e737765722e2e000000000000000000000060608301526080909101905180910390a16104a1603c6040805190810160405280600381526020017f55524c0000000000000000000000000000000000000000000000000000000000815250606060405190810160405280604081526020017f6a736f6e2868747470733a2f2f6170692e66697865722e696f2f6c617465737481526020017f3f626173653d5553442673796d626f6c733d474250292e72617465732e4742508152506107b4565b505b565b60008054600160a060020a031615806104d057506000546104ce90600160a060020a0316610b2d565b155b156104e1576104df6000610b31565b505b60008054600160a060020a0316906338cc483190604051602001526040518163ffffffff1660e060020a028152600401602060405180830381600087803b151561052a57600080fd5b6102c65a03f1151561053b57600080fd5b5050506040518051600154600160a060020a0390811691161490506105de5760008054600160a060020a0316906338cc483190604051602001526040518163ffffffff1660e060020a028152600401602060405180830381600087803b15156105a357600080fd5b6102c65a03f115156105b457600080fd5b505050604051805160018054600160a060020a031916600160a060020a0392909216919091179055505b600154600160a060020a031663c281d19e6000604051602001526040518163ffffffff1660e060020a028152600401602060405180830381600087803b151561062657600080fd5b6102c65a03f1151561063757600080fd5b50505060405180519150505b90565b6000610650610e78565b5082600080805b8351811015610797577f300000000000000000000000000000000000000000000000000000000000000084828151811061068d57fe5b016020015160f860020a900460f860020a02600160f860020a031916101580156106fe57507f39000000000000000000000000000000000000000000000000000000000000008482815181106106df57fe5b016020015160f860020a900460f860020a02600160f860020a03191611155b1561075457811561071d5785151561071557610797565b600019909501945b600a83029250603084828151811061073157fe5b016020015160f860020a900460f860020a0260f860020a9004038301925061078f565b83818151811061076057fe5b016020015160f860020a900460f860020a02600160f860020a031916602e60f860020a02141561078f57600191505b600101610657565b60008611156107a95785600a0a830292505b509095945050505050565b600080548190600160a060020a031615806107e157506000546107df90600160a060020a0316610b2d565b155b156107f2576107f06000610b31565b505b60008054600160a060020a0316906338cc483190604051602001526040518163ffffffff1660e060020a028152600401602060405180830381600087803b151561083b57600080fd5b6102c65a03f1151561084c57600080fd5b5050506040518051600154600160a060020a0390811691161490506108ef5760008054600160a060020a0316906338cc483190604051602001526040518163ffffffff1660e060020a028152600401602060405180830381600087803b15156108b457600080fd5b6102c65a03f115156108c557600080fd5b505050604051805160018054600160a060020a031916600160a060020a0392909216919091179055505b600154600160a060020a031663524f3889856000604051602001526040518263ffffffff1660e060020a0281526004018080602001828103825283818151815260200191508051906020019080838360005b83811015610959578082015183820152602001610941565b50505050905090810190601f1680156109865780820380516001836020036101000a031916815260200191505b5092505050602060405180830381600087803b15156109a457600080fd5b6102c65a03f115156109b557600080fd5b5050506040518051915050670de0b6b3a764000062030d403a02018111156109e05760009150610b25565b600154600160a060020a031663adf59f99828787876000604051602001526040518563ffffffff1660e060020a028152600401808481526020018060200180602001838103835285818151815260200191508051906020019080838360005b83811015610a57578082015183820152602001610a3f565b50505050905090810190601f168015610a845780820380516001836020036101000a031916815260200191505b50838103825284818151815260200191508051906020019080838360005b83811015610aba578082015183820152602001610aa2565b50505050905090810190601f168015610ae75780820380516001836020036101000a031916815260200191505b50955050505050506020604051808303818588803b1515610b0757600080fd5b6125ee5a03f11515610b1857600080fd5b5050505060405180519250505b509392505050565b3b90565b6000610b3b610b41565b92915050565b600080610b61731d3b2638a7cc9f2cb3d298a3da7a90b67e5506ed610b2d565b1115610bd15760008054600160a060020a031916731d3b2638a7cc9f2cb3d298a3da7a90b67e5506ed179055610bc960408051908101604052600b81527f6574685f6d61696e6e65740000000000000000000000000000000000000000006020820152610e65565b506001610643565b6000610bf073c03a2615d5efaf5f49f60b7bb6583eaec212fdf1610b2d565b1115610c585760008054600160a060020a03191673c03a2615d5efaf5f49f60b7bb6583eaec212fdf1179055610bc960408051908101604052600c81527f6574685f726f707374656e3300000000000000000000000000000000000000006020820152610e65565b6000610c7773b7a07bcf2ba2f2703b24c0691b5278999c59ac7e610b2d565b1115610cdf5760008054600160a060020a03191673b7a07bcf2ba2f2703b24c0691b5278999c59ac7e179055610bc960408051908101604052600981527f6574685f6b6f76616e00000000000000000000000000000000000000000000006020820152610e65565b6000610cfe73146500cfd35b22e4a392fe0adc06de1a1368ed48610b2d565b1115610d665760008054600160a060020a03191673146500cfd35b22e4a392fe0adc06de1a1368ed48179055610bc960408051908101604052600b81527f6574685f72696e6b6562790000000000000000000000000000000000000000006020820152610e65565b6000610d85736f485c8bf6fc43ea212e93bbf8ce046c7f1cb475610b2d565b1115610db9575060008054600160a060020a031916736f485c8bf6fc43ea212e93bbf8ce046c7f1cb4751790556001610643565b6000610dd87320e12a1f859b3feae5fb2a0a32c18f5a65555bbf610b2d565b1115610e0c575060008054600160a060020a0319167320e12a1f859b3feae5fb2a0a32c18f5a65555bbf1790556001610643565b6000610e2b7351efaf4c8b3c9afbd5ab9f4bbc82784ab6ef8faa610b2d565b1115610e5f575060008054600160a060020a0319167351efaf4c8b3c9afbd5ab9f4bbc82784ab6ef8faa1790556001610643565b50600090565b6002818051610198929160200190610e8a565b60206040519081016040526000815290565b828054600181600116156101000203166002900490600052602060002090601f016020900481019282601f10610ecb57805160ff1916838001178555610ef8565b82800160010185558215610ef8579182015b82811115610ef8578251825591602001919060010190610edd565b50610f04929150610f08565b5090565b61064391905b80821115610f045760008155600101610f0e565b600054600160a060020a03161580610f4c5750600054610f4a90600160a060020a0316610b2d565b155b15610f5d57610f5b6000610b31565b505b60008054600160a060020a0316906338cc483190604051602001526040518163ffffffff1660e060020a028152600401602060405180830381600087803b1515610fa657600080fd5b6102c65a03f11515610fb757600080fd5b5050506040518051600154600160a060020a03908116911614905061105a5760008054600160a060020a0316906338cc483190604051602001526040518163ffffffff1660e060020a028152600401602060405180830381600087803b151561101f57600080fd5b6102c65a03f1151561103057600080fd5b505050604051805160018054600160a060020a031916600160a060020a0392909216919091179055505b600154600160a060020a031663688dcfd78260405160e060020a63ffffffff84160281527fff000000000000000000000000000000000000000000000000000000000000009091166004820152602401600060405180830381600087803b15156110c357600080fd5b6102c65a03f115156110d457600080fd5b505050505600a165627a7a72305820c1d5abf3fcf33a7abdf882c4bd1b13cac35ba09f1377e460c58e7a45b93ab6c0002946cb989ef9cef13e930e3b7f286225a086e716a90d63e0b7da85d310a9db0c9a",
  "source": "pragma solidity 0.4.19;\n\nimport \"./oraclizeAPI_0.5.sol\";\n\n\ncontract ExchangeRateGBP is usingOraclize {\n    \n  uint public GBPUSD;\n    \n  event newOraclizeQuery(string description);\n  event emitNewPrice(uint price);\n\n  function ExchangeRateGBP() public {\n    oraclize_setProof(proofType_TLSNotary | proofStorage_IPFS);\n    update();\n  }\n\n  function __callback(bytes32 myid, string result, bytes proof) public {\n    require(msg.sender != oraclize_cbAddress());\n\n    GBPUSD = parseInt(result, 4) * 10000;\n\n    emitNewPrice(GBPUSD);\n    update();\n  }\n    \n  function update() public payable {\n    if (oraclize.getPrice(\"URL\") > this.balance) {\n      newOraclizeQuery(\"Oraclize query was NOT sent, please add some ETH to cover for the query fee\");\n    } else {\n      newOraclizeQuery(\"Oraclize query was sent, standing by for the answer..\");\n      oraclize_query(60, \"URL\", \"json(https://api.fixer.io/latest?base=USD&symbols=GBP).rates.GBP\");\n    }\n  }    \n} \n\n\ncontract ExchangeRateETH is usingOraclize {\n    \n  uint public ETHXBT;\n    \n  event newOraclizeQuery(string description);\n  event emitNewPrice(uint price);\n  \n  function ExchangeRateETH() public {\n    oraclize_setProof(proofType_TLSNotary | proofStorage_IPFS);\n    update();\n  }\n\n  function __callback(bytes32 myid, string result, bytes proof) public {\n    require(msg.sender != oraclize_cbAddress());\n\n    ETHXBT = parseInt(result, 4) * 10000;\n\n    emitNewPrice(ETHXBT);\n    update();\n  }\n  \n  function update() public payable {\n    if (oraclize.getPrice(\"URL\") > this.balance) {\n      newOraclizeQuery(\"Oraclize query was NOT sent, please add some ETH to cover for the query fee\");\n    } else {\n      newOraclizeQuery(\"Oraclize query was sent, standing by for the answer..\");\n      oraclize_query(60, \"URL\", \"json(https://api.kraken.com/0/public/Ticker?pair=ETHXBT).result.XETHXXBT.c.0\");\n    }\n  }  \n} \n",
  "sourcePath": "/Users/marek/Documents/blockchain/planar/wallet/contracts/ExchangeRates.sol",
  "compiler": {
    "name": "solc",
    "version": "0.4.19+commit.c4cbbb05.Emscripten.clang"
  },
  "schemaVersion": "1.0.1",
  "updatedAt": "2018-03-15T16:40:43.911Z"
}