{
  "contractName": "Retailers",
  "abi": [
    {
      "constant": true,
      "inputs": [],
      "name": "name",
      "outputs": [
        {
          "name": "",
          "type": "string"
        }
      ],
      "payable": false,
      "stateMutability": "view",
      "type": "function"
    },
    {
      "constant": true,
      "inputs": [
        {
          "name": "_tokenId",
          "type": "uint256"
        }
      ],
      "name": "getApproved",
      "outputs": [
        {
          "name": "",
          "type": "address"
        }
      ],
      "payable": false,
      "stateMutability": "view",
      "type": "function"
    },
    {
      "constant": false,
      "inputs": [
        {
          "name": "_to",
          "type": "address"
        },
        {
          "name": "_tokenId",
          "type": "uint256"
        }
      ],
      "name": "approve",
      "outputs": [],
      "payable": false,
      "stateMutability": "nonpayable",
      "type": "function"
    },
    {
      "constant": true,
      "inputs": [],
      "name": "totalSupply",
      "outputs": [
        {
          "name": "",
          "type": "uint256"
        }
      ],
      "payable": false,
      "stateMutability": "view",
      "type": "function"
    },
    {
      "constant": false,
      "inputs": [
        {
          "name": "_from",
          "type": "address"
        },
        {
          "name": "_to",
          "type": "address"
        },
        {
          "name": "_tokenId",
          "type": "uint256"
        }
      ],
      "name": "transferFrom",
      "outputs": [],
      "payable": false,
      "stateMutability": "nonpayable",
      "type": "function"
    },
    {
      "constant": true,
      "inputs": [
        {
          "name": "_owner",
          "type": "address"
        },
        {
          "name": "_index",
          "type": "uint256"
        }
      ],
      "name": "tokenOfOwnerByIndex",
      "outputs": [
        {
          "name": "",
          "type": "uint256"
        }
      ],
      "payable": false,
      "stateMutability": "view",
      "type": "function"
    },
    {
      "constant": false,
      "inputs": [],
      "name": "unpause",
      "outputs": [],
      "payable": false,
      "stateMutability": "nonpayable",
      "type": "function"
    },
    {
      "constant": false,
      "inputs": [
        {
          "name": "_from",
          "type": "address"
        },
        {
          "name": "_to",
          "type": "address"
        },
        {
          "name": "_tokenId",
          "type": "uint256"
        }
      ],
      "name": "safeTransferFrom",
      "outputs": [],
      "payable": false,
      "stateMutability": "nonpayable",
      "type": "function"
    },
    {
      "constant": true,
      "inputs": [
        {
          "name": "_tokenId",
          "type": "uint256"
        }
      ],
      "name": "exists",
      "outputs": [
        {
          "name": "",
          "type": "bool"
        }
      ],
      "payable": false,
      "stateMutability": "view",
      "type": "function"
    },
    {
      "constant": true,
      "inputs": [
        {
          "name": "_index",
          "type": "uint256"
        }
      ],
      "name": "tokenByIndex",
      "outputs": [
        {
          "name": "",
          "type": "uint256"
        }
      ],
      "payable": false,
      "stateMutability": "view",
      "type": "function"
    },
    {
      "constant": true,
      "inputs": [],
      "name": "paused",
      "outputs": [
        {
          "name": "",
          "type": "bool"
        }
      ],
      "payable": false,
      "stateMutability": "view",
      "type": "function"
    },
    {
      "constant": true,
      "inputs": [
        {
          "name": "_tokenId",
          "type": "uint256"
        }
      ],
      "name": "ownerOf",
      "outputs": [
        {
          "name": "",
          "type": "address"
        }
      ],
      "payable": false,
      "stateMutability": "view",
      "type": "function"
    },
    {
      "constant": true,
      "inputs": [
        {
          "name": "_owner",
          "type": "address"
        }
      ],
      "name": "balanceOf",
      "outputs": [
        {
          "name": "",
          "type": "uint256"
        }
      ],
      "payable": false,
      "stateMutability": "view",
      "type": "function"
    },
    {
      "constant": false,
      "inputs": [],
      "name": "renounceOwnership",
      "outputs": [],
      "payable": false,
      "stateMutability": "nonpayable",
      "type": "function"
    },
    {
      "constant": false,
      "inputs": [],
      "name": "pause",
      "outputs": [],
      "payable": false,
      "stateMutability": "nonpayable",
      "type": "function"
    },
    {
      "constant": true,
      "inputs": [
        {
          "name": "",
          "type": "uint256"
        }
      ],
      "name": "retailers",
      "outputs": [
        {
          "name": "name",
          "type": "bytes32"
        },
        {
          "name": "txFeeAmount",
          "type": "uint256"
        }
      ],
      "payable": false,
      "stateMutability": "view",
      "type": "function"
    },
    {
      "constant": true,
      "inputs": [],
      "name": "owner",
      "outputs": [
        {
          "name": "",
          "type": "address"
        }
      ],
      "payable": false,
      "stateMutability": "view",
      "type": "function"
    },
    {
      "constant": true,
      "inputs": [],
      "name": "symbol",
      "outputs": [
        {
          "name": "",
          "type": "string"
        }
      ],
      "payable": false,
      "stateMutability": "view",
      "type": "function"
    },
    {
      "constant": false,
      "inputs": [
        {
          "name": "_to",
          "type": "address"
        },
        {
          "name": "_approved",
          "type": "bool"
        }
      ],
      "name": "setApprovalForAll",
      "outputs": [],
      "payable": false,
      "stateMutability": "nonpayable",
      "type": "function"
    },
    {
      "constant": false,
      "inputs": [
        {
          "name": "_from",
          "type": "address"
        },
        {
          "name": "_to",
          "type": "address"
        },
        {
          "name": "_tokenId",
          "type": "uint256"
        },
        {
          "name": "_data",
          "type": "bytes"
        }
      ],
      "name": "safeTransferFrom",
      "outputs": [],
      "payable": false,
      "stateMutability": "nonpayable",
      "type": "function"
    },
    {
      "constant": true,
      "inputs": [
        {
          "name": "_tokenId",
          "type": "uint256"
        }
      ],
      "name": "tokenURI",
      "outputs": [
        {
          "name": "",
          "type": "string"
        }
      ],
      "payable": false,
      "stateMutability": "view",
      "type": "function"
    },
    {
      "constant": true,
      "inputs": [
        {
          "name": "_owner",
          "type": "address"
        },
        {
          "name": "_operator",
          "type": "address"
        }
      ],
      "name": "isApprovedForAll",
      "outputs": [
        {
          "name": "",
          "type": "bool"
        }
      ],
      "payable": false,
      "stateMutability": "view",
      "type": "function"
    },
    {
      "constant": false,
      "inputs": [
        {
          "name": "_newOwner",
          "type": "address"
        }
      ],
      "name": "transferOwnership",
      "outputs": [],
      "payable": false,
      "stateMutability": "nonpayable",
      "type": "function"
    },
    {
      "anonymous": false,
      "inputs": [],
      "name": "Pause",
      "type": "event"
    },
    {
      "anonymous": false,
      "inputs": [],
      "name": "Unpause",
      "type": "event"
    },
    {
      "anonymous": false,
      "inputs": [
        {
          "indexed": true,
          "name": "previousOwner",
          "type": "address"
        }
      ],
      "name": "OwnershipRenounced",
      "type": "event"
    },
    {
      "anonymous": false,
      "inputs": [
        {
          "indexed": true,
          "name": "previousOwner",
          "type": "address"
        },
        {
          "indexed": true,
          "name": "newOwner",
          "type": "address"
        }
      ],
      "name": "OwnershipTransferred",
      "type": "event"
    },
    {
      "anonymous": false,
      "inputs": [
        {
          "indexed": true,
          "name": "_from",
          "type": "address"
        },
        {
          "indexed": true,
          "name": "_to",
          "type": "address"
        },
        {
          "indexed": false,
          "name": "_tokenId",
          "type": "uint256"
        }
      ],
      "name": "Transfer",
      "type": "event"
    },
    {
      "anonymous": false,
      "inputs": [
        {
          "indexed": true,
          "name": "_owner",
          "type": "address"
        },
        {
          "indexed": true,
          "name": "_approved",
          "type": "address"
        },
        {
          "indexed": false,
          "name": "_tokenId",
          "type": "uint256"
        }
      ],
      "name": "Approval",
      "type": "event"
    },
    {
      "anonymous": false,
      "inputs": [
        {
          "indexed": true,
          "name": "_owner",
          "type": "address"
        },
        {
          "indexed": true,
          "name": "_operator",
          "type": "address"
        },
        {
          "indexed": false,
          "name": "_approved",
          "type": "bool"
        }
      ],
      "name": "ApprovalForAll",
      "type": "event"
    },
    {
      "constant": false,
      "inputs": [
        {
          "name": "_address",
          "type": "address"
        },
        {
          "name": "_name",
          "type": "bytes32"
        },
        {
          "name": "_txFeeAmount",
          "type": "uint256"
        }
      ],
      "name": "addRetailer",
      "outputs": [
        {
          "name": "retailerId",
          "type": "uint256"
        }
      ],
      "payable": false,
      "stateMutability": "nonpayable",
      "type": "function"
    },
    {
      "constant": true,
      "inputs": [
        {
          "name": "_retailerId",
          "type": "uint256"
        }
      ],
      "name": "nameById",
      "outputs": [
        {
          "name": "",
          "type": "bytes32"
        }
      ],
      "payable": false,
      "stateMutability": "view",
      "type": "function"
    },
    {
      "constant": false,
      "inputs": [
        {
          "name": "_retailerId",
          "type": "uint256"
        },
        {
          "name": "_name",
          "type": "bytes32"
        }
      ],
      "name": "setNameById",
      "outputs": [],
      "payable": false,
      "stateMutability": "nonpayable",
      "type": "function"
    },
    {
      "constant": true,
      "inputs": [
        {
          "name": "_retailerId",
          "type": "uint256"
        }
      ],
      "name": "txFeeAmountById",
      "outputs": [
        {
          "name": "",
          "type": "uint256"
        }
      ],
      "payable": false,
      "stateMutability": "view",
      "type": "function"
    },
    {
      "constant": false,
      "inputs": [
        {
          "name": "_retailerId",
          "type": "uint256"
        },
        {
          "name": "_txFeeAmount",
          "type": "uint256"
        }
      ],
      "name": "setTxFeeAmountById",
      "outputs": [],
      "payable": false,
      "stateMutability": "nonpayable",
      "type": "function"
    }
  ],
  "bytecode": "0x600b805460a060020a60ff0219169055601060808181527f5469636b65742072657461696c6572730000000000000000000000000000000060a0908152610100604052600d60c09081527f504c4e522d52455441494c45520000000000000000000000000000000000000060e05291926200007d91600491620000ae565b50805162000093906005906020840190620000ae565b5050600b8054600160a060020a031916331790555062000153565b828054600181600116156101000203166002900490600052602060002090601f016020900481019282601f10620000f157805160ff191683800117855562000121565b8280016001018555821562000121579182015b828111156200012157825182559160200191906001019062000104565b506200012f92915062000133565b5090565b6200015091905b808211156200012f57600081556001016200013a565b90565b61164480620001636000396000f3006080604052600436106101695763ffffffff7c010000000000000000000000000000000000000000000000000000000060003504166306fdde03811461016e578063081812fc146101f8578063095ea7b31461022c5780630e0a563b1461025257806318160ddd1461028b5780631ab97c63146102a057806323b872dd146102b85780632f745c59146102e257806331952080146103065780633f4ba83a1461031e578063403b059d1461033357806342842e0e1461034e5780634f558e79146103785780634f6ccce7146103a45780635c975abb146103bc5780636352211e146103d157806370a08231146103e9578063715018a61461040a5780638456cb591461041f578063897ec7df146104345780638da5cb5b1461046557806395d89b411461047a578063a22cb4651461048f578063b50efe06146104b5578063b88d4fde146104d0578063c87b56dd1461053f578063e985e9c514610557578063f2fde38b1461057e575b600080fd5b34801561017a57600080fd5b5061018361059f565b6040805160208082528351818301528351919283929083019185019080838360005b838110156101bd5781810151838201526020016101a5565b50505050905090810190601f1680156101ea5780820380516001836020036101000a031916815260200191505b509250505060405180910390f35b34801561020457600080fd5b50610210600435610636565b60408051600160a060020a039092168252519081900360200190f35b34801561023857600080fd5b50610250600160a060020a0360043516602435610651565b005b34801561025e57600080fd5b50610279600160a060020a0360043516602435604435610743565b60408051918252519081900360200190f35b34801561029757600080fd5b5061027961084b565b3480156102ac57600080fd5b50610279600435610851565b3480156102c457600080fd5b50610250600160a060020a036004358116906024351660443561087b565b3480156102ee57600080fd5b50610279600160a060020a036004351660243561092a565b34801561031257600080fd5b50610279600435610977565b34801561032a57600080fd5b506102506109a1565b34801561033f57600080fd5b50610250600435602435610a2a565b34801561035a57600080fd5b50610250600160a060020a0360043581169060243516604435610a72565b34801561038457600080fd5b50610390600435610aaa565b604080519115158252519081900360200190f35b3480156103b057600080fd5b50610279600435610ac7565b3480156103c857600080fd5b50610390610afc565b3480156103dd57600080fd5b50610210600435610b1d565b3480156103f557600080fd5b50610279600160a060020a0360043516610b47565b34801561041657600080fd5b50610250610b7a565b34801561042b57600080fd5b50610250610be8565b34801561044057600080fd5b5061044c600435610c87565b6040805192835260208301919091528051918290030190f35b34801561047157600080fd5b50610210610cb3565b34801561048657600080fd5b50610183610cc2565b34801561049b57600080fd5b50610250600160a060020a03600435166024351515610d23565b3480156104c157600080fd5b50610250600435602435610da7565b3480156104dc57600080fd5b50604080516020601f60643560048181013592830184900484028501840190955281845261025094600160a060020a038135811695602480359092169560443595369560849401918190840183828082843750949750610deb9650505050505050565b34801561054b57600080fd5b50610183600435610e2a565b34801561056357600080fd5b50610390600160a060020a0360043581169060243516610edf565b34801561058a57600080fd5b50610250600160a060020a0360043516610f0d565b60048054604080516020601f600260001961010060018816150201909516949094049384018190048102820181019092528281526060939092909183018282801561062b5780601f106106005761010080835404028352916020019161062b565b820191906000526020600020905b81548152906001019060200180831161060e57829003601f168201915b505050505090505b90565b600090815260016020526040902054600160a060020a031690565b600061065c82610b1d565b9050600160a060020a03838116908216141561067757600080fd5b33600160a060020a038216148061069357506106938133610edf565b151561069e57600080fd5b60006106a983610636565b600160a060020a03161415806106c75750600160a060020a03831615155b1561073e57600082815260016020908152604091829020805473ffffffffffffffffffffffffffffffffffffffff1916600160a060020a03878116918217909255835186815293519093918516927f8c5be1e5ebec7d5bd14f71427d1e84f3dd0314c0f7b2291e5b200ac8c7c3b925928290030190a35b505050565b600061074d6115c4565b600b54600090600160a060020a0316331461076757600080fd5b7fff000000000000000000000000000000000000000000000000000000000000007f0100000000000000000000000000000000000000000000000000000000000000600087901a021615156107bb57600080fd5b50506040805180820190915283815260208101838152600c80546001810182556000919091528251600282027fdf6966c971051c3d54ec59162606531493a51404a002842f56009d7e5cf4a8c781019190915591517fdf6966c971051c3d54ec59162606531493a51404a002842f56009d7e5cf4a8c8909201919091556108428682610f30565b95945050505050565b60085490565b6000600c8281548110151561086257fe5b9060005260206000209060020201600001549050919050565b806108863382610f7f565b151561089157600080fd5b600160a060020a03841615156108a657600080fd5b600160a060020a03831615156108bb57600080fd5b6108c58483610fde565b6108cf848361108c565b6108d983836111c5565b82600160a060020a031684600160a060020a03167fddf252ad1be2c89b69c2b068fc378daa952ba7f163c4a11628f55a4df523b3ef846040518082815260200191505060405180910390a350505050565b600061093583610b47565b821061094057600080fd5b600160a060020a038316600090815260066020526040902080548390811061096457fe5b9060005260206000200154905092915050565b6000600c8281548110151561098857fe5b9060005260206000209060020201600101549050919050565b600b54600160a060020a031633146109b857600080fd5b600b5474010000000000000000000000000000000000000000900460ff1615156109e157600080fd5b600b805474ff0000000000000000000000000000000000000000191690556040517f7805862f689e2f13df9f062ff482ad3ad112aca9e0847911ed832e158c525b3390600090a1565b8133610a3582610b1d565b600160a060020a031614610a4857600080fd5b81600c84815481101515610a5857fe5b906000526020600020906002020160010181905550505050565b80610a7d3382610f7f565b1515610a8857600080fd5b610aa48484846020604051908101604052806000815250610deb565b50505050565b600090815260208190526040902054600160a060020a0316151590565b6000610ad161084b565b8210610adc57600080fd5b6008805483908110610aea57fe5b90600052602060002001549050919050565b600b5474010000000000000000000000000000000000000000900460ff1681565b600081815260208190526040812054600160a060020a0316801515610b4157600080fd5b92915050565b6000600160a060020a0382161515610b5e57600080fd5b50600160a060020a031660009081526002602052604090205490565b600b54600160a060020a03163314610b9157600080fd5b600b54604051600160a060020a03909116907ff8df31144d9c2f0f6b59d69b8b98abd5459d07f2742c4df920b25aae33c6482090600090a2600b805473ffffffffffffffffffffffffffffffffffffffff19169055565b600b54600160a060020a03163314610bff57600080fd5b600b5474010000000000000000000000000000000000000000900460ff1615610c2757600080fd5b600b805474ff00000000000000000000000000000000000000001916740100000000000000000000000000000000000000001790556040517f6985a02210a168e66602d3235cb6db0e70f92b3ba4d376a33c0f3d9434bff62590600090a1565b600c805482908110610c9557fe5b60009182526020909120600290910201805460019091015490915082565b600b54600160a060020a031681565b60058054604080516020601f600260001961010060018816150201909516949094049384018190048102820181019092528281526060939092909183018282801561062b5780601f106106005761010080835404028352916020019161062b565b600160a060020a038216331415610d3957600080fd5b336000818152600360209081526040808320600160a060020a03871680855290835292819020805460ff1916861515908117909155815190815290519293927f17307eab39ab6107e8899845ad3d59bd9653f200f220920489ca2b5937696c31929181900390910190a35050565b8133610db282610b1d565b600160a060020a031614610dc557600080fd5b81600c84815481101515610dd557fe5b6000918252602090912060029091020155505050565b81610df63382610f7f565b1515610e0157600080fd5b610e0c85858561087b565b610e188585858561120e565b1515610e2357600080fd5b5050505050565b6060610e3582610aaa565b1515610e4057600080fd5b6000828152600a602090815260409182902080548351601f600260001961010060018616150201909316929092049182018490048402810184019094528084529091830182828015610ed35780601f10610ea857610100808354040283529160200191610ed3565b820191906000526020600020905b815481529060010190602001808311610eb657829003601f168201915b50505050509050919050565b600160a060020a03918216600090815260036020908152604080832093909416825291909152205460ff1690565b600b54600160a060020a03163314610f2457600080fd5b610f2d81611397565b50565b610f3a8282611415565b600880546000838152600960205260408120829055600182018355919091527ff3f7a9fe364faab93b216da50a3214154f22a0a2b415b23a84c8169e8b636ee3015550565b600080610f8b83610b1d565b905080600160a060020a031684600160a060020a03161480610fc6575083600160a060020a0316610fbb84610636565b600160a060020a0316145b80610fd65750610fd68185610edf565b949350505050565b81600160a060020a0316610ff182610b1d565b600160a060020a03161461100457600080fd5b600081815260016020526040902054600160a060020a031615611088576000818152600160209081526040808320805473ffffffffffffffffffffffffffffffffffffffff1916905580518481529051600160a060020a038616927f8c5be1e5ebec7d5bd14f71427d1e84f3dd0314c0f7b2291e5b200ac8c7c3b925928290030190a35b5050565b600080600061109b8585611479565b600084815260076020908152604080832054600160a060020a03891684526006909252909120549093506110d690600163ffffffff61150e16565b600160a060020a0386166000908152600660205260409020805491935090839081106110fe57fe5b90600052602060002001549050806006600087600160a060020a0316600160a060020a031681526020019081526020016000208481548110151561113e57fe5b6000918252602080832090910192909255600160a060020a038716815260069091526040812080548490811061117057fe5b6000918252602080832090910192909255600160a060020a03871681526006909152604090208054906111a79060001983016115db565b50600093845260076020526040808520859055908452909220555050565b60006111d18383611520565b50600160a060020a039091166000908152600660209081526040808320805460018101825590845282842081018590559383526007909152902055565b60008061122385600160a060020a03166115af565b1515611232576001915061138e565b84600160a060020a031663f0b9e5ba8786866040518463ffffffff167c01000000000000000000000000000000000000000000000000000000000281526004018084600160a060020a0316600160a060020a0316815260200183815260200180602001828103825283818151815260200191508051906020019080838360005b838110156112ca5781810151838201526020016112b2565b50505050905090810190601f1680156112f75780820380516001836020036101000a031916815260200191505b50945050505050602060405180830381600087803b15801561131857600080fd5b505af115801561132c573d6000803e3d6000fd5b505050506040513d602081101561134257600080fd5b50517fffffffff0000000000000000000000000000000000000000000000000000000081167ff0b9e5ba0000000000000000000000000000000000000000000000000000000014925090505b50949350505050565b600160a060020a03811615156113ac57600080fd5b600b54604051600160a060020a038084169216907f8be0079c531659141344cd1fd0a4f28419497f9722a3daafe3b4186f6b6457e090600090a3600b805473ffffffffffffffffffffffffffffffffffffffff1916600160a060020a0392909216919091179055565b600160a060020a038216151561142a57600080fd5b61143482826111c5565b604080518281529051600160a060020a038416916000917fddf252ad1be2c89b69c2b068fc378daa952ba7f163c4a11628f55a4df523b3ef9181900360200190a35050565b81600160a060020a031661148c82610b1d565b600160a060020a03161461149f57600080fd5b600160a060020a0382166000908152600260205260409020546114c990600163ffffffff61150e16565b600160a060020a039092166000908152600260209081526040808320949094559181529081905220805473ffffffffffffffffffffffffffffffffffffffff19169055565b60008282111561151a57fe5b50900390565b600081815260208190526040902054600160a060020a03161561154257600080fd5b600081815260208181526040808320805473ffffffffffffffffffffffffffffffffffffffff1916600160a060020a0387169081179091558352600290915290205461158f9060016115b7565b600160a060020a0390921660009081526002602052604090209190915550565b6000903b1190565b81810182811015610b4157fe5b604080518082019091526000808252602082015290565b81548183558181111561073e5760008381526020902061073e91810190830161063391905b808211156116145760008155600101611600565b50905600a165627a7a72305820adef4a3885db0cde73f9906c0e82a8eb1f0cc91c48b7f2261dd3e86c5ce53d730029",
  "source": "pragma solidity ^0.4.24;\n\nimport {ERC721Token} from \"zeppelin-solidity/contracts/token/ERC721/ERC721Token.sol\";\nimport {Pausable} from \"zeppelin-solidity/contracts/lifecycle/Pausable.sol\";\n\n/**\n * Maintains a list of authorised ticket retailers\n */\ncontract Retailers is ERC721Token(\"Ticket retailers\", \"PLNR-RETAILER\"), Pausable {\n\n  /**\n   * Retailer details\n   */\n  struct Retailer {\n    bytes32 name;\n    uint txFeeAmount;\n  }\n\n  /**\n   * Index of retailers\n   */\n  Retailer[] public retailers;\n\n  /**\n   * Adds the given retailer to the index and returns their ID. Note that the message sender is not the owner of the\n   * retailer generated - the owner is the _address property. \n   */\n  function addRetailer(\n    address _address,\n    bytes32 _name,\n    uint _txFeeAmount\n  ) \n    public\n    onlyOwner\n    returns (uint retailerId) \n  {\n    require(_name[0] != 0);\n\n    Retailer memory _retailer = Retailer({\n      name: _name,\n      txFeeAmount: _txFeeAmount\n    });\n    uint256 opId = retailers.push(_retailer) - 1;\n\n    _mint(_address, opId);\n\n    return opId;\n  }\n\n  /**\n   * Get the name of the given retailer\n   */\n  function nameById(uint _retailerId) public view returns(bytes32) {\n    return retailers[_retailerId].name;\n  }\n\n  /**\n   * Set the name of the given retailer\n   */\n  function setNameById(uint _retailerId, bytes32 _name) public onlyOwnerOf(_retailerId) {\n    retailers[_retailerId].name = _name;\n  }\n\n  /**\n   * Get the transaction fee charged by a retailer\n   */\n  function txFeeAmountById(uint _retailerId) public view returns(uint) {\n    return retailers[_retailerId].txFeeAmount;\n  }\n\n  /**\n   * Set the transaction fee of a retailer\n   */\n  function setTxFeeAmountById(uint _retailerId, uint _txFeeAmount) public onlyOwnerOf(_retailerId) {\n    retailers[_retailerId].txFeeAmount = _txFeeAmount;\n  }\n\n}\n",
  "sourcePath": "/Users/marek/Documents/blockchain/planar/wallet/contracts/Retailers.sol",
  "compiler": {
    "name": "solc",
    "version": "0.4.24+commit.e67f0147.Emscripten.clang"
  },
  "schemaVersion": "2.0.1",
  "updatedAt": "2018-06-30T21:43:40.026Z"
}