{
  "contractName": "TicketWallet",
  "abi": [
    {
      "constant": true,
      "inputs": [],
      "name": "name",
      "outputs": [
        {
          "name": "",
          "type": "string"
        }
      ],
      "payable": false,
      "stateMutability": "view",
      "type": "function"
    },
    {
      "constant": true,
      "inputs": [
        {
          "name": "_tokenId",
          "type": "uint256"
        }
      ],
      "name": "getApproved",
      "outputs": [
        {
          "name": "",
          "type": "address"
        }
      ],
      "payable": false,
      "stateMutability": "view",
      "type": "function"
    },
    {
      "constant": false,
      "inputs": [
        {
          "name": "_to",
          "type": "address"
        },
        {
          "name": "_tokenId",
          "type": "uint256"
        }
      ],
      "name": "approve",
      "outputs": [],
      "payable": false,
      "stateMutability": "nonpayable",
      "type": "function"
    },
    {
      "constant": true,
      "inputs": [],
      "name": "totalSupply",
      "outputs": [
        {
          "name": "",
          "type": "uint256"
        }
      ],
      "payable": false,
      "stateMutability": "view",
      "type": "function"
    },
    {
      "constant": false,
      "inputs": [
        {
          "name": "_from",
          "type": "address"
        },
        {
          "name": "_to",
          "type": "address"
        },
        {
          "name": "_tokenId",
          "type": "uint256"
        }
      ],
      "name": "transferFrom",
      "outputs": [],
      "payable": false,
      "stateMutability": "nonpayable",
      "type": "function"
    },
    {
      "constant": true,
      "inputs": [
        {
          "name": "_owner",
          "type": "address"
        },
        {
          "name": "_index",
          "type": "uint256"
        }
      ],
      "name": "tokenOfOwnerByIndex",
      "outputs": [
        {
          "name": "",
          "type": "uint256"
        }
      ],
      "payable": false,
      "stateMutability": "view",
      "type": "function"
    },
    {
      "constant": true,
      "inputs": [],
      "name": "retailers",
      "outputs": [
        {
          "name": "",
          "type": "address"
        }
      ],
      "payable": false,
      "stateMutability": "view",
      "type": "function"
    },
    {
      "constant": false,
      "inputs": [],
      "name": "unpause",
      "outputs": [],
      "payable": false,
      "stateMutability": "nonpayable",
      "type": "function"
    },
    {
      "constant": false,
      "inputs": [
        {
          "name": "_from",
          "type": "address"
        },
        {
          "name": "_to",
          "type": "address"
        },
        {
          "name": "_tokenId",
          "type": "uint256"
        }
      ],
      "name": "safeTransferFrom",
      "outputs": [],
      "payable": false,
      "stateMutability": "nonpayable",
      "type": "function"
    },
    {
      "constant": true,
      "inputs": [
        {
          "name": "_tokenId",
          "type": "uint256"
        }
      ],
      "name": "exists",
      "outputs": [
        {
          "name": "",
          "type": "bool"
        }
      ],
      "payable": false,
      "stateMutability": "view",
      "type": "function"
    },
    {
      "constant": true,
      "inputs": [
        {
          "name": "_index",
          "type": "uint256"
        }
      ],
      "name": "tokenByIndex",
      "outputs": [
        {
          "name": "",
          "type": "uint256"
        }
      ],
      "payable": false,
      "stateMutability": "view",
      "type": "function"
    },
    {
      "constant": true,
      "inputs": [
        {
          "name": "",
          "type": "uint256"
        }
      ],
      "name": "tickets",
      "outputs": [
        {
          "name": "description",
          "type": "bytes32"
        },
        {
          "name": "price",
          "type": "uint256"
        },
        {
          "name": "payloadUrl",
          "type": "bytes32"
        },
        {
          "name": "state",
          "type": "uint8"
        },
        {
          "name": "created",
          "type": "uint256"
        },
        {
          "name": "fulfilmentMethod",
          "type": "uint8"
        },
        {
          "name": "fulfilmentUrl",
          "type": "bytes32"
        },
        {
          "name": "retailerId",
          "type": "uint256"
        }
      ],
      "payable": false,
      "stateMutability": "view",
      "type": "function"
    },
    {
      "constant": true,
      "inputs": [],
      "name": "paused",
      "outputs": [
        {
          "name": "",
          "type": "bool"
        }
      ],
      "payable": false,
      "stateMutability": "view",
      "type": "function"
    },
    {
      "constant": true,
      "inputs": [
        {
          "name": "_tokenId",
          "type": "uint256"
        }
      ],
      "name": "ownerOf",
      "outputs": [
        {
          "name": "",
          "type": "address"
        }
      ],
      "payable": false,
      "stateMutability": "view",
      "type": "function"
    },
    {
      "constant": true,
      "inputs": [
        {
          "name": "_owner",
          "type": "address"
        }
      ],
      "name": "balanceOf",
      "outputs": [
        {
          "name": "",
          "type": "uint256"
        }
      ],
      "payable": false,
      "stateMutability": "view",
      "type": "function"
    },
    {
      "constant": false,
      "inputs": [],
      "name": "renounceOwnership",
      "outputs": [],
      "payable": false,
      "stateMutability": "nonpayable",
      "type": "function"
    },
    {
      "constant": false,
      "inputs": [],
      "name": "pause",
      "outputs": [],
      "payable": false,
      "stateMutability": "nonpayable",
      "type": "function"
    },
    {
      "constant": true,
      "inputs": [],
      "name": "owner",
      "outputs": [
        {
          "name": "",
          "type": "address"
        }
      ],
      "payable": false,
      "stateMutability": "view",
      "type": "function"
    },
    {
      "constant": true,
      "inputs": [],
      "name": "symbol",
      "outputs": [
        {
          "name": "",
          "type": "string"
        }
      ],
      "payable": false,
      "stateMutability": "view",
      "type": "function"
    },
    {
      "constant": false,
      "inputs": [
        {
          "name": "_to",
          "type": "address"
        },
        {
          "name": "_approved",
          "type": "bool"
        }
      ],
      "name": "setApprovalForAll",
      "outputs": [],
      "payable": false,
      "stateMutability": "nonpayable",
      "type": "function"
    },
    {
      "constant": false,
      "inputs": [
        {
          "name": "_from",
          "type": "address"
        },
        {
          "name": "_to",
          "type": "address"
        },
        {
          "name": "_tokenId",
          "type": "uint256"
        },
        {
          "name": "_data",
          "type": "bytes"
        }
      ],
      "name": "safeTransferFrom",
      "outputs": [],
      "payable": false,
      "stateMutability": "nonpayable",
      "type": "function"
    },
    {
      "constant": true,
      "inputs": [
        {
          "name": "_tokenId",
          "type": "uint256"
        }
      ],
      "name": "tokenURI",
      "outputs": [
        {
          "name": "",
          "type": "string"
        }
      ],
      "payable": false,
      "stateMutability": "view",
      "type": "function"
    },
    {
      "constant": true,
      "inputs": [
        {
          "name": "_owner",
          "type": "address"
        },
        {
          "name": "_operator",
          "type": "address"
        }
      ],
      "name": "isApprovedForAll",
      "outputs": [
        {
          "name": "",
          "type": "bool"
        }
      ],
      "payable": false,
      "stateMutability": "view",
      "type": "function"
    },
    {
      "constant": false,
      "inputs": [
        {
          "name": "_newOwner",
          "type": "address"
        }
      ],
      "name": "transferOwnership",
      "outputs": [],
      "payable": false,
      "stateMutability": "nonpayable",
      "type": "function"
    },
    {
      "inputs": [
        {
          "name": "_retailers",
          "type": "address"
        }
      ],
      "payable": false,
      "stateMutability": "nonpayable",
      "type": "constructor"
    },
    {
      "anonymous": false,
      "inputs": [],
      "name": "Pause",
      "type": "event"
    },
    {
      "anonymous": false,
      "inputs": [],
      "name": "Unpause",
      "type": "event"
    },
    {
      "anonymous": false,
      "inputs": [
        {
          "indexed": true,
          "name": "previousOwner",
          "type": "address"
        }
      ],
      "name": "OwnershipRenounced",
      "type": "event"
    },
    {
      "anonymous": false,
      "inputs": [
        {
          "indexed": true,
          "name": "previousOwner",
          "type": "address"
        },
        {
          "indexed": true,
          "name": "newOwner",
          "type": "address"
        }
      ],
      "name": "OwnershipTransferred",
      "type": "event"
    },
    {
      "anonymous": false,
      "inputs": [
        {
          "indexed": true,
          "name": "_from",
          "type": "address"
        },
        {
          "indexed": true,
          "name": "_to",
          "type": "address"
        },
        {
          "indexed": false,
          "name": "_tokenId",
          "type": "uint256"
        }
      ],
      "name": "Transfer",
      "type": "event"
    },
    {
      "anonymous": false,
      "inputs": [
        {
          "indexed": true,
          "name": "_owner",
          "type": "address"
        },
        {
          "indexed": true,
          "name": "_approved",
          "type": "address"
        },
        {
          "indexed": false,
          "name": "_tokenId",
          "type": "uint256"
        }
      ],
      "name": "Approval",
      "type": "event"
    },
    {
      "anonymous": false,
      "inputs": [
        {
          "indexed": true,
          "name": "_owner",
          "type": "address"
        },
        {
          "indexed": true,
          "name": "_operator",
          "type": "address"
        },
        {
          "indexed": false,
          "name": "_approved",
          "type": "bool"
        }
      ],
      "name": "ApprovalForAll",
      "type": "event"
    },
    {
      "constant": false,
      "inputs": [
        {
          "name": "_description",
          "type": "bytes32"
        },
        {
          "name": "_expiry",
          "type": "uint256"
        },
        {
          "name": "_price",
          "type": "uint256"
        },
        {
          "name": "_retailerId",
          "type": "uint256"
        },
        {
          "name": "_payloadUrl",
          "type": "bytes32"
        },
        {
          "name": "_fulfilmentMethod",
          "type": "uint8"
        },
        {
          "name": "_signature",
          "type": "string"
        }
      ],
      "name": "createTicket",
      "outputs": [
        {
          "name": "",
          "type": "uint256"
        }
      ],
      "payable": true,
      "stateMutability": "payable",
      "type": "function"
    },
    {
      "constant": false,
      "inputs": [
        {
          "name": "_ticketId",
          "type": "uint256"
        },
        {
          "name": "_fulfilmentUrl",
          "type": "bytes32"
        }
      ],
      "name": "fulfilTicket",
      "outputs": [],
      "payable": false,
      "stateMutability": "nonpayable",
      "type": "function"
    },
    {
      "constant": false,
      "inputs": [
        {
          "name": "_newRetailers",
          "type": "address"
        }
      ],
      "name": "setRetailerAddress",
      "outputs": [],
      "payable": false,
      "stateMutability": "nonpayable",
      "type": "function"
    },
    {
      "constant": true,
      "inputs": [
        {
          "name": "_ticketId",
          "type": "uint256"
        }
      ],
      "name": "getTicketDescriptionById",
      "outputs": [
        {
          "name": "",
          "type": "bytes32"
        }
      ],
      "payable": false,
      "stateMutability": "view",
      "type": "function"
    },
    {
      "constant": true,
      "inputs": [
        {
          "name": "_ticketId",
          "type": "uint256"
        }
      ],
      "name": "getTicketPayloadUrlById",
      "outputs": [
        {
          "name": "",
          "type": "bytes32"
        }
      ],
      "payable": false,
      "stateMutability": "view",
      "type": "function"
    },
    {
      "constant": true,
      "inputs": [
        {
          "name": "_ticketId",
          "type": "uint256"
        }
      ],
      "name": "getFulfilmentUrlById",
      "outputs": [
        {
          "name": "",
          "type": "bytes32"
        }
      ],
      "payable": false,
      "stateMutability": "view",
      "type": "function"
    }
  ],
  "bytecode": "0x6080604052600b805460a060020a60ff02191690553480156200002157600080fd5b5060405160208062001e4483398101604081815291518282018352600d82527f5469636b65742077616c6c65740000000000000000000000000000000000000060208084019182528451808601909552600b85527f504c4e522d57414c4c4554000000000000000000000000000000000000000000908501528251919391620000ad91600491620000fb565b508051620000c3906005906020840190620000fb565b5050600b805433600160a060020a031991821617909155600d8054909116600160a060020a03939093169290921790915550620001a0565b828054600181600116156101000203166002900490600052602060002090601f016020900481019282601f106200013e57805160ff19168380011785556200016e565b828001600101855582156200016e579182015b828111156200016e57825182559160200191906001019062000151565b506200017c92915062000180565b5090565b6200019d91905b808211156200017c576000815560010162000187565b90565b611c9480620001b06000396000f3006080604052600436106101665763ffffffff60e060020a60003504166306fdde03811461016b578063081812fc146101f5578063095ea7b31461022957806318160ddd1461024f57806323b872dd146102765780632f745c59146102a05780633cafc8a2146102c45780633f4ba83a146102d957806342842e0e146102ee57806346eb3a2d146103185780634f558e79146103305780634f6ccce71461035c57806350b44712146103745780635c975abb146103f35780635df336f4146104085780636352211e14610429578063667a22151461044157806370a08231146104ab578063715018a6146104cc57806380275a75146104e15780638456cb59146104f95780638da5cb5b1461050e57806395d89b41146105235780639c9615fb14610538578063a22cb46514610550578063b88d4fde14610576578063c87b56dd146105e5578063e985e9c5146105fd578063f2fde38b14610624578063f734096314610645575b600080fd5b34801561017757600080fd5b50610180610660565b6040805160208082528351818301528351919283929083019185019080838360005b838110156101ba5781810151838201526020016101a2565b50505050905090810190601f1680156101e75780820380516001836020036101000a031916815260200191505b509250505060405180910390f35b34801561020157600080fd5b5061020d6004356106f7565b60408051600160a060020a039092168252519081900360200190f35b34801561023557600080fd5b5061024d600160a060020a0360043516602435610712565b005b34801561025b57600080fd5b506102646107f7565b60408051918252519081900360200190f35b34801561028257600080fd5b5061024d600160a060020a03600435811690602435166044356107fd565b3480156102ac57600080fd5b50610264600160a060020a03600435166024356108ac565b3480156102d057600080fd5b5061020d6108f9565b3480156102e557600080fd5b5061024d610908565b3480156102fa57600080fd5b5061024d600160a060020a0360043581169060243516604435610991565b34801561032457600080fd5b506102646004356109c9565b34801561033c57600080fd5b50610348600435610a57565b604080519115158252519081900360200190f35b34801561036857600080fd5b50610264600435610a74565b34801561038057600080fd5b5061038c600435610aa9565b6040805189815260208101899052908101879052606081018660028111156103b057fe5b60ff1681526020018581526020018460028111156103ca57fe5b60ff16815260208101939093525060408083019190915251908190036060019650945050505050f35b3480156103ff57600080fd5b50610348610b04565b34801561041457600080fd5b5061024d600160a060020a0360043516610b25565b34801561043557600080fd5b5061020d600435610b5e565b604080516020601f60c43560048181013592830184900484028501840190955281845261026494803594602480359560443595606435956084359560ff60a43516953695919460e4949193909201918190840183828082843750949750610b889650505050505050565b3480156104b757600080fd5b50610264600160a060020a0360043516610f75565b3480156104d857600080fd5b5061024d610fa8565b3480156104ed57600080fd5b50610264600435611009565b34801561050557600080fd5b5061024d611080565b34801561051a57600080fd5b5061020d61111f565b34801561052f57600080fd5b5061018061112e565b34801561054457600080fd5b5061026460043561118f565b34801561055c57600080fd5b5061024d600160a060020a03600435166024351515611242565b34801561058257600080fd5b50604080516020601f60643560048181013592830184900484028501840190955281845261024d94600160a060020a0381358116956024803590921695604435953695608494019181908401838280828437509497506112c69650505050505050565b3480156105f157600080fd5b50610180600435611305565b34801561060957600080fd5b50610348600160a060020a03600435811690602435166113ba565b34801561063057600080fd5b5061024d600160a060020a03600435166113e8565b34801561065157600080fd5b5061024d60043560243561140b565b60048054604080516020601f60026000196101006001881615020190951694909404938401819004810282018101909252828152606093909290918301828280156106ec5780601f106106c1576101008083540402835291602001916106ec565b820191906000526020600020905b8154815290600101906020018083116106cf57829003601f168201915b505050505090505b90565b600090815260016020526040902054600160a060020a031690565b600061071d82610b5e565b9050600160a060020a03838116908216141561073857600080fd5b33600160a060020a0382161480610754575061075481336113ba565b151561075f57600080fd5b600061076a836106f7565b600160a060020a03161415806107885750600160a060020a03831615155b156107f2576000828152600160209081526040918290208054600160a060020a031916600160a060020a03878116918217909255835186815293519093918516927f8c5be1e5ebec7d5bd14f71427d1e84f3dd0314c0f7b2291e5b200ac8c7c3b925928290030190a35b505050565b60085490565b8061080833826114a1565b151561081357600080fd5b600160a060020a038416151561082857600080fd5b600160a060020a038316151561083d57600080fd5b6108478483611500565b61085184836115a1565b61085b83836116da565b82600160a060020a031684600160a060020a03167fddf252ad1be2c89b69c2b068fc378daa952ba7f163c4a11628f55a4df523b3ef846040518082815260200191505060405180910390a350505050565b60006108b783610f75565b82106108c257600080fd5b600160a060020a03831660009081526006602052604090208054839081106108e657fe5b9060005260206000200154905092915050565b600d54600160a060020a031681565b600b54600160a060020a0316331461091f57600080fd5b600b5474010000000000000000000000000000000000000000900460ff16151561094857600080fd5b600b805474ff0000000000000000000000000000000000000000191690556040517f7805862f689e2f13df9f062ff482ad3ad112aca9e0847911ed832e158c525b3390600090a1565b8061099c33826114a1565b15156109a757600080fd5b6109c384848460206040519081016040528060008152506112c6565b50505050565b60008133600160a060020a03166109ff600c838154811015156109e857fe5b906000526020600020906008020160070154611723565b600160a060020a03161480610a24575033610a1982610b5e565b600160a060020a0316145b1515610a2f57600080fd5b600c805484908110610a3d57fe5b906000526020600020906008020160020154915050919050565b600090815260208190526040902054600160a060020a0316151590565b6000610a7e6107f7565b8210610a8957600080fd5b6008805483908110610a9757fe5b90600052602060002001549050919050565b600c805482908110610ab757fe5b6000918252602090912060089091020180546001820154600283015460038401546004850154600586015460068701546007909701549597509395929460ff928316949193919092169188565b600b5474010000000000000000000000000000000000000000900460ff1681565b600b54600160a060020a03163314610b3c57600080fd5b600d8054600160a060020a031916600160a060020a0392909216919091179055565b600081815260208190526040812054600160a060020a0316801515610b8257600080fd5b92915050565b600080600080610b96611be6565b6040805160208082018b90528183018d905260608083018f9052835180840390910181526080909201928390528151600093918291908401908083835b60208310610bf25780518252601f199092019160209182019101610bd3565b51815160209384036101000a6000190180199092169116179052604080519290940182900382207f19457468657265756d205369676e6564204d6573736167653a0a33320000000083830152603c80840182905285518085039091018152605c909301948590528251909b509195509293508392850191508083835b60208310610c8d5780518252601f199092019160209182019101610c6e565b6001836020036101000a0380198251168184511680821785525050505050509050019150506040518091039020935073__ECTools_______________________________631052506f8589610ce18e611723565b60405160e060020a63ffffffff861602815260048101848152600160a060020a038316604483015260606024830190815284516064840152845191929091608490910190602086019080838360005b83811015610d48578181015183820152602001610d30565b50505050905090810190601f168015610d755780820380516001836020036101000a031916815260200191505b5094505050505060206040518083038186803b158015610d9457600080fd5b505af4158015610da8573d6000803e3d6000fd5b505050506040513d6020811015610dbe57600080fd5b50511515610dcb57600080fd5b428c11610dd757600080fd5b610de08a6117bb565b8b019250348314610df057600080fd5b60408051610100810182528e8152602081018590529081018a90526060810160008152602001428152602001896002811115610e2857fe5b81526000602080830182905260409283018e9052600c8054600181810180845592909452855160089091027fdf6966c971051c3d54ec59162606531493a51404a002842f56009d7e5cf4a8c78101918255928601517fdf6966c971051c3d54ec59162606531493a51404a002842f56009d7e5cf4a8c8840155938501517fdf6966c971051c3d54ec59162606531493a51404a002842f56009d7e5cf4a8c983015560608501517fdf6966c971051c3d54ec59162606531493a51404a002842f56009d7e5cf4a8ca909201805495975092949093879390929160ff191686836002811115610f1157fe5b02179055506080820151600482015560a082015160058201805460ff19166001836002811115610f3d57fe5b021790555060c0820151600682015560e090910151600790910155039050610f653382611821565b9c9b505050505050505050505050565b6000600160a060020a0382161515610f8c57600080fd5b50600160a060020a031660009081526002602052604090205490565b600b54600160a060020a03163314610fbf57600080fd5b600b54604051600160a060020a03909116907ff8df31144d9c2f0f6b59d69b8b98abd5459d07f2742c4df920b25aae33c6482090600090a2600b8054600160a060020a0319169055565b60008133600160a060020a0316611028600c838154811015156109e857fe5b600160a060020a0316148061104d57503361104282610b5e565b600160a060020a0316145b151561105857600080fd5b600c80548490811061106657fe5b906000526020600020906008020160000154915050919050565b600b54600160a060020a0316331461109757600080fd5b600b5474010000000000000000000000000000000000000000900460ff16156110bf57600080fd5b600b805474ff00000000000000000000000000000000000000001916740100000000000000000000000000000000000000001790556040517f6985a02210a168e66602d3235cb6db0e70f92b3ba4d376a33c0f3d9434bff62590600090a1565b600b54600160a060020a031681565b60058054604080516020601f60026000196101006001881615020190951694909404938401819004810282018101909252828152606093909290918301828280156106ec5780601f106106c1576101008083540402835291602001916106ec565b60008133600160a060020a03166111ae600c838154811015156109e857fe5b600160a060020a031614806111d35750336111c882610b5e565b600160a060020a0316145b15156111de57600080fd5b6001600c8054859081106111ee57fe5b600091825260209091206003600890920201015460ff16600281111561121057fe5b1461121a57600080fd5b600c80548490811061122857fe5b906000526020600020906008020160060154915050919050565b600160a060020a03821633141561125857600080fd5b336000818152600360209081526040808320600160a060020a03871680855290835292819020805460ff1916861515908117909155815190815290519293927f17307eab39ab6107e8899845ad3d59bd9653f200f220920489ca2b5937696c31929181900390910190a35050565b816112d133826114a1565b15156112dc57600080fd5b6112e78585856107fd565b6112f385858585611870565b15156112fe57600080fd5b5050505050565b606061131082610a57565b151561131b57600080fd5b6000828152600a602090815260409182902080548351601f6002600019610100600186161502019093169290920491820184900484028101840190945280845290918301828280156113ae5780601f10611383576101008083540402835291602001916113ae565b820191906000526020600020905b81548152906001019060200180831161139157829003601f168201915b50505050509050919050565b600160a060020a03918216600090815260036020908152604080832093909416825291909152205460ff1690565b600b54600160a060020a031633146113ff57600080fd5b611408816119e0565b50565b8133600160a060020a0316611428600c838154811015156109e857fe5b600160a060020a03161461143b57600080fd5b6001600c8481548110151561144c57fe5b60009182526020909120600360089092020101805460ff1916600183600281111561147357fe5b021790555081600c8481548110151561148857fe5b6000918252602090912060066008909202010155505050565b6000806114ad83610b5e565b905080600160a060020a031684600160a060020a031614806114e8575083600160a060020a03166114dd846106f7565b600160a060020a0316145b806114f857506114f881856113ba565b949350505050565b81600160a060020a031661151382610b5e565b600160a060020a03161461152657600080fd5b600081815260016020526040902054600160a060020a03161561159d5760008181526001602090815260408083208054600160a060020a031916905580518481529051600160a060020a038616927f8c5be1e5ebec7d5bd14f71427d1e84f3dd0314c0f7b2291e5b200ac8c7c3b925928290030190a35b5050565b60008060006115b08585611a51565b600084815260076020908152604080832054600160a060020a03891684526006909252909120549093506115eb90600163ffffffff611ad916565b600160a060020a03861660009081526006602052604090208054919350908390811061161357fe5b90600052602060002001549050806006600087600160a060020a0316600160a060020a031681526020019081526020016000208481548110151561165357fe5b6000918252602080832090910192909255600160a060020a038716815260069091526040812080548490811061168557fe5b6000918252602080832090910192909255600160a060020a03871681526006909152604090208054906116bc906000198301611c2b565b50600093845260076020526040808520859055908452909220555050565b60006116e68383611aeb565b50600160a060020a039091166000908152600660209081526040808320805460018101825590845282842081018590559383526007909152902055565b600d54604080517f6352211e000000000000000000000000000000000000000000000000000000008152600481018490529051600092600160a060020a031691636352211e91602480830192602092919082900301818787803b15801561178957600080fd5b505af115801561179d573d6000803e3d6000fd5b505050506040513d60208110156117b357600080fd5b505192915050565b600d54604080517f31952080000000000000000000000000000000000000000000000000000000008152600481018490529051600092600160a060020a031691633195208091602480830192602092919082900301818787803b15801561178957600080fd5b61182b8282611b6d565b600880546000838152600960205260408120829055600182018355919091527ff3f7a9fe364faab93b216da50a3214154f22a0a2b415b23a84c8169e8b636ee3015550565b60008061188585600160a060020a0316611bd1565b151561189457600191506119d7565b84600160a060020a031663f0b9e5ba8786866040518463ffffffff1660e060020a0281526004018084600160a060020a0316600160a060020a0316815260200183815260200180602001828103825283818151815260200191508051906020019080838360005b838110156119135781810151838201526020016118fb565b50505050905090810190601f1680156119405780820380516001836020036101000a031916815260200191505b50945050505050602060405180830381600087803b15801561196157600080fd5b505af1158015611975573d6000803e3d6000fd5b505050506040513d602081101561198b57600080fd5b50517fffffffff0000000000000000000000000000000000000000000000000000000081167ff0b9e5ba0000000000000000000000000000000000000000000000000000000014925090505b50949350505050565b600160a060020a03811615156119f557600080fd5b600b54604051600160a060020a038084169216907f8be0079c531659141344cd1fd0a4f28419497f9722a3daafe3b4186f6b6457e090600090a3600b8054600160a060020a031916600160a060020a0392909216919091179055565b81600160a060020a0316611a6482610b5e565b600160a060020a031614611a7757600080fd5b600160a060020a038216600090815260026020526040902054611aa190600163ffffffff611ad916565b600160a060020a0390921660009081526002602090815260408083209490945591815290819052208054600160a060020a0319169055565b600082821115611ae557fe5b50900390565b600081815260208190526040902054600160a060020a031615611b0d57600080fd5b6000818152602081815260408083208054600160a060020a031916600160a060020a03871690811790915583526002909152902054611b4d906001611bd9565b600160a060020a0390921660009081526002602052604090209190915550565b600160a060020a0382161515611b8257600080fd5b611b8c82826116da565b604080518281529051600160a060020a038416916000917fddf252ad1be2c89b69c2b068fc378daa952ba7f163c4a11628f55a4df523b3ef9181900360200190a35050565b6000903b1190565b81810182811015610b8257fe5b604080516101008101825260008082526020820181905291810182905260608101829052608081018290529060a0820190815260006020820181905260409091015290565b8154818355818111156107f2576000838152602090206107f29181019083016106f491905b80821115611c645760008155600101611c50565b50905600a165627a7a723058202db478938d05e88a2440916d72d8e5a651b33142b2e8834cf325b131a1e7eaaa0029",
  "source": "pragma solidity ^0.4.24;\n\nimport {ERC721Token} from \"zeppelin-solidity/contracts/token/ERC721/ERC721Token.sol\";\nimport {Pausable} from \"zeppelin-solidity/contracts/lifecycle/Pausable.sol\";\nimport {Retailers} from \"./Retailers.sol\";\nimport {ECTools} from \"./ECTools.sol\";\n\n/**\n * Manage the creation and storage of tickets.\n */\ncontract TicketWallet is ERC721Token(\"Ticket wallet\", \"PLNR-WALLET\"), Pausable {\n\n  /**\n   * Ticket lifecycle\n   */\n  enum TicketState {Paid, Fulfilled, Cancelled}\n\n  /**\n   * Methods of ticket fulfilment\n   */\n  enum FulfilmentMethod {eTicket, SelfPrint, ToD}\n\n  /**\n   * Ensure the given message sender is the owner or retailer of the token\n   */\n  modifier onlyRetailerOrOwnerOf(uint256 _ticketId) {\n    require(getAddressByRetailerId(tickets[_ticketId].retailerId) == msg.sender || ownerOf(_ticketId) == msg.sender);\n    _;\n  }\n\n  /**\n   * Ensure the given message sender is the retailer of the token\n   */\n  modifier onlyRetailerOf(uint256 _ticketId) {\n    require(getAddressByRetailerId(tickets[_ticketId].retailerId) == msg.sender);\n    _;\n  }\n\n  /**\n   * Ticket information\n   */\n  struct Ticket {\n    bytes32 description;\n    uint price;\n    bytes32 payloadUrl;\n    TicketState state;\n    uint created;\n    FulfilmentMethod fulfilmentMethod;\n    bytes32 fulfilmentUrl;\n    uint retailerId;\n  }\n\n  /**\n   * Ticket storage\n   */\n  Ticket[] public tickets;\n\n  /**\n   * Retailers contract address\n   */\n  address public retailers;\n\n  /**\n   * Store a reference to the ERC-721 index of authorised retailers\n   */\n  constructor(address _retailers) public {\n    retailers = _retailers;\n  }\n\n  /**\n   * Add a ticket to the contract. \n   *\n   * This function will ensure the price, expiry time and payload were created by an authorised retailer, create the\n   * ticket and store it in the contract storage.\n   */\n  function createTicket(\n    bytes32 _description,\n    uint _expiry,\n    uint _price,\n    uint _retailerId,\n    bytes32 _payloadUrl,\n    FulfilmentMethod _fulfilmentMethod,\n    string _signature\n  ) \n    public \n    payable \n    returns (uint) \n  {\n    bytes32 _expectedHash = keccak256(abi.encodePacked(_payloadUrl, _price, _expiry));\n    bytes32 _expectedSignature = keccak256(abi.encodePacked(\"\\x19Ethereum Signed Message:\\n32\", _expectedHash));\n\n    require(\n      ECTools.isSignedBy(\n        _expectedSignature,\n        _signature, \n        getAddressByRetailerId(_retailerId)\n      )\n    );\n\n    // solium-disable-next-line security/no-block-members\n    require(_expiry > now);\n    uint fullPrice = _price + getTxFeeAmountByRetailerId(_retailerId);\n    require(msg.value == fullPrice);\n\n    // solium-disable security/no-block-members\n    Ticket memory _ticket = Ticket({\n      description: _description,\n      price: fullPrice,\n      payloadUrl: _payloadUrl,\n      state: TicketState.Paid,\n      fulfilmentMethod: _fulfilmentMethod,\n      fulfilmentUrl: 0,\n      created: now,\n      retailerId: _retailerId\n    });\n\n    uint256 ticketId = tickets.push(_ticket) - 1;\n\n    _mint(msg.sender, ticketId);\n\n    return ticketId;\n  }\n\n  /**\n   * Fulfil the ticket and attach the fulfilment URL\n   */\n  function fulfilTicket(uint256 _ticketId, bytes32 _fulfilmentUrl) public onlyRetailerOf(_ticketId) {\n    tickets[_ticketId].state = TicketState.Fulfilled;\n    tickets[_ticketId].fulfilmentUrl = _fulfilmentUrl;\n  }\n\n  /**\n   * Get Retailer's address by retailerId\n   */\n  function getAddressByRetailerId(uint _retailerId) private view returns (address) {\n    return Retailers(retailers).ownerOf(_retailerId);\n  }\n\n  /**\n   * Get Retailer's transaction fee amount by retailerId\n   */\n  function getTxFeeAmountByRetailerId(uint _retailerId) private view returns (uint) {\n    return Retailers(retailers).txFeeAmountById(_retailerId);\n  }\n\n  /**\n   * Set new address of Retailers contract\n   */\n  function setRetailerAddress(address _newRetailers) public onlyOwner {\n    retailers = _newRetailers;\n  }\n\n  /**\n   * Return the description of the ticket \n   */\n  function getTicketDescriptionById(uint256 _ticketId) public onlyRetailerOrOwnerOf(_ticketId) view returns (bytes32) {\n    return tickets[_ticketId].description;\n  }\n\n  /**\n   * Return the URL of the full ticket details\n   */\n  function getTicketPayloadUrlById(uint256 _ticketId) public onlyRetailerOrOwnerOf(_ticketId) view returns (bytes32) {\n    return tickets[_ticketId].payloadUrl;\n  }\n  \n  /**\n   * Return the URL containing the fulfilment information\n   */\n  function getFulfilmentUrlById(uint256 _ticketId) public onlyRetailerOrOwnerOf(_ticketId) view returns (bytes32) {\n    require(tickets[_ticketId].state == TicketState.Fulfilled);\n\n    return tickets[_ticketId].fulfilmentUrl;\n  }\n\n}\n",
  "sourcePath": "/Users/marek/Documents/blockchain/planar/wallet/contracts/TicketWallet.sol",
  "compiler": {
    "name": "solc",
    "version": "0.4.24+commit.e67f0147.Emscripten.clang"
  },
  "schemaVersion": "2.0.1",
  "updatedAt": "2018-06-30T21:43:40.034Z"
}