{
  "contractName": "Vault",
  "abi": [
    {
      "constant": false,
      "inputs": [],
      "name": "unpause",
      "outputs": [],
      "payable": false,
      "stateMutability": "nonpayable",
      "type": "function"
    },
    {
      "constant": true,
      "inputs": [],
      "name": "paused",
      "outputs": [
        {
          "name": "",
          "type": "bool"
        }
      ],
      "payable": false,
      "stateMutability": "view",
      "type": "function"
    },
    {
      "constant": false,
      "inputs": [],
      "name": "pause",
      "outputs": [],
      "payable": false,
      "stateMutability": "nonpayable",
      "type": "function"
    },
    {
      "constant": true,
      "inputs": [],
      "name": "owner",
      "outputs": [
        {
          "name": "",
          "type": "address"
        }
      ],
      "payable": false,
      "stateMutability": "view",
      "type": "function"
    },
    {
      "constant": false,
      "inputs": [
        {
          "name": "newOwner",
          "type": "address"
        }
      ],
      "name": "transferOwnership",
      "outputs": [],
      "payable": false,
      "stateMutability": "nonpayable",
      "type": "function"
    },
    {
      "anonymous": false,
      "inputs": [],
      "name": "Pause",
      "type": "event"
    },
    {
      "anonymous": false,
      "inputs": [],
      "name": "Unpause",
      "type": "event"
    },
    {
      "anonymous": false,
      "inputs": [
        {
          "indexed": true,
          "name": "previousOwner",
          "type": "address"
        },
        {
          "indexed": true,
          "name": "newOwner",
          "type": "address"
        }
      ],
      "name": "OwnershipTransferred",
      "type": "event"
    },
    {
      "constant": false,
      "inputs": [
        {
          "name": "amount",
          "type": "uint256"
        }
      ],
      "name": "gbpInEth",
      "outputs": [
        {
          "name": "",
          "type": "uint256"
        }
      ],
      "payable": false,
      "stateMutability": "nonpayable",
      "type": "function"
    },
    {
      "constant": false,
      "inputs": [
        {
          "name": "amount",
          "type": "uint256"
        }
      ],
      "name": "usdInEth",
      "outputs": [
        {
          "name": "",
          "type": "uint256"
        }
      ],
      "payable": false,
      "stateMutability": "nonpayable",
      "type": "function"
    }
  ],
  "bytecode": "0x606060405260008054600160a060020a033316600160a860020a031990911617905561033b806100306000396000f3006060604052600436106100825763ffffffff7c0100000000000000000000000000000000000000000000000000000000600035041663397fa2f081146100875780633f4ba83a146100af5780635c975abb146100c45780638456cb59146100eb5780638da5cb5b146100fe578063e2fd016314610087578063f2fde38b1461012d575b600080fd5b341561009257600080fd5b61009d60043561014c565b60405190815260200160405180910390f35b34156100ba57600080fd5b6100c2610152565b005b34156100cf57600080fd5b6100d76101d1565b604051901515815260200160405180910390f35b34156100f657600080fd5b6100c26101e1565b341561010957600080fd5b610111610265565b604051600160a060020a03909116815260200160405180910390f35b341561013857600080fd5b6100c2600160a060020a0360043516610274565b50600090565b60005433600160a060020a0390811691161461016d57600080fd5b60005460a060020a900460ff16151561018557600080fd5b6000805474ff0000000000000000000000000000000000000000191690557f7805862f689e2f13df9f062ff482ad3ad112aca9e0847911ed832e158c525b3360405160405180910390a1565b60005460a060020a900460ff1681565b60005433600160a060020a039081169116146101fc57600080fd5b60005460a060020a900460ff161561021357600080fd5b6000805474ff0000000000000000000000000000000000000000191660a060020a1790557f6985a02210a168e66602d3235cb6db0e70f92b3ba4d376a33c0f3d9434bff62560405160405180910390a1565b600054600160a060020a031681565b60005433600160a060020a0390811691161461028f57600080fd5b600160a060020a03811615156102a457600080fd5b600054600160a060020a0380831691167f8be0079c531659141344cd1fd0a4f28419497f9722a3daafe3b4186f6b6457e060405160405180910390a36000805473ffffffffffffffffffffffffffffffffffffffff1916600160a060020a03929092169190911790555600a165627a7a72305820fba5df2da8ea5699f84940d20347dd3b7a33ce4c81293e7db247c942d5eb130f0029",
  "source": "pragma solidity 0.4.19;\n\nimport {Pausable} from \"zeppelin-solidity/contracts/lifecycle/Pausable.sol\";\n// import {ExchangeRateGBP, ExchangeRateETH} from \"./ExchageRates.sol\";\n\n\ncontract Vault is Pausable {\n  function gbpInEth(uint amount) public returns(uint) {\n    //return ExchangeRateETH.ETHXBT * ExchangeRateGBP.GBPUSD * amount;\n    return 0;\n  }\n\n  function usdInEth(uint amount) public returns(uint) {\n    // return ExchangeRateETH.ETHXBT * amount;\n    return 0;\n  }\n\n}",
  "sourcePath": "/Users/marek/Documents/blockchain/planar/wallet/contracts/Vault.sol",
  "compiler": {
    "name": "solc",
    "version": "0.4.19+commit.c4cbbb05.Emscripten.clang"
  },
  "schemaVersion": "1.0.1",
  "updatedAt": "2018-03-15T16:40:43.912Z"
}