{
  "contractName": "Retailers",
  "abi": [
    {
      "constant": true,
      "inputs": [],
      "name": "name",
      "outputs": [
        {
          "name": "",
          "type": "string"
        }
      ],
      "payable": false,
      "stateMutability": "view",
      "type": "function"
    },
    {
      "constant": true,
      "inputs": [
        {
          "name": "_tokenId",
          "type": "uint256"
        }
      ],
      "name": "getApproved",
      "outputs": [
        {
          "name": "",
          "type": "address"
        }
      ],
      "payable": false,
      "stateMutability": "view",
      "type": "function"
    },
    {
      "constant": false,
      "inputs": [
        {
          "name": "_to",
          "type": "address"
        },
        {
          "name": "_tokenId",
          "type": "uint256"
        }
      ],
      "name": "approve",
      "outputs": [],
      "payable": false,
      "stateMutability": "nonpayable",
      "type": "function"
    },
    {
      "constant": true,
      "inputs": [],
      "name": "totalSupply",
      "outputs": [
        {
          "name": "",
          "type": "uint256"
        }
      ],
      "payable": false,
      "stateMutability": "view",
      "type": "function"
    },
    {
      "constant": false,
      "inputs": [
        {
          "name": "_from",
          "type": "address"
        },
        {
          "name": "_to",
          "type": "address"
        },
        {
          "name": "_tokenId",
          "type": "uint256"
        }
      ],
      "name": "transferFrom",
      "outputs": [],
      "payable": false,
      "stateMutability": "nonpayable",
      "type": "function"
    },
    {
      "constant": true,
      "inputs": [
        {
          "name": "_owner",
          "type": "address"
        },
        {
          "name": "_index",
          "type": "uint256"
        }
      ],
      "name": "tokenOfOwnerByIndex",
      "outputs": [
        {
          "name": "",
          "type": "uint256"
        }
      ],
      "payable": false,
      "stateMutability": "view",
      "type": "function"
    },
    {
      "constant": false,
      "inputs": [],
      "name": "unpause",
      "outputs": [],
      "payable": false,
      "stateMutability": "nonpayable",
      "type": "function"
    },
    {
      "constant": false,
      "inputs": [
        {
          "name": "_from",
          "type": "address"
        },
        {
          "name": "_to",
          "type": "address"
        },
        {
          "name": "_tokenId",
          "type": "uint256"
        }
      ],
      "name": "safeTransferFrom",
      "outputs": [],
      "payable": false,
      "stateMutability": "nonpayable",
      "type": "function"
    },
    {
      "constant": true,
      "inputs": [
        {
          "name": "_tokenId",
          "type": "uint256"
        }
      ],
      "name": "exists",
      "outputs": [
        {
          "name": "",
          "type": "bool"
        }
      ],
      "payable": false,
      "stateMutability": "view",
      "type": "function"
    },
    {
      "constant": true,
      "inputs": [
        {
          "name": "_index",
          "type": "uint256"
        }
      ],
      "name": "tokenByIndex",
      "outputs": [
        {
          "name": "",
          "type": "uint256"
        }
      ],
      "payable": false,
      "stateMutability": "view",
      "type": "function"
    },
    {
      "constant": true,
      "inputs": [],
      "name": "paused",
      "outputs": [
        {
          "name": "",
          "type": "bool"
        }
      ],
      "payable": false,
      "stateMutability": "view",
      "type": "function"
    },
    {
      "constant": true,
      "inputs": [
        {
          "name": "_tokenId",
          "type": "uint256"
        }
      ],
      "name": "ownerOf",
      "outputs": [
        {
          "name": "",
          "type": "address"
        }
      ],
      "payable": false,
      "stateMutability": "view",
      "type": "function"
    },
    {
      "constant": true,
      "inputs": [
        {
          "name": "_owner",
          "type": "address"
        }
      ],
      "name": "balanceOf",
      "outputs": [
        {
          "name": "",
          "type": "uint256"
        }
      ],
      "payable": false,
      "stateMutability": "view",
      "type": "function"
    },
    {
      "constant": false,
      "inputs": [],
      "name": "renounceOwnership",
      "outputs": [],
      "payable": false,
      "stateMutability": "nonpayable",
      "type": "function"
    },
    {
      "constant": false,
      "inputs": [],
      "name": "pause",
      "outputs": [],
      "payable": false,
      "stateMutability": "nonpayable",
      "type": "function"
    },
    {
      "constant": true,
      "inputs": [
        {
          "name": "",
          "type": "uint256"
        }
      ],
      "name": "retailers",
      "outputs": [
        {
          "name": "name",
          "type": "bytes32"
        },
        {
          "name": "txFeeAmount",
          "type": "uint256"
        }
      ],
      "payable": false,
      "stateMutability": "view",
      "type": "function"
    },
    {
      "constant": true,
      "inputs": [],
      "name": "owner",
      "outputs": [
        {
          "name": "",
          "type": "address"
        }
      ],
      "payable": false,
      "stateMutability": "view",
      "type": "function"
    },
    {
      "constant": true,
      "inputs": [],
      "name": "symbol",
      "outputs": [
        {
          "name": "",
          "type": "string"
        }
      ],
      "payable": false,
      "stateMutability": "view",
      "type": "function"
    },
    {
      "constant": false,
      "inputs": [
        {
          "name": "_to",
          "type": "address"
        },
        {
          "name": "_approved",
          "type": "bool"
        }
      ],
      "name": "setApprovalForAll",
      "outputs": [],
      "payable": false,
      "stateMutability": "nonpayable",
      "type": "function"
    },
    {
      "constant": false,
      "inputs": [
        {
          "name": "_from",
          "type": "address"
        },
        {
          "name": "_to",
          "type": "address"
        },
        {
          "name": "_tokenId",
          "type": "uint256"
        },
        {
          "name": "_data",
          "type": "bytes"
        }
      ],
      "name": "safeTransferFrom",
      "outputs": [],
      "payable": false,
      "stateMutability": "nonpayable",
      "type": "function"
    },
    {
      "constant": true,
      "inputs": [
        {
          "name": "_tokenId",
          "type": "uint256"
        }
      ],
      "name": "tokenURI",
      "outputs": [
        {
          "name": "",
          "type": "string"
        }
      ],
      "payable": false,
      "stateMutability": "view",
      "type": "function"
    },
    {
      "constant": true,
      "inputs": [
        {
          "name": "_owner",
          "type": "address"
        },
        {
          "name": "_operator",
          "type": "address"
        }
      ],
      "name": "isApprovedForAll",
      "outputs": [
        {
          "name": "",
          "type": "bool"
        }
      ],
      "payable": false,
      "stateMutability": "view",
      "type": "function"
    },
    {
      "constant": false,
      "inputs": [
        {
          "name": "_newOwner",
          "type": "address"
        }
      ],
      "name": "transferOwnership",
      "outputs": [],
      "payable": false,
      "stateMutability": "nonpayable",
      "type": "function"
    },
    {
      "anonymous": false,
      "inputs": [],
      "name": "Pause",
      "type": "event"
    },
    {
      "anonymous": false,
      "inputs": [],
      "name": "Unpause",
      "type": "event"
    },
    {
      "anonymous": false,
      "inputs": [
        {
          "indexed": true,
          "name": "previousOwner",
          "type": "address"
        }
      ],
      "name": "OwnershipRenounced",
      "type": "event"
    },
    {
      "anonymous": false,
      "inputs": [
        {
          "indexed": true,
          "name": "previousOwner",
          "type": "address"
        },
        {
          "indexed": true,
          "name": "newOwner",
          "type": "address"
        }
      ],
      "name": "OwnershipTransferred",
      "type": "event"
    },
    {
      "anonymous": false,
      "inputs": [
        {
          "indexed": true,
          "name": "_from",
          "type": "address"
        },
        {
          "indexed": true,
          "name": "_to",
          "type": "address"
        },
        {
          "indexed": false,
          "name": "_tokenId",
          "type": "uint256"
        }
      ],
      "name": "Transfer",
      "type": "event"
    },
    {
      "anonymous": false,
      "inputs": [
        {
          "indexed": true,
          "name": "_owner",
          "type": "address"
        },
        {
          "indexed": true,
          "name": "_approved",
          "type": "address"
        },
        {
          "indexed": false,
          "name": "_tokenId",
          "type": "uint256"
        }
      ],
      "name": "Approval",
      "type": "event"
    },
    {
      "anonymous": false,
      "inputs": [
        {
          "indexed": true,
          "name": "_owner",
          "type": "address"
        },
        {
          "indexed": true,
          "name": "_operator",
          "type": "address"
        },
        {
          "indexed": false,
          "name": "_approved",
          "type": "bool"
        }
      ],
      "name": "ApprovalForAll",
      "type": "event"
    },
    {
      "constant": false,
      "inputs": [
        {
          "name": "_address",
          "type": "address"
        },
        {
          "name": "_name",
          "type": "bytes32"
        },
        {
          "name": "_txFeeAmount",
          "type": "uint256"
        }
      ],
      "name": "addRetailer",
      "outputs": [
        {
          "name": "retailerId",
          "type": "uint256"
        }
      ],
      "payable": false,
      "stateMutability": "nonpayable",
      "type": "function"
    },
    {
      "constant": true,
      "inputs": [
        {
          "name": "_retailerId",
          "type": "uint256"
        }
      ],
      "name": "nameById",
      "outputs": [
        {
          "name": "",
          "type": "bytes32"
        }
      ],
      "payable": false,
      "stateMutability": "view",
      "type": "function"
    },
    {
      "constant": false,
      "inputs": [
        {
          "name": "_retailerId",
          "type": "uint256"
        },
        {
          "name": "_name",
          "type": "bytes32"
        }
      ],
      "name": "setNameById",
      "outputs": [],
      "payable": false,
      "stateMutability": "nonpayable",
      "type": "function"
    },
    {
      "constant": true,
      "inputs": [
        {
          "name": "_retailerId",
          "type": "uint256"
        }
      ],
      "name": "txFeeAmountById",
      "outputs": [
        {
          "name": "",
          "type": "uint256"
        }
      ],
      "payable": false,
      "stateMutability": "view",
      "type": "function"
    },
    {
      "constant": false,
      "inputs": [
        {
          "name": "_retailerId",
          "type": "uint256"
        },
        {
          "name": "_txFeeAmount",
          "type": "uint256"
        }
      ],
      "name": "setTxFeeAmountById",
      "outputs": [],
      "payable": false,
      "stateMutability": "nonpayable",
      "type": "function"
    }
  ],
  "bytecode": "0x600b805460a060020a60ff0219169055601060808181527f5469636b65742072657461696c6572730000000000000000000000000000000060a0908152610100604052600d60c09081527f504c4e522d52455441494c45520000000000000000000000000000000000000060e05291926200007d91600491620000ae565b50805162000093906005906020840190620000ae565b5050600b8054600160a060020a031916331790555062000153565b828054600181600116156101000203166002900490600052602060002090601f016020900481019282601f10620000f157805160ff191683800117855562000121565b8280016001018555821562000121579182015b828111156200012157825182559160200191906001019062000104565b506200012f92915062000133565b5090565b6200015091905b808211156200012f57600081556001016200013a565b90565b6116a680620001636000396000f3006080604052600436106101695763ffffffff7c010000000000000000000000000000000000000000000000000000000060003504166306fdde03811461016e578063081812fc146101f8578063095ea7b31461022c5780630e0a563b1461025257806318160ddd1461028b5780631ab97c63146102a057806323b872dd146102b85780632f745c59146102e257806331952080146103065780633f4ba83a1461031e578063403b059d1461033357806342842e0e1461034e5780634f558e79146103785780634f6ccce7146103a45780635c975abb146103bc5780636352211e146103d157806370a08231146103e9578063715018a61461040a5780638456cb591461041f578063897ec7df146104345780638da5cb5b1461046557806395d89b411461047a578063a22cb4651461048f578063b50efe06146104b5578063b88d4fde146104d0578063c87b56dd1461053f578063e985e9c514610557578063f2fde38b1461057e575b600080fd5b34801561017a57600080fd5b5061018361059f565b6040805160208082528351818301528351919283929083019185019080838360005b838110156101bd5781810151838201526020016101a5565b50505050905090810190601f1680156101ea5780820380516001836020036101000a031916815260200191505b509250505060405180910390f35b34801561020457600080fd5b50610210600435610636565b60408051600160a060020a039092168252519081900360200190f35b34801561023857600080fd5b50610250600160a060020a0360043516602435610651565b005b34801561025e57600080fd5b50610279600160a060020a0360043516602435604435610743565b60408051918252519081900360200190f35b34801561029757600080fd5b506102796108ad565b3480156102ac57600080fd5b506102796004356108b3565b3480156102c457600080fd5b50610250600160a060020a03600435811690602435166044356108dd565b3480156102ee57600080fd5b50610279600160a060020a036004351660243561098c565b34801561031257600080fd5b506102796004356109d9565b34801561032a57600080fd5b50610250610a03565b34801561033f57600080fd5b50610250600435602435610a8c565b34801561035a57600080fd5b50610250600160a060020a0360043581169060243516604435610ad4565b34801561038457600080fd5b50610390600435610b0c565b604080519115158252519081900360200190f35b3480156103b057600080fd5b50610279600435610b29565b3480156103c857600080fd5b50610390610b5e565b3480156103dd57600080fd5b50610210600435610b7f565b3480156103f557600080fd5b50610279600160a060020a0360043516610ba9565b34801561041657600080fd5b50610250610bdc565b34801561042b57600080fd5b50610250610c4a565b34801561044057600080fd5b5061044c600435610ce9565b6040805192835260208301919091528051918290030190f35b34801561047157600080fd5b50610210610d15565b34801561048657600080fd5b50610183610d24565b34801561049b57600080fd5b50610250600160a060020a03600435166024351515610d85565b3480156104c157600080fd5b50610250600435602435610e09565b3480156104dc57600080fd5b50604080516020601f60643560048181013592830184900484028501840190955281845261025094600160a060020a038135811695602480359092169560443595369560849401918190840183828082843750949750610e4d9650505050505050565b34801561054b57600080fd5b50610183600435610e8c565b34801561056357600080fd5b50610390600160a060020a0360043581169060243516610f41565b34801561058a57600080fd5b50610250600160a060020a0360043516610f6f565b60048054604080516020601f600260001961010060018816150201909516949094049384018190048102820181019092528281526060939092909183018282801561062b5780601f106106005761010080835404028352916020019161062b565b820191906000526020600020905b81548152906001019060200180831161060e57829003601f168201915b505050505090505b90565b600090815260016020526040902054600160a060020a031690565b600061065c82610b7f565b9050600160a060020a03838116908216141561067757600080fd5b33600160a060020a038216148061069357506106938133610f41565b151561069e57600080fd5b60006106a983610636565b600160a060020a03161415806106c75750600160a060020a03831615155b1561073e57600082815260016020908152604091829020805473ffffffffffffffffffffffffffffffffffffffff1916600160a060020a03878116918217909255835186815293519093918516927f8c5be1e5ebec7d5bd14f71427d1e84f3dd0314c0f7b2291e5b200ac8c7c3b925928290030190a35b505050565b600061074d611626565b600b54600090600160a060020a0316331461076757600080fd5b7fff000000000000000000000000000000000000000000000000000000000000007f0100000000000000000000000000000000000000000000000000000000000000600087901a0216151561081d57604080517f08c379a000000000000000000000000000000000000000000000000000000000815260206004820181905260248201527f4e616d65206d757374206e6f7420626520616e20656d70747920737472696e67604482015290519081900360640190fd5b50506040805180820190915283815260208101838152600c80546001810182556000919091528251600282027fdf6966c971051c3d54ec59162606531493a51404a002842f56009d7e5cf4a8c781019190915591517fdf6966c971051c3d54ec59162606531493a51404a002842f56009d7e5cf4a8c8909201919091556108a48682610f92565b95945050505050565b60085490565b6000600c828154811015156108c457fe5b9060005260206000209060020201600001549050919050565b806108e83382610fe1565b15156108f357600080fd5b600160a060020a038416151561090857600080fd5b600160a060020a038316151561091d57600080fd5b6109278483611040565b61093184836110ee565b61093b8383611227565b82600160a060020a031684600160a060020a03167fddf252ad1be2c89b69c2b068fc378daa952ba7f163c4a11628f55a4df523b3ef846040518082815260200191505060405180910390a350505050565b600061099783610ba9565b82106109a257600080fd5b600160a060020a03831660009081526006602052604090208054839081106109c657fe5b9060005260206000200154905092915050565b6000600c828154811015156109ea57fe5b9060005260206000209060020201600101549050919050565b600b54600160a060020a03163314610a1a57600080fd5b600b5474010000000000000000000000000000000000000000900460ff161515610a4357600080fd5b600b805474ff0000000000000000000000000000000000000000191690556040517f7805862f689e2f13df9f062ff482ad3ad112aca9e0847911ed832e158c525b3390600090a1565b8133610a9782610b7f565b600160a060020a031614610aaa57600080fd5b81600c84815481101515610aba57fe5b906000526020600020906002020160010181905550505050565b80610adf3382610fe1565b1515610aea57600080fd5b610b068484846020604051908101604052806000815250610e4d565b50505050565b600090815260208190526040902054600160a060020a0316151590565b6000610b336108ad565b8210610b3e57600080fd5b6008805483908110610b4c57fe5b90600052602060002001549050919050565b600b5474010000000000000000000000000000000000000000900460ff1681565b600081815260208190526040812054600160a060020a0316801515610ba357600080fd5b92915050565b6000600160a060020a0382161515610bc057600080fd5b50600160a060020a031660009081526002602052604090205490565b600b54600160a060020a03163314610bf357600080fd5b600b54604051600160a060020a03909116907ff8df31144d9c2f0f6b59d69b8b98abd5459d07f2742c4df920b25aae33c6482090600090a2600b805473ffffffffffffffffffffffffffffffffffffffff19169055565b600b54600160a060020a03163314610c6157600080fd5b600b5474010000000000000000000000000000000000000000900460ff1615610c8957600080fd5b600b805474ff00000000000000000000000000000000000000001916740100000000000000000000000000000000000000001790556040517f6985a02210a168e66602d3235cb6db0e70f92b3ba4d376a33c0f3d9434bff62590600090a1565b600c805482908110610cf757fe5b60009182526020909120600290910201805460019091015490915082565b600b54600160a060020a031681565b60058054604080516020601f600260001961010060018816150201909516949094049384018190048102820181019092528281526060939092909183018282801561062b5780601f106106005761010080835404028352916020019161062b565b600160a060020a038216331415610d9b57600080fd5b336000818152600360209081526040808320600160a060020a03871680855290835292819020805460ff1916861515908117909155815190815290519293927f17307eab39ab6107e8899845ad3d59bd9653f200f220920489ca2b5937696c31929181900390910190a35050565b8133610e1482610b7f565b600160a060020a031614610e2757600080fd5b81600c84815481101515610e3757fe5b6000918252602090912060029091020155505050565b81610e583382610fe1565b1515610e6357600080fd5b610e6e8585856108dd565b610e7a85858585611270565b1515610e8557600080fd5b5050505050565b6060610e9782610b0c565b1515610ea257600080fd5b6000828152600a602090815260409182902080548351601f600260001961010060018616150201909316929092049182018490048402810184019094528084529091830182828015610f355780601f10610f0a57610100808354040283529160200191610f35565b820191906000526020600020905b815481529060010190602001808311610f1857829003601f168201915b50505050509050919050565b600160a060020a03918216600090815260036020908152604080832093909416825291909152205460ff1690565b600b54600160a060020a03163314610f8657600080fd5b610f8f816113f9565b50565b610f9c8282611477565b600880546000838152600960205260408120829055600182018355919091527ff3f7a9fe364faab93b216da50a3214154f22a0a2b415b23a84c8169e8b636ee3015550565b600080610fed83610b7f565b905080600160a060020a031684600160a060020a03161480611028575083600160a060020a031661101d84610636565b600160a060020a0316145b8061103857506110388185610f41565b949350505050565b81600160a060020a031661105382610b7f565b600160a060020a03161461106657600080fd5b600081815260016020526040902054600160a060020a0316156110ea576000818152600160209081526040808320805473ffffffffffffffffffffffffffffffffffffffff1916905580518481529051600160a060020a038616927f8c5be1e5ebec7d5bd14f71427d1e84f3dd0314c0f7b2291e5b200ac8c7c3b925928290030190a35b5050565b60008060006110fd85856114db565b600084815260076020908152604080832054600160a060020a038916845260069092529091205490935061113890600163ffffffff61157016565b600160a060020a03861660009081526006602052604090208054919350908390811061116057fe5b90600052602060002001549050806006600087600160a060020a0316600160a060020a03168152602001908152602001600020848154811015156111a057fe5b6000918252602080832090910192909255600160a060020a03871681526006909152604081208054849081106111d257fe5b6000918252602080832090910192909255600160a060020a038716815260069091526040902080549061120990600019830161163d565b50600093845260076020526040808520859055908452909220555050565b60006112338383611582565b50600160a060020a039091166000908152600660209081526040808320805460018101825590845282842081018590559383526007909152902055565b60008061128585600160a060020a0316611611565b151561129457600191506113f0565b84600160a060020a031663f0b9e5ba8786866040518463ffffffff167c01000000000000000000000000000000000000000000000000000000000281526004018084600160a060020a0316600160a060020a0316815260200183815260200180602001828103825283818151815260200191508051906020019080838360005b8381101561132c578181015183820152602001611314565b50505050905090810190601f1680156113595780820380516001836020036101000a031916815260200191505b50945050505050602060405180830381600087803b15801561137a57600080fd5b505af115801561138e573d6000803e3d6000fd5b505050506040513d60208110156113a457600080fd5b50517fffffffff0000000000000000000000000000000000000000000000000000000081167ff0b9e5ba0000000000000000000000000000000000000000000000000000000014925090505b50949350505050565b600160a060020a038116151561140e57600080fd5b600b54604051600160a060020a038084169216907f8be0079c531659141344cd1fd0a4f28419497f9722a3daafe3b4186f6b6457e090600090a3600b805473ffffffffffffffffffffffffffffffffffffffff1916600160a060020a0392909216919091179055565b600160a060020a038216151561148c57600080fd5b6114968282611227565b604080518281529051600160a060020a038416916000917fddf252ad1be2c89b69c2b068fc378daa952ba7f163c4a11628f55a4df523b3ef9181900360200190a35050565b81600160a060020a03166114ee82610b7f565b600160a060020a03161461150157600080fd5b600160a060020a03821660009081526002602052604090205461152b90600163ffffffff61157016565b600160a060020a039092166000908152600260209081526040808320949094559181529081905220805473ffffffffffffffffffffffffffffffffffffffff19169055565b60008282111561157c57fe5b50900390565b600081815260208190526040902054600160a060020a0316156115a457600080fd5b600081815260208181526040808320805473ffffffffffffffffffffffffffffffffffffffff1916600160a060020a038716908117909155835260029091529020546115f1906001611619565b600160a060020a0390921660009081526002602052604090209190915550565b6000903b1190565b81810182811015610ba357fe5b604080518082019091526000808252602082015290565b81548183558181111561073e5760008381526020902061073e91810190830161063391905b808211156116765760008155600101611662565b50905600a165627a7a723058202b2b2043e858c163f09fe8009b425cae2d32023ecba7a901d84867bb14219b750029",
  "source": "pragma solidity ^0.4.24;\n\nimport {ERC721Token} from \"zeppelin-solidity/contracts/token/ERC721/ERC721Token.sol\";\nimport {Pausable} from \"zeppelin-solidity/contracts/lifecycle/Pausable.sol\";\n\n/**\n * Maintains a list of authorised ticket retailers\n */\ncontract Retailers is ERC721Token(\"Ticket retailers\", \"PLNR-RETAILER\"), Pausable {\n\n  /**\n   * Retailer details\n   */\n  struct Retailer {\n    bytes32 name;\n    uint txFeeAmount;\n  }\n\n  /**\n   * Index of retailers\n   */\n  Retailer[] public retailers;\n\n  /**\n   * Adds the given retailer to the index and returns their ID. Note that the message sender is not the owner of the\n   * retailer generated - the owner is the _address property. \n   */\n  function addRetailer(\n    address _address,\n    bytes32 _name,\n    uint _txFeeAmount\n  ) \n    public\n    onlyOwner\n    returns (uint retailerId) \n  {\n    require(_name[0] != 0, \"Name must not be an empty string\");\n\n    Retailer memory _retailer = Retailer({\n      name: _name,\n      txFeeAmount: _txFeeAmount\n    });\n    uint256 opId = retailers.push(_retailer) - 1;\n\n    _mint(_address, opId);\n\n    return opId;\n  }\n\n  /**\n   * Get the name of the given retailer\n   */\n  function nameById(uint _retailerId) public view returns(bytes32) {\n    return retailers[_retailerId].name;\n  }\n\n  /**\n   * Set the name of the given retailer\n   */\n  function setNameById(uint _retailerId, bytes32 _name) public onlyOwnerOf(_retailerId) {\n    retailers[_retailerId].name = _name;\n  }\n\n  /**\n   * Get the transaction fee charged by a retailer\n   */\n  function txFeeAmountById(uint _retailerId) public view returns(uint) {\n    return retailers[_retailerId].txFeeAmount;\n  }\n\n  /**\n   * Set the transaction fee of a retailer\n   */\n  function setTxFeeAmountById(uint _retailerId, uint _txFeeAmount) public onlyOwnerOf(_retailerId) {\n    retailers[_retailerId].txFeeAmount = _txFeeAmount;\n  }\n\n}\n",
  "sourcePath": "/home/linus/Work/planar/ticket-wallet/contracts/Retailers.sol",
  "compiler": {
    "name": "solc",
    "version": "0.4.24+commit.e67f0147.Emscripten.clang"
  },
  "schemaVersion": "2.0.1",
  "updatedAt": "2018-07-18T19:43:13.356Z"
}