{
  "contractName": "TicketWallet",
  "abi": [
    {
      "constant": true,
      "inputs": [],
      "name": "name",
      "outputs": [
        {
          "name": "",
          "type": "string"
        }
      ],
      "payable": false,
      "stateMutability": "view",
      "type": "function"
    },
    {
      "constant": true,
      "inputs": [
        {
          "name": "_tokenId",
          "type": "uint256"
        }
      ],
      "name": "getApproved",
      "outputs": [
        {
          "name": "",
          "type": "address"
        }
      ],
      "payable": false,
      "stateMutability": "view",
      "type": "function"
    },
    {
      "constant": false,
      "inputs": [
        {
          "name": "_to",
          "type": "address"
        },
        {
          "name": "_tokenId",
          "type": "uint256"
        }
      ],
      "name": "approve",
      "outputs": [],
      "payable": false,
      "stateMutability": "nonpayable",
      "type": "function"
    },
    {
      "constant": true,
      "inputs": [],
      "name": "totalSupply",
      "outputs": [
        {
          "name": "",
          "type": "uint256"
        }
      ],
      "payable": false,
      "stateMutability": "view",
      "type": "function"
    },
    {
      "constant": false,
      "inputs": [
        {
          "name": "_from",
          "type": "address"
        },
        {
          "name": "_to",
          "type": "address"
        },
        {
          "name": "_tokenId",
          "type": "uint256"
        }
      ],
      "name": "transferFrom",
      "outputs": [],
      "payable": false,
      "stateMutability": "nonpayable",
      "type": "function"
    },
    {
      "constant": true,
      "inputs": [
        {
          "name": "_owner",
          "type": "address"
        },
        {
          "name": "_index",
          "type": "uint256"
        }
      ],
      "name": "tokenOfOwnerByIndex",
      "outputs": [
        {
          "name": "",
          "type": "uint256"
        }
      ],
      "payable": false,
      "stateMutability": "view",
      "type": "function"
    },
    {
      "constant": false,
      "inputs": [
        {
          "name": "_from",
          "type": "address"
        },
        {
          "name": "_to",
          "type": "address"
        },
        {
          "name": "_tokenId",
          "type": "uint256"
        }
      ],
      "name": "safeTransferFrom",
      "outputs": [],
      "payable": false,
      "stateMutability": "nonpayable",
      "type": "function"
    },
    {
      "constant": true,
      "inputs": [
        {
          "name": "_tokenId",
          "type": "uint256"
        }
      ],
      "name": "exists",
      "outputs": [
        {
          "name": "",
          "type": "bool"
        }
      ],
      "payable": false,
      "stateMutability": "view",
      "type": "function"
    },
    {
      "constant": true,
      "inputs": [
        {
          "name": "_index",
          "type": "uint256"
        }
      ],
      "name": "tokenByIndex",
      "outputs": [
        {
          "name": "",
          "type": "uint256"
        }
      ],
      "payable": false,
      "stateMutability": "view",
      "type": "function"
    },
    {
      "constant": true,
      "inputs": [
        {
          "name": "",
          "type": "uint256"
        }
      ],
      "name": "tickets",
      "outputs": [
        {
          "name": "description",
          "type": "bytes32"
        },
        {
          "name": "price",
          "type": "uint256"
        },
        {
          "name": "itemUrl",
          "type": "bytes32"
        },
        {
          "name": "state",
          "type": "uint8"
        },
        {
          "name": "fulfilmentUrl",
          "type": "bytes32"
        },
        {
          "name": "retailer",
          "type": "address"
        }
      ],
      "payable": false,
      "stateMutability": "view",
      "type": "function"
    },
    {
      "constant": true,
      "inputs": [
        {
          "name": "_tokenId",
          "type": "uint256"
        }
      ],
      "name": "ownerOf",
      "outputs": [
        {
          "name": "",
          "type": "address"
        }
      ],
      "payable": false,
      "stateMutability": "view",
      "type": "function"
    },
    {
      "constant": true,
      "inputs": [
        {
          "name": "_owner",
          "type": "address"
        }
      ],
      "name": "balanceOf",
      "outputs": [
        {
          "name": "",
          "type": "uint256"
        }
      ],
      "payable": false,
      "stateMutability": "view",
      "type": "function"
    },
    {
      "constant": true,
      "inputs": [],
      "name": "symbol",
      "outputs": [
        {
          "name": "",
          "type": "string"
        }
      ],
      "payable": false,
      "stateMutability": "view",
      "type": "function"
    },
    {
      "constant": false,
      "inputs": [
        {
          "name": "_to",
          "type": "address"
        },
        {
          "name": "_approved",
          "type": "bool"
        }
      ],
      "name": "setApprovalForAll",
      "outputs": [],
      "payable": false,
      "stateMutability": "nonpayable",
      "type": "function"
    },
    {
      "constant": false,
      "inputs": [
        {
          "name": "_from",
          "type": "address"
        },
        {
          "name": "_to",
          "type": "address"
        },
        {
          "name": "_tokenId",
          "type": "uint256"
        },
        {
          "name": "_data",
          "type": "bytes"
        }
      ],
      "name": "safeTransferFrom",
      "outputs": [],
      "payable": false,
      "stateMutability": "nonpayable",
      "type": "function"
    },
    {
      "constant": true,
      "inputs": [
        {
          "name": "_tokenId",
          "type": "uint256"
        }
      ],
      "name": "tokenURI",
      "outputs": [
        {
          "name": "",
          "type": "string"
        }
      ],
      "payable": false,
      "stateMutability": "view",
      "type": "function"
    },
    {
      "constant": true,
      "inputs": [
        {
          "name": "_owner",
          "type": "address"
        },
        {
          "name": "_operator",
          "type": "address"
        }
      ],
      "name": "isApprovedForAll",
      "outputs": [
        {
          "name": "",
          "type": "bool"
        }
      ],
      "payable": false,
      "stateMutability": "view",
      "type": "function"
    },
    {
      "anonymous": false,
      "inputs": [
        {
          "indexed": true,
          "name": "_from",
          "type": "address"
        },
        {
          "indexed": true,
          "name": "_to",
          "type": "address"
        },
        {
          "indexed": false,
          "name": "_tokenId",
          "type": "uint256"
        }
      ],
      "name": "Transfer",
      "type": "event"
    },
    {
      "anonymous": false,
      "inputs": [
        {
          "indexed": true,
          "name": "_owner",
          "type": "address"
        },
        {
          "indexed": true,
          "name": "_approved",
          "type": "address"
        },
        {
          "indexed": false,
          "name": "_tokenId",
          "type": "uint256"
        }
      ],
      "name": "Approval",
      "type": "event"
    },
    {
      "anonymous": false,
      "inputs": [
        {
          "indexed": true,
          "name": "_owner",
          "type": "address"
        },
        {
          "indexed": true,
          "name": "_operator",
          "type": "address"
        },
        {
          "indexed": false,
          "name": "_approved",
          "type": "bool"
        }
      ],
      "name": "ApprovalForAll",
      "type": "event"
    },
    {
      "constant": false,
      "inputs": [
        {
          "name": "_description",
          "type": "bytes32"
        },
        {
          "name": "_expiry",
          "type": "uint256"
        },
        {
          "name": "_price",
          "type": "uint256"
        },
        {
          "name": "_retailer",
          "type": "address"
        },
        {
          "name": "_itemUrl",
          "type": "bytes32"
        },
        {
          "name": "_signature",
          "type": "string"
        }
      ],
      "name": "createTicket",
      "outputs": [
        {
          "name": "",
          "type": "uint256"
        }
      ],
      "payable": true,
      "stateMutability": "payable",
      "type": "function"
    },
    {
      "constant": false,
      "inputs": [
        {
          "name": "_ticketId",
          "type": "uint256"
        },
        {
          "name": "_fulfilmentUrl",
          "type": "bytes32"
        }
      ],
      "name": "fulfilTicket",
      "outputs": [],
      "payable": false,
      "stateMutability": "nonpayable",
      "type": "function"
    },
    {
      "constant": true,
      "inputs": [
        {
          "name": "_ticketId",
          "type": "uint256"
        }
      ],
      "name": "getQueueIndex",
      "outputs": [
        {
          "name": "",
          "type": "uint256"
        }
      ],
      "payable": false,
      "stateMutability": "view",
      "type": "function"
    },
    {
      "constant": false,
      "inputs": [
        {
          "name": "_ticketId",
          "type": "uint256"
        }
      ],
      "name": "cancelTicket",
      "outputs": [],
      "payable": false,
      "stateMutability": "nonpayable",
      "type": "function"
    },
    {
      "constant": true,
      "inputs": [
        {
          "name": "_ticketId",
          "type": "uint256"
        }
      ],
      "name": "getTicketDescriptionById",
      "outputs": [
        {
          "name": "",
          "type": "bytes32"
        }
      ],
      "payable": false,
      "stateMutability": "view",
      "type": "function"
    },
    {
      "constant": true,
      "inputs": [
        {
          "name": "_ticketId",
          "type": "uint256"
        }
      ],
      "name": "getTicketPayloadUrlById",
      "outputs": [
        {
          "name": "",
          "type": "bytes32"
        }
      ],
      "payable": false,
      "stateMutability": "view",
      "type": "function"
    },
    {
      "constant": true,
      "inputs": [
        {
          "name": "_ticketId",
          "type": "uint256"
        }
      ],
      "name": "getTicketStateById",
      "outputs": [
        {
          "name": "",
          "type": "uint8"
        }
      ],
      "payable": false,
      "stateMutability": "view",
      "type": "function"
    },
    {
      "constant": true,
      "inputs": [
        {
          "name": "_ticketId",
          "type": "uint256"
        }
      ],
      "name": "getFulfilmentUrlById",
      "outputs": [
        {
          "name": "",
          "type": "bytes32"
        }
      ],
      "payable": false,
      "stateMutability": "view",
      "type": "function"
    },
    {
      "constant": true,
      "inputs": [],
      "name": "getFulfilmentQueue",
      "outputs": [
        {
          "name": "",
          "type": "uint256[]"
        }
      ],
      "payable": false,
      "stateMutability": "view",
      "type": "function"
    }
  ],
  "bytecode": "0x600d60808181527f5469636b65742077616c6c65740000000000000000000000000000000000000060a0908152610100604052600b60c09081527f504c4e522d57414c4c455400000000000000000000000000000000000000000060e05291926200006d916004916200008c565b508051620000839060059060208401906200008c565b50505062000131565b828054600181600116156101000203166002900490600052602060002090601f016020900481019282601f10620000cf57805160ff1916838001178555620000ff565b82800160010185558215620000ff579182015b82811115620000ff578251825591602001919060010190620000e2565b506200010d92915062000111565b5090565b6200012e91905b808211156200010d576000815560010162000118565b90565b6120d580620001416000396000f30060806040526004361061013a5763ffffffff60e060020a60003504166306fdde03811461013f578063081812fc146101c9578063095ea7b3146101fd57806318160ddd1461022357806323b872dd1461024a5780632f745c591461027457806342842e0e1461029857806346eb3a2d146102c25780634f558e79146102da5780634f6ccce71461030657806350b447121461031e5780636352211e1461038a57806370a08231146103a257806379fa78eb146103c357806380275a751461042b5780638a34d7571461044357806395d89b41146104a85780639c9615fb146104bd578063a22cb465146104d5578063b88d4fde146104fb578063c87b56dd1461056a578063cbed754614610582578063e985e9c5146105be578063ee355b1f146105e5578063f2640abc146105fd578063f734096314610615575b600080fd5b34801561014b57600080fd5b50610154610630565b6040805160208082528351818301528351919283929083019185019080838360005b8381101561018e578181015183820152602001610176565b50505050905090810190601f1680156101bb5780820380516001836020036101000a031916815260200191505b509250505060405180910390f35b3480156101d557600080fd5b506101e16004356106c7565b60408051600160a060020a039092168252519081900360200190f35b34801561020957600080fd5b50610221600160a060020a03600435166024356106e2565b005b34801561022f57600080fd5b506102386107d4565b60408051918252519081900360200190f35b34801561025657600080fd5b50610221600160a060020a03600435811690602435166044356107da565b34801561028057600080fd5b50610238600160a060020a0360043516602435610889565b3480156102a457600080fd5b50610221600160a060020a03600435811690602435166044356108d6565b3480156102ce57600080fd5b5061023860043561090e565b3480156102e657600080fd5b506102f26004356109d0565b604080519115158252519081900360200190f35b34801561031257600080fd5b506102386004356109ed565b34801561032a57600080fd5b50610336600435610a22565b60408051878152602081018790529081018590526060810184600281111561035a57fe5b60ff168152602081019390935250600160a060020a03166040808301919091525190819003606001945092505050f35b34801561039657600080fd5b506101e1600435610a75565b3480156103ae57600080fd5b50610238600160a060020a0360043516610a9f565b604080516020600460a43581810135601f810184900484028501840190955284845261023894823594602480359560443595606435600160a060020a031695608435953695929460c4949201918190840183828082843750949750610ad29650505050505050565b34801561043757600080fd5b5061023860043561102e565b34801561044f57600080fd5b506104586110ef565b60408051602080825283518183015283519192839290830191858101910280838360005b8381101561049457818101518382015260200161047c565b505050509050019250505060405180910390f35b3480156104b457600080fd5b5061015461114f565b3480156104c957600080fd5b506102386004356111b0565b3480156104e157600080fd5b50610221600160a060020a036004351660243515156112f8565b34801561050757600080fd5b50604080516020601f60643560048181013592830184900484028501840190955281845261022194600160a060020a03813581169560248035909216956044359536956084940191819084018382808284375094975061137c9650505050505050565b34801561057657600080fd5b506101546004356113bb565b34801561058e57600080fd5b5061059a600435611470565b604051808260028111156105aa57fe5b60ff16815260200191505060405180910390f35b3480156105ca57600080fd5b506102f2600160a060020a0360043581169060243516611535565b3480156105f157600080fd5b50610221600435611563565b34801561060957600080fd5b506102386004356116d4565b34801561062157600080fd5b50610221600435602435611745565b60048054604080516020601f60026000196101006001881615020190951694909404938401819004810282018101909252828152606093909290918301828280156106bc5780601f10610691576101008083540402835291602001916106bc565b820191906000526020600020905b81548152906001019060200180831161069f57829003601f168201915b505050505090505b90565b600090815260016020526040902054600160a060020a031690565b60006106ed82610a75565b9050600160a060020a03838116908216141561070857600080fd5b33600160a060020a038216148061072457506107248133611535565b151561072f57600080fd5b600061073a836106c7565b600160a060020a03161415806107585750600160a060020a03831615155b156107cf57600082815260016020908152604091829020805473ffffffffffffffffffffffffffffffffffffffff1916600160a060020a03878116918217909255835186815293519093918516927f8c5be1e5ebec7d5bd14f71427d1e84f3dd0314c0f7b2291e5b200ac8c7c3b925928290030190a35b505050565b60085490565b806107e5338261195c565b15156107f057600080fd5b600160a060020a038416151561080557600080fd5b600160a060020a038316151561081a57600080fd5b61082484836119bb565b61082e8483611a69565b6108388383611ba2565b82600160a060020a031684600160a060020a03167fddf252ad1be2c89b69c2b068fc378daa952ba7f163c4a11628f55a4df523b3ef846040518082815260200191505060405180910390a350505050565b600061089483610a9f565b821061089f57600080fd5b600160a060020a03831660009081526006602052604090208054839081106108c357fe5b9060005260206000200154905092915050565b806108e1338261195c565b15156108ec57600080fd5b610908848484602060405190810160405280600081525061137c565b50505050565b60008133600160a060020a0316600c8281548110151561092a57fe5b6000918252602090912060056006909202010154600160a060020a0316148061096357503361095882610a75565b600160a060020a0316145b15156109a7576040805160e560020a62461bcd028152602060048201526019602482015260008051602061208a833981519152604482015290519081900360640190fd5b600c8054849081106109b557fe5b90600052602060002090600602016002015491505b50919050565b600090815260208190526040902054600160a060020a0316151590565b60006109f76107d4565b8210610a0257600080fd5b6008805483908110610a1057fe5b90600052602060002001549050919050565b600c805482908110610a3057fe5b60009182526020909120600690910201805460018201546002830154600384015460048501546005909501549395509193909260ff90921691600160a060020a031686565b600081815260208190526040812054600160a060020a0316801515610a9957600080fd5b92915050565b6000600160a060020a0382161515610ab657600080fd5b50600160a060020a031660009081526002602052604090205490565b6000806000610adf612016565b6040805160208082018990527f5f00000000000000000000000000000000000000000000000000000000000000828401819052604183018c9052606183015260628083018d9052835180840390910181526082909201928390528151600093918291908401908083835b60208310610b685780518252601f199092019160209182019101610b49565b51815160209384036101000a6000190180199092169116179052604080519290940182900382207f19457468657265756d205369676e6564204d6573736167653a0a33320000000083830152603c80840182905285518085039091018152605c909301948590528251909a509195509293508392850191508083835b60208310610c035780518252601f199092019160209182019101610be4565b6001836020036101000a0380198251168184511680821785525050505050509050019150506040518091039020925073__ECTools_______________________________631052506f84888b6040518463ffffffff1660e060020a0281526004018084600019166000191681526020018060200183600160a060020a0316600160a060020a03168152602001828103825284818151815260200191508051906020019080838360005b83811015610cc4578181015183820152602001610cac565b50505050905090810190601f168015610cf15780820380516001836020036101000a031916815260200191505b5094505050505060206040518083038186803b158015610d1057600080fd5b505af4158015610d24573d6000803e3d6000fd5b505050506040513d6020811015610d3a57600080fd5b50511515610d92576040805160e560020a62461bcd02815260206004820152601160248201527f496e76616c6964207369676e6174757265000000000000000000000000000000604482015290519081900360640190fd5b428a11610de9576040805160e560020a62461bcd02815260206004820152601160248201527f4f66666572206861732065787069726564000000000000000000000000000000604482015290519081900360640190fd5b348914610e66576040805160e560020a62461bcd02815260206004820152603260248201527f5472616e73616374696f6e2076616c7565206d75737420636f7665722074686560448201527f207072696365206f6620746865206974656d0000000000000000000000000000606482015290519081900360840190fd5b6040805160c0810182528c8152602081018b815291810189815260006060830181815260808401829052600160a060020a038d1660a0850152600c8054600180820180845592909452855160069091027fdf6966c971051c3d54ec59162606531493a51404a002842f56009d7e5cf4a8c7810191825596517fdf6966c971051c3d54ec59162606531493a51404a002842f56009d7e5cf4a8c888015593517fdf6966c971051c3d54ec59162606531493a51404a002842f56009d7e5cf4a8c987015590517fdf6966c971051c3d54ec59162606531493a51404a002842f56009d7e5cf4a8ca9095018054949750919490938793929060ff191686836002811115610f6c57fe5b02179055506080820151600482015560a0909101516005909101805473ffffffffffffffffffffffffffffffffffffffff1916600160a060020a03909216919091179055039050610fbd3382611beb565b604051600160a060020a038916908a156108fc02908b906000818181858888f19350505050158015610ff3573d6000803e3d6000fd5b50600160a060020a0388166000908152600b602090815260408220805460018101825590835291200181905593505050509695505050505050565b60008133600160a060020a0316600c8281548110151561104a57fe5b6000918252602090912060056006909202010154600160a060020a0316148061108357503361107882610a75565b600160a060020a0316145b15156110c7576040805160e560020a62461bcd028152602060048201526019602482015260008051602061208a833981519152604482015290519081900360640190fd5b600c8054849081106110d557fe5b906000526020600020906006020160000154915050919050565b336000908152600b60209081526040918290208054835181840281018401909452808452606093928301828280156106bc57602002820191906000526020600020905b815481526020019060010190808311611132575050505050905090565b60058054604080516020601f60026000196101006001881615020190951694909404938401819004810282018101909252828152606093909290918301828280156106bc5780601f10610691576101008083540402835291602001916106bc565b60008133600160a060020a0316600c828154811015156111cc57fe5b6000918252602090912060056006909202010154600160a060020a031614806112055750336111fa82610a75565b600160a060020a0316145b1515611249576040805160e560020a62461bcd028152602060048201526019602482015260008051602061208a833981519152604482015290519081900360640190fd5b6001600c80548590811061125957fe5b600091825260209091206003600690920201015460ff16600281111561127b57fe5b146112d0576040805160e560020a62461bcd02815260206004820152601e60248201527f5469636b6574207374617465206d7573742062652066756c66696c6c65640000604482015290519081900360640190fd5b600c8054849081106112de57fe5b906000526020600020906006020160040154915050919050565b600160a060020a03821633141561130e57600080fd5b336000818152600360209081526040808320600160a060020a03871680855290835292819020805460ff1916861515908117909155815190815290519293927f17307eab39ab6107e8899845ad3d59bd9653f200f220920489ca2b5937696c31929181900390910190a35050565b81611387338261195c565b151561139257600080fd5b61139d8585856107da565b6113a985858585611c3a565b15156113b457600080fd5b5050505050565b60606113c6826109d0565b15156113d157600080fd5b6000828152600a602090815260409182902080548351601f6002600019610100600186161502019093169290920491820184900484028101840190945280845290918301828280156114645780601f1061143957610100808354040283529160200191611464565b820191906000526020600020905b81548152906001019060200180831161144757829003601f168201915b50505050509050919050565b60008133600160a060020a0316600c8281548110151561148c57fe5b6000918252602090912060056006909202010154600160a060020a031614806114c55750336114ba82610a75565b600160a060020a0316145b1515611509576040805160e560020a62461bcd028152602060048201526019602482015260008051602061208a833981519152604482015290519081900360640190fd5b600c80548490811061151757fe5b600091825260209091206006909102016003015460ff169392505050565b600160a060020a03918216600090815260036020908152604080832093909416825291909152205460ff1690565b600c8054829133918390811061157557fe5b6000918252602090912060056006909202010154600160a060020a0316146115e7576040805160e560020a62461bcd02815260206004820152601060248201527f4d7573742062652072657461696c657200000000000000000000000000000000604482015290519081900360640190fd5b6001600c8054849081106115f757fe5b600091825260209091206003600690920201015460ff16600281111561161957fe5b1461166e576040805160e560020a62461bcd02815260206004820152601e60248201527f5469636b6574207374617465206d7573742062652066756c66696c6c65640000604482015290519081900360640190fd5b6002600c8381548110151561167f57fe5b60009182526020909120600360069092020101805460ff191660018360028111156116a657fe5b02179055506000600c838154811015156116bc57fe5b60009182526020909120600460069092020101555050565b6000805b336000908152600b602052604090205481101561172e57336000908152600b6020526040902080548491908390811061170d57fe5b90600052602060002001541415611726578091506109ca565b6001016116d8565b5050336000908152600b6020526040902054919050565b60008233600160a060020a0316600c8281548110151561176157fe5b6000918252602090912060056006909202010154600160a060020a0316146117d3576040805160e560020a62461bcd02815260206004820152601060248201527f4d7573742062652072657461696c657200000000000000000000000000000000604482015290519081900360640190fd5b6117dc846116d4565b336000908152600b602052604090205490925082141561186b576040805160e560020a62461bcd028152602060048201526024808201527f5469636b6574206d7573742062652071756575656420666f722066756c66696c60448201527f6d656e7400000000000000000000000000000000000000000000000000000000606482015290519081900360840190fd5b6000600c80548690811061187b57fe5b600091825260209091206003600690920201015460ff16600281111561189d57fe5b146118f2576040805160e560020a62461bcd02815260206004820152601960248201527f5469636b6574207374617465206d757374206265205061696400000000000000604482015290519081900360640190fd5b6001600c8581548110151561190357fe5b60009182526020909120600360069092020101805460ff1916600183600281111561192a57fe5b021790555082600c8581548110151561193f57fe5b600091825260209091206004600690920201015561090882611daa565b60008061196883610a75565b905080600160a060020a031684600160a060020a031614806119a3575083600160a060020a0316611998846106c7565b600160a060020a0316145b806119b357506119b38185611535565b949350505050565b81600160a060020a03166119ce82610a75565b600160a060020a0316146119e157600080fd5b600081815260016020526040902054600160a060020a031615611a65576000818152600160209081526040808320805473ffffffffffffffffffffffffffffffffffffffff1916905580518481529051600160a060020a038616927f8c5be1e5ebec7d5bd14f71427d1e84f3dd0314c0f7b2291e5b200ac8c7c3b925928290030190a35b5050565b6000806000611a788585611e67565b600084815260076020908152604080832054600160a060020a0389168452600690925290912054909350611ab390600163ffffffff611efc16565b600160a060020a038616600090815260066020526040902080549193509083908110611adb57fe5b90600052602060002001549050806006600087600160a060020a0316600160a060020a0316815260200190815260200160002084815481101515611b1b57fe5b6000918252602080832090910192909255600160a060020a0387168152600690915260408120805484908110611b4d57fe5b6000918252602080832090910192909255600160a060020a0387168152600690915260409020805490611b8490600019830161204c565b50600093845260076020526040808520859055908452909220555050565b6000611bae8383611f0e565b50600160a060020a039091166000908152600660209081526040808320805460018101825590845282842081018590559383526007909152902055565b611bf58282611f9d565b600880546000838152600960205260408120829055600182018355919091527ff3f7a9fe364faab93b216da50a3214154f22a0a2b415b23a84c8169e8b636ee3015550565b600080611c4f85600160a060020a0316612001565b1515611c5e5760019150611da1565b84600160a060020a031663f0b9e5ba8786866040518463ffffffff1660e060020a0281526004018084600160a060020a0316600160a060020a0316815260200183815260200180602001828103825283818151815260200191508051906020019080838360005b83811015611cdd578181015183820152602001611cc5565b50505050905090810190601f168015611d0a5780820380516001836020036101000a031916815260200191505b50945050505050602060405180830381600087803b158015611d2b57600080fd5b505af1158015611d3f573d6000803e3d6000fd5b505050506040513d6020811015611d5557600080fd5b50517fffffffff0000000000000000000000000000000000000000000000000000000081167ff0b9e5ba0000000000000000000000000000000000000000000000000000000014925090505b50949350505050565b336000908152600b60205260409020548110611dc557611e64565b336000908152600b6020526040902080546000198101908110611de457fe5b6000918252602080832090910154338352600b9091526040909120805483908110611e0b57fe5b6000918252602080832090910192909255338152600b9091526040902080546000198101908110611e3857fe5b60009182526020808320909101829055338252600b905260409020805490611a6590600019830161204c565b50565b81600160a060020a0316611e7a82610a75565b600160a060020a031614611e8d57600080fd5b600160a060020a038216600090815260026020526040902054611eb790600163ffffffff611efc16565b600160a060020a039092166000908152600260209081526040808320949094559181529081905220805473ffffffffffffffffffffffffffffffffffffffff19169055565b600082821115611f0857fe5b50900390565b600081815260208190526040902054600160a060020a031615611f3057600080fd5b600081815260208181526040808320805473ffffffffffffffffffffffffffffffffffffffff1916600160a060020a03871690811790915583526002909152902054611f7d906001612009565b600160a060020a0390921660009081526002602052604090209190915550565b600160a060020a0382161515611fb257600080fd5b611fbc8282611ba2565b604080518281529051600160a060020a038416916000917fddf252ad1be2c89b69c2b068fc378daa952ba7f163c4a11628f55a4df523b3ef9181900360200190a35050565b6000903b1190565b81810182811015610a9957fe5b6040805160c081018252600080825260208201819052918101829052906060820190815260006020820181905260409091015290565b8154818355818111156107cf576000838152602090206107cf9181019083016106c491905b808211156120855760008155600101612071565b509056004d757374206265206f776e6572206f722072657461696c657200000000000000a165627a7a72305820c405733f4b4f938536d877d06c5c702b849f0f77cb7e5d3c0a4fd2f465d0bb540029",
  "source": "pragma solidity ^0.4.24;\n\nimport {ERC721Token} from \"zeppelin-solidity/contracts/token/ERC721/ERC721Token.sol\";\nimport {ECTools} from \"./ECTools.sol\";\n\n/**\n * Manage the creation and storage of tickets.\n */\ncontract TicketWallet is ERC721Token(\"Ticket wallet\", \"PLNR-WALLET\") {\n\n  /**\n   * Ticket lifecycle\n   */\n  enum TicketState {Paid, Fulfilled, Cancelled}\n\n  /**\n   * Ensure the given message sender is the owner or retailer of the token\n   */\n  modifier onlyRetailerOrOwnerOf(uint256 _ticketId) {\n    require(tickets[_ticketId].retailer == msg.sender || ownerOf(_ticketId) == msg.sender, \"Must be owner or retailer\");\n    _;\n  }\n\n  /**\n   * Ensure the given message sender is the retailer of the token\n   */\n  modifier onlyRetailerOf(uint256 _ticketId) {\n    require(tickets[_ticketId].retailer == msg.sender, \"Must be retailer\");\n    _;\n  }\n\n  /**\n   * Ticket information\n   */\n  struct Ticket {\n    bytes32 description;\n    uint price;\n    bytes32 itemUrl;\n    TicketState state;\n    bytes32 fulfilmentUrl;\n    address retailer;\n  }\n\n  /**\n   * Fulfilment queues\n   */\n  mapping(address => uint[]) fulfilment;\n\n  /**\n   * Ticket storage\n   */\n  Ticket[] public tickets;\n\n  /**\n   * Add a ticket to the contract. \n   *\n   * This function will ensure the price, expiry time and payload were created by an authorised retailer, create the\n   * ticket and store it in the contract storage.\n   */\n  function createTicket(\n    bytes32 _description,\n    uint _expiry,\n    uint _price,\n    address _retailer,\n    bytes32 _itemUrl,\n    string _signature\n  ) \n    public \n    payable \n    returns (uint) \n  {\n    bytes32 _expectedHash = keccak256(abi.encodePacked(_itemUrl, \"_\", _price, \"_\", _expiry));\n    bytes32 _expectedSignature = keccak256(abi.encodePacked(\"\\x19Ethereum Signed Message:\\n32\", _expectedHash));\n\n    require(ECTools.isSignedBy(_expectedSignature, _signature, _retailer), \"Invalid signature\");\n    require(_expiry > now, \"Offer has expired\");\n    require(msg.value == _price, \"Transaction value must cover the price of the item\");\n\n    Ticket memory _ticket = Ticket({\n      description: _description,\n      price: _price,\n      itemUrl: _itemUrl,\n      state: TicketState.Paid,\n      fulfilmentUrl: \"\",\n      retailer: _retailer\n    });\n\n    uint ticketId = tickets.push(_ticket) - 1;\n\n    _mint(msg.sender, ticketId);\n    _retailer.transfer(_price);\n\n    fulfilment[_retailer].push(ticketId);\n\n    return ticketId;\n  }\n\n  /**\n   * Fulfil the ticket and attach the fulfilment URL\n   */\n  function fulfilTicket(uint _ticketId, bytes32 _fulfilmentUrl) public onlyRetailerOf(_ticketId) {\n    uint _indexInFulfilmentQueue = getQueueIndex(_ticketId);\n\n    require(_indexInFulfilmentQueue != fulfilment[msg.sender].length, \"Ticket must be queued for fulfilment\");\n    require(tickets[_ticketId].state == TicketState.Paid, \"Ticket state must be Paid\");\n\n    tickets[_ticketId].state = TicketState.Fulfilled;\n    tickets[_ticketId].fulfilmentUrl = _fulfilmentUrl;\n\n    removeFromQueue(_indexInFulfilmentQueue);\n  }\n\n  /**\n   * Get the index of the ticket in the queue\n   */\n  function getQueueIndex(uint _ticketId) public view returns (uint) {\n    for (uint i = 0; i < fulfilment[msg.sender].length; i++) {\n      if (fulfilment[msg.sender][i] == _ticketId) {\n        return i;\n      }\n    }\n\n    return fulfilment[msg.sender].length;\n  }\n\n  /**\n   * Remove the item from the fulfilment queue of the sender\n   */\n  function removeFromQueue(uint index) private {\n    if (index >= fulfilment[msg.sender].length) return;\n\n    fulfilment[msg.sender][index] = fulfilment[msg.sender][fulfilment[msg.sender].length - 1];\n\n    delete fulfilment[msg.sender][fulfilment[msg.sender].length - 1];\n    fulfilment[msg.sender].length--;\n  }\n\n  /**\n   * Cancel the ticket\n   */\n  function cancelTicket(uint _ticketId) public onlyRetailerOf(_ticketId) {\n    require(tickets[_ticketId].state == TicketState.Fulfilled, \"Ticket state must be fulfilled\");\n\n    tickets[_ticketId].state = TicketState.Cancelled;\n    tickets[_ticketId].fulfilmentUrl = \"\";\n  }\n\n  /**\n   * Return the description of the ticket \n   */\n  function getTicketDescriptionById(uint _ticketId) public onlyRetailerOrOwnerOf(_ticketId) view returns (bytes32) {\n    return tickets[_ticketId].description;\n  }\n\n  /**\n   * Return the URL of the full ticket details\n   */\n  function getTicketPayloadUrlById(uint _ticketId) public onlyRetailerOrOwnerOf(_ticketId) view returns (bytes32) {\n    return tickets[_ticketId].itemUrl;\n  }\n\n  /**\n   * Return the state of the ticket\n   */\n  function getTicketStateById(uint _ticketId) public onlyRetailerOrOwnerOf(_ticketId) view returns (TicketState) {\n    return tickets[_ticketId].state;\n  }\n  \n  /**\n   * Return the URL containing the fulfilment information\n   */\n  function getFulfilmentUrlById(uint _ticketId) public onlyRetailerOrOwnerOf(_ticketId) view returns (bytes32) {\n    require(tickets[_ticketId].state == TicketState.Fulfilled, \"Ticket state must be fulfilled\");\n\n    return tickets[_ticketId].fulfilmentUrl;\n  }\n\n  /**\n   * Get fulfilment queue of retailer\n   */\n  function getFulfilmentQueue() public view returns (uint[]) {\n    return fulfilment[msg.sender];\n  }\n\n}\n",
  "sourcePath": "/home/linus/Work/planar/ticket-wallet/contracts/TicketWallet.sol",
  "compiler": {
    "name": "solc",
    "version": "0.4.24+commit.e67f0147.Emscripten.clang"
  },
  "schemaVersion": "2.0.1",
  "updatedAt": "2018-07-19T06:36:39.953Z"
}