{
  "contractName": "TicketWallet",
  "abi": [
    {
      "constant": true,
      "inputs": [
        {
          "name": "interfaceId",
          "type": "bytes4"
        }
      ],
      "name": "supportsInterface",
      "outputs": [
        {
          "name": "",
          "type": "bool"
        }
      ],
      "payable": false,
      "stateMutability": "view",
      "type": "function",
      "signature": "0x01ffc9a7"
    },
    {
      "constant": true,
      "inputs": [],
      "name": "name",
      "outputs": [
        {
          "name": "",
          "type": "string"
        }
      ],
      "payable": false,
      "stateMutability": "view",
      "type": "function",
      "signature": "0x06fdde03"
    },
    {
      "constant": true,
      "inputs": [
        {
          "name": "tokenId",
          "type": "uint256"
        }
      ],
      "name": "getApproved",
      "outputs": [
        {
          "name": "",
          "type": "address"
        }
      ],
      "payable": false,
      "stateMutability": "view",
      "type": "function",
      "signature": "0x081812fc"
    },
    {
      "constant": false,
      "inputs": [
        {
          "name": "to",
          "type": "address"
        },
        {
          "name": "tokenId",
          "type": "uint256"
        }
      ],
      "name": "approve",
      "outputs": [],
      "payable": false,
      "stateMutability": "nonpayable",
      "type": "function",
      "signature": "0x095ea7b3"
    },
    {
      "constant": true,
      "inputs": [],
      "name": "totalSupply",
      "outputs": [
        {
          "name": "",
          "type": "uint256"
        }
      ],
      "payable": false,
      "stateMutability": "view",
      "type": "function",
      "signature": "0x18160ddd"
    },
    {
      "constant": false,
      "inputs": [
        {
          "name": "from",
          "type": "address"
        },
        {
          "name": "to",
          "type": "address"
        },
        {
          "name": "tokenId",
          "type": "uint256"
        }
      ],
      "name": "transferFrom",
      "outputs": [],
      "payable": false,
      "stateMutability": "nonpayable",
      "type": "function",
      "signature": "0x23b872dd"
    },
    {
      "constant": true,
      "inputs": [
        {
          "name": "owner",
          "type": "address"
        },
        {
          "name": "index",
          "type": "uint256"
        }
      ],
      "name": "tokenOfOwnerByIndex",
      "outputs": [
        {
          "name": "",
          "type": "uint256"
        }
      ],
      "payable": false,
      "stateMutability": "view",
      "type": "function",
      "signature": "0x2f745c59"
    },
    {
      "constant": false,
      "inputs": [
        {
          "name": "to",
          "type": "address"
        },
        {
          "name": "tokenId",
          "type": "uint256"
        }
      ],
      "name": "mint",
      "outputs": [
        {
          "name": "",
          "type": "bool"
        }
      ],
      "payable": false,
      "stateMutability": "nonpayable",
      "type": "function",
      "signature": "0x40c10f19"
    },
    {
      "constant": false,
      "inputs": [
        {
          "name": "from",
          "type": "address"
        },
        {
          "name": "to",
          "type": "address"
        },
        {
          "name": "tokenId",
          "type": "uint256"
        }
      ],
      "name": "safeTransferFrom",
      "outputs": [],
      "payable": false,
      "stateMutability": "nonpayable",
      "type": "function",
      "signature": "0x42842e0e"
    },
    {
      "constant": true,
      "inputs": [
        {
          "name": "index",
          "type": "uint256"
        }
      ],
      "name": "tokenByIndex",
      "outputs": [
        {
          "name": "",
          "type": "uint256"
        }
      ],
      "payable": false,
      "stateMutability": "view",
      "type": "function",
      "signature": "0x4f6ccce7"
    },
    {
      "constant": true,
      "inputs": [
        {
          "name": "tokenId",
          "type": "uint256"
        }
      ],
      "name": "ownerOf",
      "outputs": [
        {
          "name": "",
          "type": "address"
        }
      ],
      "payable": false,
      "stateMutability": "view",
      "type": "function",
      "signature": "0x6352211e"
    },
    {
      "constant": true,
      "inputs": [
        {
          "name": "owner",
          "type": "address"
        }
      ],
      "name": "balanceOf",
      "outputs": [
        {
          "name": "",
          "type": "uint256"
        }
      ],
      "payable": false,
      "stateMutability": "view",
      "type": "function",
      "signature": "0x70a08231"
    },
    {
      "constant": true,
      "inputs": [],
      "name": "symbol",
      "outputs": [
        {
          "name": "",
          "type": "string"
        }
      ],
      "payable": false,
      "stateMutability": "view",
      "type": "function",
      "signature": "0x95d89b41"
    },
    {
      "constant": false,
      "inputs": [
        {
          "name": "account",
          "type": "address"
        }
      ],
      "name": "addMinter",
      "outputs": [],
      "payable": false,
      "stateMutability": "nonpayable",
      "type": "function",
      "signature": "0x983b2d56"
    },
    {
      "constant": false,
      "inputs": [],
      "name": "renounceMinter",
      "outputs": [],
      "payable": false,
      "stateMutability": "nonpayable",
      "type": "function",
      "signature": "0x98650275"
    },
    {
      "constant": false,
      "inputs": [
        {
          "name": "to",
          "type": "address"
        },
        {
          "name": "approved",
          "type": "bool"
        }
      ],
      "name": "setApprovalForAll",
      "outputs": [],
      "payable": false,
      "stateMutability": "nonpayable",
      "type": "function",
      "signature": "0xa22cb465"
    },
    {
      "constant": true,
      "inputs": [
        {
          "name": "account",
          "type": "address"
        }
      ],
      "name": "isMinter",
      "outputs": [
        {
          "name": "",
          "type": "bool"
        }
      ],
      "payable": false,
      "stateMutability": "view",
      "type": "function",
      "signature": "0xaa271e1a"
    },
    {
      "constant": false,
      "inputs": [
        {
          "name": "from",
          "type": "address"
        },
        {
          "name": "to",
          "type": "address"
        },
        {
          "name": "tokenId",
          "type": "uint256"
        },
        {
          "name": "_data",
          "type": "bytes"
        }
      ],
      "name": "safeTransferFrom",
      "outputs": [],
      "payable": false,
      "stateMutability": "nonpayable",
      "type": "function",
      "signature": "0xb88d4fde"
    },
    {
      "constant": true,
      "inputs": [
        {
          "name": "tokenId",
          "type": "uint256"
        }
      ],
      "name": "tokenURI",
      "outputs": [
        {
          "name": "",
          "type": "string"
        }
      ],
      "payable": false,
      "stateMutability": "view",
      "type": "function",
      "signature": "0xc87b56dd"
    },
    {
      "constant": true,
      "inputs": [
        {
          "name": "owner",
          "type": "address"
        },
        {
          "name": "operator",
          "type": "address"
        }
      ],
      "name": "isApprovedForAll",
      "outputs": [
        {
          "name": "",
          "type": "bool"
        }
      ],
      "payable": false,
      "stateMutability": "view",
      "type": "function",
      "signature": "0xe985e9c5"
    },
    {
      "anonymous": false,
      "inputs": [
        {
          "indexed": true,
          "name": "account",
          "type": "address"
        }
      ],
      "name": "MinterAdded",
      "type": "event",
      "signature": "0x6ae172837ea30b801fbfcdd4108aa1d5bf8ff775444fd70256b44e6bf3dfc3f6"
    },
    {
      "anonymous": false,
      "inputs": [
        {
          "indexed": true,
          "name": "account",
          "type": "address"
        }
      ],
      "name": "MinterRemoved",
      "type": "event",
      "signature": "0xe94479a9f7e1952cc78f2d6baab678adc1b772d936c6583def489e524cb66692"
    },
    {
      "anonymous": false,
      "inputs": [
        {
          "indexed": true,
          "name": "from",
          "type": "address"
        },
        {
          "indexed": true,
          "name": "to",
          "type": "address"
        },
        {
          "indexed": true,
          "name": "tokenId",
          "type": "uint256"
        }
      ],
      "name": "Transfer",
      "type": "event",
      "signature": "0xddf252ad1be2c89b69c2b068fc378daa952ba7f163c4a11628f55a4df523b3ef"
    },
    {
      "anonymous": false,
      "inputs": [
        {
          "indexed": true,
          "name": "owner",
          "type": "address"
        },
        {
          "indexed": true,
          "name": "approved",
          "type": "address"
        },
        {
          "indexed": true,
          "name": "tokenId",
          "type": "uint256"
        }
      ],
      "name": "Approval",
      "type": "event",
      "signature": "0x8c5be1e5ebec7d5bd14f71427d1e84f3dd0314c0f7b2291e5b200ac8c7c3b925"
    },
    {
      "anonymous": false,
      "inputs": [
        {
          "indexed": true,
          "name": "owner",
          "type": "address"
        },
        {
          "indexed": true,
          "name": "operator",
          "type": "address"
        },
        {
          "indexed": false,
          "name": "approved",
          "type": "bool"
        }
      ],
      "name": "ApprovalForAll",
      "type": "event",
      "signature": "0x17307eab39ab6107e8899845ad3d59bd9653f200f220920489ca2b5937696c31"
    },
    {
      "constant": false,
      "inputs": [
        {
          "name": "_description",
          "type": "string"
        },
        {
          "name": "_itemUrl",
          "type": "string"
        },
        {
          "name": "_expiry",
          "type": "uint256"
        },
        {
          "name": "_retailer",
          "type": "address"
        },
        {
          "name": "_signature",
          "type": "bytes"
        }
      ],
      "name": "createTicket",
      "outputs": [
        {
          "name": "",
          "type": "uint256"
        }
      ],
      "payable": true,
      "stateMutability": "payable",
      "type": "function",
      "signature": "0x03fad4b2"
    },
    {
      "constant": false,
      "inputs": [
        {
          "name": "_ticketId",
          "type": "uint256"
        },
        {
          "name": "_fulfilmentURI",
          "type": "string"
        }
      ],
      "name": "fulfilTicket",
      "outputs": [],
      "payable": false,
      "stateMutability": "nonpayable",
      "type": "function",
      "signature": "0xdf06b5ef"
    },
    {
      "constant": false,
      "inputs": [
        {
          "name": "_ticketId",
          "type": "uint256"
        }
      ],
      "name": "cancelTicket",
      "outputs": [],
      "payable": false,
      "stateMutability": "nonpayable",
      "type": "function",
      "signature": "0xee355b1f"
    },
    {
      "constant": true,
      "inputs": [
        {
          "name": "_ticketId",
          "type": "uint256"
        }
      ],
      "name": "getTicketDescriptionById",
      "outputs": [
        {
          "name": "",
          "type": "string"
        }
      ],
      "payable": false,
      "stateMutability": "view",
      "type": "function",
      "signature": "0x80275a75"
    },
    {
      "constant": true,
      "inputs": [
        {
          "name": "_ticketId",
          "type": "uint256"
        }
      ],
      "name": "getTicketStateById",
      "outputs": [
        {
          "name": "",
          "type": "uint8"
        }
      ],
      "payable": false,
      "stateMutability": "view",
      "type": "function",
      "signature": "0xcbed7546"
    },
    {
      "constant": true,
      "inputs": [
        {
          "name": "_ticketId",
          "type": "uint256"
        }
      ],
      "name": "getFulfilmentURIById",
      "outputs": [
        {
          "name": "",
          "type": "string"
        }
      ],
      "payable": false,
      "stateMutability": "view",
      "type": "function",
      "signature": "0xf7947fca"
    },
    {
      "constant": true,
      "inputs": [],
      "name": "getFulfilmentQueue",
      "outputs": [
        {
          "name": "",
          "type": "uint256[]"
        }
      ],
      "payable": false,
      "stateMutability": "view",
      "type": "function",
      "signature": "0x8a34d757"
    },
    {
      "constant": true,
      "inputs": [],
      "name": "getOwnedTokens",
      "outputs": [
        {
          "name": "",
          "type": "uint256[]"
        }
      ],
      "payable": false,
      "stateMutability": "view",
      "type": "function",
      "signature": "0x60820d80"
    }
  ],
  "bytecode": "0x600d60809081527f5469636b65742077616c6c65740000000000000000000000000000000000000060a052610100604052600b60c09081527f504c4e522d57414c4c455400000000000000000000000000000000000000000060e0528181620000917f01ffc9a7000000000000000000000000000000000000000000000000000000006401000000006200017d810204565b620000c57f80ac58cd000000000000000000000000000000000000000000000000000000006401000000006200017d810204565b620000f97f780e9d63000000000000000000000000000000000000000000000000000000006401000000006200017d810204565b81516200010e906009906020850190620002cf565b5080516200012490600a906020840190620002cf565b50620001597f5b5e139f000000000000000000000000000000000000000000000000000000006401000000006200017d810204565b505050506200017733620001ea640100000000026401000000009004565b62000374565b7fffffffff000000000000000000000000000000000000000000000000000000008082161415620001ad57600080fd5b7fffffffff00000000000000000000000000000000000000000000000000000000166000908152602081905260409020805460ff19166001179055565b62000205600c82640100000000620023f66200023c82021704565b604051600160a060020a038216907f6ae172837ea30b801fbfcdd4108aa1d5bf8ff775444fd70256b44e6bf3dfc3f690600090a250565b600160a060020a03811615156200025257600080fd5b62000267828264010000000062000297810204565b156200027257600080fd5b600160a060020a0316600090815260209190915260409020805460ff19166001179055565b6000600160a060020a0382161515620002af57600080fd5b50600160a060020a03166000908152602091909152604090205460ff1690565b828054600181600116156101000203166002900490600052602060002090601f016020900481019282601f106200031257805160ff191683800117855562000342565b8280016001018555821562000342579182015b828111156200034257825182559160200191906001019062000325565b506200035092915062000354565b5090565b6200037191905b808211156200035057600081556001016200035b565b90565b61262280620003846000396000f3fe6080604052600436106101695763ffffffff7c010000000000000000000000000000000000000000000000000000000060003504166301ffc9a7811461016e57806303fad4b2146101cb57806306fdde03146103a6578063081812fc14610430578063095ea7b31461047657806318160ddd146104b157806323b872dd146104c65780632f745c591461050957806340c10f191461054257806342842e0e1461057b5780634f6ccce7146105be57806360820d80146105e85780636352211e1461064d57806370a082311461067757806380275a75146106aa5780638a34d757146106d457806395d89b41146106e9578063983b2d56146106fe5780639865027514610731578063a22cb46514610746578063aa271e1a14610781578063b88d4fde146107b4578063c87b56dd14610887578063cbed7546146108b1578063df06b5ef146108ff578063e985e9c5146109b9578063ee355b1f146109f4578063f7947fca14610a1e575b600080fd5b34801561017a57600080fd5b506101b76004803603602081101561019157600080fd5b50357bffffffffffffffffffffffffffffffffffffffffffffffffffffffff1916610a48565b604080519115158252519081900360200190f35b610394600480360360a08110156101e157600080fd5b8101906020810181356401000000008111156101fc57600080fd5b82018360208201111561020e57600080fd5b8035906020019184600183028401116401000000008311171561023057600080fd5b91908080601f016020809104026020016040519081016040528093929190818152602001838380828437600092019190915250929594936020810193503591505064010000000081111561028357600080fd5b82018360208201111561029557600080fd5b803590602001918460018302840111640100000000831117156102b757600080fd5b91908080601f0160208091040260200160405190810160405280939291908181526020018383808284376000920191909152509295843595600160a060020a036020870135169591945092506060810191506040013564010000000081111561031f57600080fd5b82018360208201111561033157600080fd5b8035906020019184600183028401116401000000008311171561035357600080fd5b91908080601f016020809104026020016040519081016040528093929190818152602001838380828437600092019190915250929550610a80945050505050565b60408051918252519081900360200190f35b3480156103b257600080fd5b506103bb610e12565b6040805160208082528351818301528351919283929083019185019080838360005b838110156103f55781810151838201526020016103dd565b50505050905090810190601f1680156104225780820380516001836020036101000a031916815260200191505b509250505060405180910390f35b34801561043c57600080fd5b5061045a6004803603602081101561045357600080fd5b5035610ea9565b60408051600160a060020a039092168252519081900360200190f35b34801561048257600080fd5b506104af6004803603604081101561049957600080fd5b50600160a060020a038135169060200135610edb565b005b3480156104bd57600080fd5b50610394610f91565b3480156104d257600080fd5b506104af600480360360608110156104e957600080fd5b50600160a060020a03813581169160208101359091169060400135610f97565b34801561051557600080fd5b506103946004803603604081101561052c57600080fd5b50600160a060020a038135169060200135610fbc565b34801561054e57600080fd5b506101b76004803603604081101561056557600080fd5b50600160a060020a03813516906020013561100a565b34801561058757600080fd5b506104af6004803603606081101561059e57600080fd5b50600160a060020a03813581169160208101359091169060400135611033565b3480156105ca57600080fd5b50610394600480360360208110156105e157600080fd5b503561104f565b3480156105f457600080fd5b506105fd611084565b60408051602080825283518183015283519192839290830191858101910280838360005b83811015610639578181015183820152602001610621565b505050509050019250505060405180910390f35b34801561065957600080fd5b5061045a6004803603602081101561067057600080fd5b50356110e2565b34801561068357600080fd5b506103946004803603602081101561069a57600080fd5b5035600160a060020a0316611106565b3480156106b657600080fd5b506103bb600480360360208110156106cd57600080fd5b5035611139565b3480156106e057600080fd5b506105fd611292565b3480156106f557600080fd5b506103bb6112f1565b34801561070a57600080fd5b506104af6004803603602081101561072157600080fd5b5035600160a060020a0316611352565b34801561073d57600080fd5b506104af611372565b34801561075257600080fd5b506104af6004803603604081101561076957600080fd5b50600160a060020a038135169060200135151561137d565b34801561078d57600080fd5b506101b7600480360360208110156107a457600080fd5b5035600160a060020a0316611401565b3480156107c057600080fd5b506104af600480360360808110156107d757600080fd5b600160a060020a0382358116926020810135909116916040820135919081019060808101606082013564010000000081111561081257600080fd5b82018360208201111561082457600080fd5b8035906020019184600183028401116401000000008311171561084657600080fd5b91908080601f016020809104026020016040519081016040528093929190818152602001838380828437600092019190915250929550611414945050505050565b34801561089357600080fd5b506103bb600480360360208110156108aa57600080fd5b503561143c565b3480156108bd57600080fd5b506108db600480360360208110156108d457600080fd5b50356114f1565b604051808260028111156108eb57fe5b60ff16815260200191505060405180910390f35b34801561090b57600080fd5b506104af6004803603604081101561092257600080fd5b8135919081019060408101602082013564010000000081111561094457600080fd5b82018360208201111561095657600080fd5b8035906020019184600183028401116401000000008311171561097857600080fd5b91908080601f0160208091040260200160405190810160405280939291908181526020018383808284376000920191909152509295506115c8945050505050565b3480156109c557600080fd5b506101b7600480360360408110156109dc57600080fd5b50600160a060020a03813581169160200135166117ed565b348015610a0057600080fd5b506104af60048036036020811015610a1757600080fd5b503561181b565b348015610a2a57600080fd5b506103bb60048036036020811015610a4157600080fd5b50356119a9565b7bffffffffffffffffffffffffffffffffffffffffffffffffffffffff19811660009081526020819052604090205460ff165b919050565b6000808534866040516020018084805190602001908083835b60208310610ab85780518252601f199092019160209182019101610a99565b6001836020036101000a038019825116818451168082178552505050505050905001807f5f00000000000000000000000000000000000000000000000000000000000000815250600101838152602001807f5f00000000000000000000000000000000000000000000000000000000000000815250600101828152602001935050505060405160208183030381529060405280519060200120905060008160405160200180807f19457468657265756d205369676e6564204d6573736167653a0a333200000000815250601c0182815260200191505060405160208183030381529060405280519060200120905084600160a060020a0316610bba8286611b54565b600160a060020a031614610c18576040805160e560020a62461bcd02815260206004820152601160248201527f496e76616c6964207369676e6174757265000000000000000000000000000000604482015290519081900360640190fd5b428611610c6f576040805160e560020a62461bcd02815260206004820152601160248201527f4f66666572206861732065787069726564000000000000000000000000000000604482015290519081900360640190fd5b610c7761250e565b506040805160a08101825289815234602080830191909152600082840181905283518083019094528084526060830193909352600160a060020a0388166080830152600e8054600180820180845592865284518051959695919487936005027fbb7b4a454dc3493923482f07822329ed19e8244eff582cc204f8554c3620c3fd0192610d06928492019061253e565b506020820151816001015560408201518160020160006101000a81548160ff02191690836002811115610d3557fe5b021790555060608201518051610d5591600384019160209091019061253e565b50608091909101516004909101805473ffffffffffffffffffffffffffffffffffffffff1916600160a060020a03909216919091179055039050610d993382611c2a565b610da3818a611c4b565b604051600160a060020a038816903480156108fc02916000818181858888f19350505050158015610dd8573d6000803e3d6000fd5b50600160a060020a0387166000908152600d6020908152604082208054600181018255908352912001819055935050505095945050505050565b60098054604080516020601f6002600019610100600188161502019095169490940493840181900481028201810190925282815260609390929091830182828015610e9e5780601f10610e7357610100808354040283529160200191610e9e565b820191906000526020600020905b815481529060010190602001808311610e8157829003601f168201915b505050505090505b90565b6000610eb482611c7e565b1515610ebf57600080fd5b50600090815260026020526040902054600160a060020a031690565b6000610ee6826110e2565b9050600160a060020a038381169082161415610f0157600080fd5b33600160a060020a0382161480610f1d5750610f1d81336117ed565b1515610f2857600080fd5b600082815260026020526040808220805473ffffffffffffffffffffffffffffffffffffffff1916600160a060020a0387811691821790925591518593918516917f8c5be1e5ebec7d5bd14f71427d1e84f3dd0314c0f7b2291e5b200ac8c7c3b92591a4505050565b60075490565b610fa13382611c9b565b1515610fac57600080fd5b610fb7838383611cfa565b505050565b6000610fc783611106565b8210610fd257600080fd5b600160a060020a0383166000908152600560205260409020805483908110610ff657fe5b906000526020600020015490505b92915050565b600061101533611401565b151561102057600080fd5b61102a8383611c2a565b50600192915050565b610fb78383836020604051908101604052806000815250611414565b6000611059610f91565b821061106457600080fd5b600780548390811061107257fe5b90600052602060002001549050919050565b606061108f33611d19565b805480602002602001604051908101604052809291908181526020018280548015610e9e57602002820191906000526020600020905b8154815260200190600101908083116110c5575050505050905090565b600081815260016020526040812054600160a060020a031680151561100457600080fd5b6000600160a060020a038216151561111d57600080fd5b50600160a060020a031660009081526003602052604090205490565b60608133600160a060020a0316600e8281548110151561115557fe5b6000918252602090912060046005909202010154600160a060020a0316148061118e575033611183826110e2565b600160a060020a0316145b15156111e4576040805160e560020a62461bcd02815260206004820152601960248201527f4d757374206265206f776e6572206f722072657461696c657200000000000000604482015290519081900360640190fd5b600e8054849081106111f257fe5b6000918252602091829020600590910201805460408051601f60026000196101006001871615020190941693909304928301859004850281018501909152818152928301828280156112855780601f1061125a57610100808354040283529160200191611285565b820191906000526020600020905b81548152906001019060200180831161126857829003601f168201915b5050505050915050919050565b336000908152600d6020908152604091829020805483518184028101840190945280845260609392830182828015610e9e57602002820191906000526020600020908154815260200190600101908083116110c5575050505050905090565b600a8054604080516020601f6002600019610100600188161502019095169490940493840181900481028201810190925282815260609390929091830182828015610e9e5780601f10610e7357610100808354040283529160200191610e9e565b61135b33611401565b151561136657600080fd5b61136f81611d33565b50565b61137b33611d7b565b565b600160a060020a03821633141561139357600080fd5b336000818152600460209081526040808320600160a060020a03871680855290835292819020805460ff1916861515908117909155815190815290519293927f17307eab39ab6107e8899845ad3d59bd9653f200f220920489ca2b5937696c31929181900390910190a35050565b6000611004600c8363ffffffff611dc316565b61141f848484610f97565b61142b84848484611dfa565b151561143657600080fd5b50505050565b606061144782611c7e565b151561145257600080fd5b6000828152600b602090815260409182902080548351601f6002600019610100600186161502019093169290920491820184900484028101840190945280845290918301828280156114e55780601f106114ba576101008083540402835291602001916114e5565b820191906000526020600020905b8154815290600101906020018083116114c857829003601f168201915b50505050509050919050565b60008133600160a060020a0316600e8281548110151561150d57fe5b6000918252602090912060046005909202010154600160a060020a0316148061154657503361153b826110e2565b600160a060020a0316145b151561159c576040805160e560020a62461bcd02815260206004820152601960248201527f4d757374206265206f776e6572206f722072657461696c657200000000000000604482015290519081900360640190fd5b600e8054849081106115aa57fe5b600091825260209091206005909102016002015460ff169392505050565b600e805483913391839081106115da57fe5b6000918252602090912060046005909202010154600160a060020a03161461164c576040805160e560020a62461bcd02815260206004820152601060248201527f4d7573742062652072657461696c657200000000000000000000000000000000604482015290519081900360640190fd5b600061165784611f76565b336000908152600d60205260409020549091508114156116e6576040805160e560020a62461bcd028152602060048201526024808201527f5469636b6574206d7573742062652071756575656420666f722066756c66696c60448201527f6d656e7400000000000000000000000000000000000000000000000000000000606482015290519081900360840190fd5b6000600e8054869081106116f657fe5b60009182526020909120600260059092020181015460ff169081111561171857fe5b1461176d576040805160e560020a62461bcd02815260206004820152601960248201527f5469636b6574207374617465206d757374206265205061696400000000000000604482015290519081900360640190fd5b6001600e8581548110151561177e57fe5b906000526020600020906005020160020160006101000a81548160ff021916908360028111156117aa57fe5b021790555082600e858154811015156117bf57fe5b906000526020600020906005020160030190805190602001906117e392919061253e565b5061143681611fe6565b600160a060020a03918216600090815260046020908152604080832093909416825291909152205460ff1690565b600e8054829133918390811061182d57fe5b6000918252602090912060046005909202010154600160a060020a03161461189f576040805160e560020a62461bcd02815260206004820152601060248201527f4d7573742062652072657461696c657200000000000000000000000000000000604482015290519081900360640190fd5b6001600e8054849081106118af57fe5b60009182526020909120600260059092020181015460ff16908111156118d157fe5b14611926576040805160e560020a62461bcd02815260206004820152601e60248201527f5469636b6574207374617465206d7573742062652066756c66696c6c65640000604482015290519081900360640190fd5b6002600e8381548110151561193757fe5b906000526020600020906005020160020160006101000a81548160ff0219169083600281111561196357fe5b0217905550604080516020810190915260008152600e80548490811061198557fe5b90600052602060002090600502016003019080519060200190610fb792919061253e565b60608133600160a060020a0316600e828154811015156119c557fe5b6000918252602090912060046005909202010154600160a060020a031614806119fe5750336119f3826110e2565b600160a060020a0316145b1515611a54576040805160e560020a62461bcd02815260206004820152601960248201527f4d757374206265206f776e6572206f722072657461696c657200000000000000604482015290519081900360640190fd5b6001600e805485908110611a6457fe5b60009182526020909120600260059092020181015460ff1690811115611a8657fe5b14611adb576040805160e560020a62461bcd02815260206004820152601e60248201527f5469636b6574207374617465206d7573742062652066756c66696c6c65640000604482015290519081900360640190fd5b600e805484908110611ae957fe5b6000918252602091829020600360059092020101805460408051601f60026000196101006001871615020190941693909304928301859004850281018501909152818152928301828280156112855780601f1061125a57610100808354040283529160200191611285565b60008060008084516041141515611b715760009350505050611004565b50505060208201516040830151606084015160001a601b60ff82161015611b9657601b015b8060ff16601b14158015611bae57508060ff16601c14155b15611bbf5760009350505050611004565b6040805160008152602080820180845289905260ff8416828401526060820186905260808201859052915160019260a0808401939192601f1981019281900390910190855afa158015611c16573d6000803e3d6000fd5b505050602060405103519350505050611004565b611c3482826120a0565b611c3e8282612161565b611c478161219f565b5050565b611c5482611c7e565b1515611c5f57600080fd5b6000828152600b602090815260409091208251610fb79284019061253e565b600090815260016020526040902054600160a060020a0316151590565b600080611ca7836110e2565b905080600160a060020a031684600160a060020a03161480611ce2575083600160a060020a0316611cd784610ea9565b600160a060020a0316145b80611cf25750611cf281856117ed565b949350505050565b611d058383836121e3565b611d0f83826122ff565b610fb78282612161565b600160a060020a0316600090815260056020526040902090565b611d44600c8263ffffffff6123f616565b604051600160a060020a038216907f6ae172837ea30b801fbfcdd4108aa1d5bf8ff775444fd70256b44e6bf3dfc3f690600090a250565b611d8c600c8263ffffffff61244416565b604051600160a060020a038216907fe94479a9f7e1952cc78f2d6baab678adc1b772d936c6583def489e524cb6669290600090a250565b6000600160a060020a0382161515611dda57600080fd5b50600160a060020a03166000908152602091909152604090205460ff1690565b6000611e0e84600160a060020a0316612490565b1515611e1c57506001611cf2565b6040517f150b7a020000000000000000000000000000000000000000000000000000000081523360048201818152600160a060020a03888116602485015260448401879052608060648501908152865160848601528651600095928a169463150b7a029490938c938b938b939260a4019060208501908083838e5b83811015611eaf578181015183820152602001611e97565b50505050905090810190601f168015611edc5780820380516001836020036101000a031916815260200191505b5095505050505050602060405180830381600087803b158015611efe57600080fd5b505af1158015611f12573d6000803e3d6000fd5b505050506040513d6020811015611f2857600080fd5b50517bffffffffffffffffffffffffffffffffffffffffffffffffffffffff19167f150b7a020000000000000000000000000000000000000000000000000000000014915050949350505050565b6000805b336000908152600d6020526040902054811015611fcf57336000908152600d60205260409020805484919083908110611faf57fe5b90600052602060002001541415611fc7579050610a7b565b600101611f7a565b5050336000908152600d6020526040902054919050565b336000908152600d602052604090205481106120015761136f565b336000908152600d602052604090208054600019810190811061202057fe5b6000918252602080832090910154338352600d909152604090912080548390811061204757fe5b6000918252602080832090910192909255338152600d909152604090208054600019810190811061207457fe5b60009182526020808320909101829055338252600d905260409020805490611c479060001983016125bc565b600160a060020a03821615156120b557600080fd5b6120be81611c7e565b156120c857600080fd5b6000818152600160208181526040808420805473ffffffffffffffffffffffffffffffffffffffff1916600160a060020a038816908117909155845260039091529091205461211691612498565b600160a060020a0383166000818152600360205260408082209390935591518392907fddf252ad1be2c89b69c2b068fc378daa952ba7f163c4a11628f55a4df523b3ef908290a45050565b600160a060020a0390911660009081526005602081815260408084208054868652600684529185208290559282526001810183559183529091200155565b600780546000838152600860205260408120829055600182018355919091527fa66cc928b5edb82af9bd49922954155ab7b0942694bea4ce44661d9a8736c6880155565b82600160a060020a03166121f6826110e2565b600160a060020a03161461220957600080fd5b600160a060020a038216151561221e57600080fd5b612227816124b1565b600160a060020a03831660009081526003602052604090205461225190600163ffffffff6124f916565b600160a060020a03808516600090815260036020526040808220939093559084168152205461228790600163ffffffff61249816565b600160a060020a0380841660008181526003602090815260408083209590955585825260019052838120805473ffffffffffffffffffffffffffffffffffffffff1916831790559251849391928716917fddf252ad1be2c89b69c2b068fc378daa952ba7f163c4a11628f55a4df523b3ef91a4505050565b600160a060020a03821660009081526005602052604081205461232990600163ffffffff6124f916565b6000838152600660205260409020549091508082146123c657600160a060020a038416600090815260056020526040812080548490811061236657fe5b90600052602060002001549050806005600087600160a060020a0316600160a060020a03168152602001908152602001600020838154811015156123a657fe5b600091825260208083209091019290925591825260069052604090208190555b600160a060020a03841660009081526005602052604090208054906123ef9060001983016125bc565b5050505050565b600160a060020a038116151561240b57600080fd5b6124158282611dc3565b1561241f57600080fd5b600160a060020a0316600090815260209190915260409020805460ff19166001179055565b600160a060020a038116151561245957600080fd5b6124638282611dc3565b151561246e57600080fd5b600160a060020a0316600090815260209190915260409020805460ff19169055565b6000903b1190565b6000828201838110156124aa57600080fd5b9392505050565b600081815260026020526040902054600160a060020a03161561136f576000908152600260205260409020805473ffffffffffffffffffffffffffffffffffffffff19169055565b60008282111561250857600080fd5b50900390565b6040805160a081018252606081526000602082018190529091820190815260606020820152600060409091015290565b828054600181600116156101000203166002900490600052602060002090601f016020900481019282601f1061257f57805160ff19168380011785556125ac565b828001600101855582156125ac579182015b828111156125ac578251825591602001919060010190612591565b506125b89291506125dc565b5090565b815481835581811115610fb757600083815260209020610fb79181019083015b610ea691905b808211156125b857600081556001016125e256fea165627a7a72305820ad1f9b94242d6af8bad3513fe2c382d68055dd01acd54923a92b2ab33320941a0029",
  "source": "pragma solidity ^0.5.0;\n\nimport {ERC721Full} from \"openzeppelin-solidity/contracts/token/ERC721/ERC721Full.sol\";\nimport {ERC721Mintable} from \"openzeppelin-solidity/contracts/token/ERC721/ERC721Mintable.sol\";\nimport {ECDSA} from \"openzeppelin-solidity/contracts/cryptography/ECDSA.sol\";\n\n/**\n * Manage the creation and storage of tickets.\n */\ncontract TicketWallet is ERC721Full(\"Ticket wallet\", \"PLNR-WALLET\"), ERC721Mintable {\n\n  /**\n   * Ticket lifecycle\n   */\n  enum TicketState {Paid, Fulfilled, Cancelled}\n\n  /**\n   * Ensure the given message sender is the owner or retailer of the token\n   */\n  modifier onlyRetailerOrOwnerOf(uint256 _ticketId) {\n    require(tickets[_ticketId].retailer == msg.sender || ownerOf(_ticketId) == msg.sender, \"Must be owner or retailer\");\n    _;\n  }\n\n  /**\n   * Ensure the given message sender is the retailer of the token\n   */\n  modifier onlyRetailerOf(uint256 _ticketId) {\n    require(tickets[_ticketId].retailer == msg.sender, \"Must be retailer\");\n    _;\n  }\n\n  /**\n   * Ticket information\n   */\n  struct Ticket {\n    string description;\n    uint price;\n    TicketState state;\n    string fulfilmentURI;\n    address retailer;\n  }\n\n  /**\n   * Fulfilment queues\n   */\n  mapping(address => uint[]) internal fulfilment;\n\n  /**\n   * Ticket storage\n   */\n  Ticket[] internal tickets;\n\n  /**\n   * Add a ticket to the contract. \n   *\n   * This function will ensure the price, expiry time and payload were created by an authorised retailer, create the\n   * ticket and store it in the contract storage.\n   */\n  function createTicket(\n    string memory _description,\n    string memory _itemUrl,\n    uint _expiry,\n    address payable _retailer,\n    bytes memory _signature\n  ) \n    public \n    payable \n    returns (uint) \n  {\n    bytes32 _expectedHash = keccak256(abi.encodePacked(_itemUrl, \"_\", msg.value, \"_\", _expiry));\n    bytes32 _expectedSignature = keccak256(abi.encodePacked(\"\\x19Ethereum Signed Message:\\n32\", _expectedHash));\n\n    require(ECDSA.recover(_expectedSignature, _signature) == _retailer, \"Invalid signature\");\n    require(_expiry > now, \"Offer has expired\");\n\n    Ticket memory _ticket = Ticket({\n      description: _description,\n      price: msg.value,\n      state: TicketState.Paid,\n      fulfilmentURI: \"\",\n      retailer: _retailer\n    });\n\n    uint _ticketId = tickets.push(_ticket) - 1;\n\n    _mint(msg.sender, _ticketId);\n    _setTokenURI(_ticketId, _itemUrl);\n    _retailer.transfer(msg.value);\n\n    fulfilment[_retailer].push(_ticketId);\n\n    return _ticketId;\n  }\n\n  /**\n   * Fulfil the ticket and attach the fulfilment URL\n   */\n  function fulfilTicket(uint _ticketId, string memory _fulfilmentURI) public onlyRetailerOf(_ticketId) {\n    uint _indexInFulfilmentQueue = getQueueIndex(_ticketId);\n\n    require(_indexInFulfilmentQueue != fulfilment[msg.sender].length, \"Ticket must be queued for fulfilment\");\n    require(tickets[_ticketId].state == TicketState.Paid, \"Ticket state must be Paid\");\n\n    tickets[_ticketId].state = TicketState.Fulfilled;\n    tickets[_ticketId].fulfilmentURI = _fulfilmentURI;\n\n    removeFromQueue(_indexInFulfilmentQueue);\n  }\n\n  /**\n   * Get the index of the ticket in the queue\n   */\n  function getQueueIndex(uint _ticketId) private view returns (uint) {\n    for (uint i = 0; i < fulfilment[msg.sender].length; i++) {\n      if (fulfilment[msg.sender][i] == _ticketId) {\n        return i;\n      }\n    }\n\n    return fulfilment[msg.sender].length;\n  }\n\n  /**\n   * Remove the item from the fulfilment queue of the sender\n   */\n  function removeFromQueue(uint index) private {\n    if (index >= fulfilment[msg.sender].length) return;\n\n    fulfilment[msg.sender][index] = fulfilment[msg.sender][fulfilment[msg.sender].length - 1];\n\n    delete fulfilment[msg.sender][fulfilment[msg.sender].length - 1];\n    fulfilment[msg.sender].length--;\n  }\n\n  /**\n   * Cancel the ticket\n   */\n  function cancelTicket(uint _ticketId) public onlyRetailerOf(_ticketId) {\n    require(tickets[_ticketId].state == TicketState.Fulfilled, \"Ticket state must be fulfilled\");\n\n    tickets[_ticketId].state = TicketState.Cancelled;\n    tickets[_ticketId].fulfilmentURI = \"\";\n  }\n\n  /**\n   * Return the description of the ticket \n   */\n  function getTicketDescriptionById(uint _ticketId) public onlyRetailerOrOwnerOf(_ticketId) view returns (string memory) {\n    return tickets[_ticketId].description;\n  }\n\n  /**\n   * Return the state of the ticket\n   */\n  function getTicketStateById(uint _ticketId) public onlyRetailerOrOwnerOf(_ticketId) view returns (TicketState) {\n    return tickets[_ticketId].state;\n  }\n  \n  /**\n   * Return the URI containing the fulfilment information\n   */\n  function getFulfilmentURIById(uint _ticketId) public onlyRetailerOrOwnerOf(_ticketId) view returns (string memory) {\n    require(tickets[_ticketId].state == TicketState.Fulfilled, \"Ticket state must be fulfilled\");\n\n    return tickets[_ticketId].fulfilmentURI;\n  }\n\n  /**\n   * Get fulfilment queue of retailer\n   */\n  function getFulfilmentQueue() public view returns (uint[] memory) {\n    return fulfilment[msg.sender];\n  }\n\n  /**\n   * Get msg.sender token IDs\n   */\n  function getOwnedTokens() public view returns (uint[] memory) {\n    return _tokensOfOwner(msg.sender);\n  }\n\n\n}\n",
  "sourcePath": "/home/linus/Work/planar/ticket-wallet/contracts/TicketWallet.sol",
  "compiler": {
    "name": "solc",
    "version": "0.5.0+commit.1d4f565a.Emscripten.clang"
  },
  "schemaVersion": "3.0.1",
  "updatedAt": "2019-01-15T07:52:40.024Z",
  "devdoc": {
    "methods": {
      "approve(address,uint256)": {
        "details": "Approves another address to transfer the given token ID The zero address indicates there is no approved address. There can only be one approved address per token at a given time. Can only be called by the token owner or an approved operator.",
        "params": {
          "to": "address to be approved for the given token ID",
          "tokenId": "uint256 ID of the token to be approved"
        }
      },
      "balanceOf(address)": {
        "details": "Gets the balance of the specified address",
        "params": {
          "owner": "address to query the balance of"
        },
        "return": "uint256 representing the amount owned by the passed address"
      },
      "getApproved(uint256)": {
        "details": "Gets the approved address for a token ID, or zero if no address set Reverts if the token ID does not exist.",
        "params": {
          "tokenId": "uint256 ID of the token to query the approval of"
        },
        "return": "address currently approved for the given token ID"
      },
      "isApprovedForAll(address,address)": {
        "details": "Tells whether an operator is approved by a given owner",
        "params": {
          "operator": "operator address which you want to query the approval of",
          "owner": "owner address which you want to query the approval of"
        },
        "return": "bool whether the given operator is approved by the given owner"
      },
      "mint(address,uint256)": {
        "details": "Function to mint tokens",
        "params": {
          "to": "The address that will receive the minted tokens.",
          "tokenId": "The token id to mint."
        },
        "return": "A boolean that indicates if the operation was successful."
      },
      "name()": {
        "details": "Gets the token name",
        "return": "string representing the token name"
      },
      "ownerOf(uint256)": {
        "details": "Gets the owner of the specified token ID",
        "params": {
          "tokenId": "uint256 ID of the token to query the owner of"
        },
        "return": "owner address currently marked as the owner of the given token ID"
      },
      "safeTransferFrom(address,address,uint256)": {
        "details": "Safely transfers the ownership of a given token ID to another address If the target address is a contract, it must implement `onERC721Received`, which is called upon a safe transfer, and return the magic value `bytes4(keccak256(\"onERC721Received(address,address,uint256,bytes)\"))`; otherwise, the transfer is reverted.     * Requires the msg sender to be the owner, approved, or operator",
        "params": {
          "from": "current owner of the token",
          "to": "address to receive the ownership of the given token ID",
          "tokenId": "uint256 ID of the token to be transferred"
        }
      },
      "safeTransferFrom(address,address,uint256,bytes)": {
        "details": "Safely transfers the ownership of a given token ID to another address If the target address is a contract, it must implement `onERC721Received`, which is called upon a safe transfer, and return the magic value `bytes4(keccak256(\"onERC721Received(address,address,uint256,bytes)\"))`; otherwise, the transfer is reverted. Requires the msg sender to be the owner, approved, or operator",
        "params": {
          "_data": "bytes data to send along with a safe transfer check",
          "from": "current owner of the token",
          "to": "address to receive the ownership of the given token ID",
          "tokenId": "uint256 ID of the token to be transferred"
        }
      },
      "setApprovalForAll(address,bool)": {
        "details": "Sets or unsets the approval of a given operator An operator is allowed to transfer all tokens of the sender on their behalf",
        "params": {
          "approved": "representing the status of the approval to be set",
          "to": "operator address to set the approval"
        }
      },
      "supportsInterface(bytes4)": {
        "details": "implement supportsInterface(bytes4) using a lookup table"
      },
      "symbol()": {
        "details": "Gets the token symbol",
        "return": "string representing the token symbol"
      },
      "tokenByIndex(uint256)": {
        "details": "Gets the token ID at a given index of all the tokens in this contract Reverts if the index is greater or equal to the total number of tokens",
        "params": {
          "index": "uint256 representing the index to be accessed of the tokens list"
        },
        "return": "uint256 token ID at the given index of the tokens list"
      },
      "tokenOfOwnerByIndex(address,uint256)": {
        "details": "Gets the token ID at a given index of the tokens list of the requested owner",
        "params": {
          "index": "uint256 representing the index to be accessed of the requested tokens list",
          "owner": "address owning the tokens list to be accessed"
        },
        "return": "uint256 token ID at the given index of the tokens list owned by the requested address"
      },
      "tokenURI(uint256)": {
        "details": "Returns an URI for a given token ID Throws if the token ID does not exist. May return an empty string.",
        "params": {
          "tokenId": "uint256 ID of the token to query"
        }
      },
      "totalSupply()": {
        "details": "Gets the total amount of tokens stored by the contract",
        "return": "uint256 representing the total amount of tokens"
      },
      "transferFrom(address,address,uint256)": {
        "details": "Transfers the ownership of a given token ID to another address Usage of this method is discouraged, use `safeTransferFrom` whenever possible Requires the msg sender to be the owner, approved, or operator",
        "params": {
          "from": "current owner of the token",
          "to": "address to receive the ownership of the given token ID",
          "tokenId": "uint256 ID of the token to be transferred"
        }
      }
    }
  },
  "userdoc": {
    "methods": {
      "cancelTicket(uint256)": {
        "notice": "Cancel the ticket"
      },
      "createTicket(string,string,uint256,address,bytes)": {
        "notice": "Add a ticket to the contract.    * This function will ensure the price, expiry time and payload were created by an authorised retailer, create the ticket and store it in the contract storage."
      },
      "fulfilTicket(uint256,string)": {
        "notice": "Fulfil the ticket and attach the fulfilment URL"
      },
      "getFulfilmentQueue()": {
        "notice": "Get fulfilment queue of retailer"
      },
      "getFulfilmentURIById(uint256)": {
        "notice": "Return the URI containing the fulfilment information"
      },
      "getOwnedTokens()": {
        "notice": "Get msg.sender token IDs"
      },
      "getTicketDescriptionById(uint256)": {
        "notice": "Return the description of the ticket "
      },
      "getTicketStateById(uint256)": {
        "notice": "Return the state of the ticket"
      }
    },
    "notice": "Manage the creation and storage of tickets."
  }
}