{
  "contractName": "TicketWallet",
  "abi": [
    {
      "constant": true,
      "inputs": [],
      "name": "name",
      "outputs": [
        {
          "name": "",
          "type": "string"
        }
      ],
      "payable": false,
      "stateMutability": "view",
      "type": "function"
    },
    {
      "constant": true,
      "inputs": [
        {
          "name": "_tokenId",
          "type": "uint256"
        }
      ],
      "name": "getApproved",
      "outputs": [
        {
          "name": "",
          "type": "address"
        }
      ],
      "payable": false,
      "stateMutability": "view",
      "type": "function"
    },
    {
      "constant": false,
      "inputs": [
        {
          "name": "_to",
          "type": "address"
        },
        {
          "name": "_tokenId",
          "type": "uint256"
        }
      ],
      "name": "approve",
      "outputs": [],
      "payable": false,
      "stateMutability": "nonpayable",
      "type": "function"
    },
    {
      "constant": true,
      "inputs": [],
      "name": "totalSupply",
      "outputs": [
        {
          "name": "",
          "type": "uint256"
        }
      ],
      "payable": false,
      "stateMutability": "view",
      "type": "function"
    },
    {
      "constant": false,
      "inputs": [
        {
          "name": "_from",
          "type": "address"
        },
        {
          "name": "_to",
          "type": "address"
        },
        {
          "name": "_tokenId",
          "type": "uint256"
        }
      ],
      "name": "transferFrom",
      "outputs": [],
      "payable": false,
      "stateMutability": "nonpayable",
      "type": "function"
    },
    {
      "constant": true,
      "inputs": [
        {
          "name": "_owner",
          "type": "address"
        },
        {
          "name": "_index",
          "type": "uint256"
        }
      ],
      "name": "tokenOfOwnerByIndex",
      "outputs": [
        {
          "name": "",
          "type": "uint256"
        }
      ],
      "payable": false,
      "stateMutability": "view",
      "type": "function"
    },
    {
      "constant": true,
      "inputs": [],
      "name": "retailers",
      "outputs": [
        {
          "name": "",
          "type": "address"
        }
      ],
      "payable": false,
      "stateMutability": "view",
      "type": "function"
    },
    {
      "constant": false,
      "inputs": [],
      "name": "unpause",
      "outputs": [],
      "payable": false,
      "stateMutability": "nonpayable",
      "type": "function"
    },
    {
      "constant": false,
      "inputs": [
        {
          "name": "_from",
          "type": "address"
        },
        {
          "name": "_to",
          "type": "address"
        },
        {
          "name": "_tokenId",
          "type": "uint256"
        }
      ],
      "name": "safeTransferFrom",
      "outputs": [],
      "payable": false,
      "stateMutability": "nonpayable",
      "type": "function"
    },
    {
      "constant": true,
      "inputs": [
        {
          "name": "_tokenId",
          "type": "uint256"
        }
      ],
      "name": "exists",
      "outputs": [
        {
          "name": "",
          "type": "bool"
        }
      ],
      "payable": false,
      "stateMutability": "view",
      "type": "function"
    },
    {
      "constant": true,
      "inputs": [
        {
          "name": "_index",
          "type": "uint256"
        }
      ],
      "name": "tokenByIndex",
      "outputs": [
        {
          "name": "",
          "type": "uint256"
        }
      ],
      "payable": false,
      "stateMutability": "view",
      "type": "function"
    },
    {
      "constant": true,
      "inputs": [
        {
          "name": "",
          "type": "uint256"
        }
      ],
      "name": "tickets",
      "outputs": [
        {
          "name": "description",
          "type": "bytes32"
        },
        {
          "name": "price",
          "type": "uint256"
        },
        {
          "name": "payloadUrl",
          "type": "bytes32"
        },
        {
          "name": "state",
          "type": "uint8"
        },
        {
          "name": "fulfilmentUrl",
          "type": "bytes32"
        },
        {
          "name": "retailerId",
          "type": "uint256"
        }
      ],
      "payable": false,
      "stateMutability": "view",
      "type": "function"
    },
    {
      "constant": true,
      "inputs": [],
      "name": "paused",
      "outputs": [
        {
          "name": "",
          "type": "bool"
        }
      ],
      "payable": false,
      "stateMutability": "view",
      "type": "function"
    },
    {
      "constant": true,
      "inputs": [
        {
          "name": "_tokenId",
          "type": "uint256"
        }
      ],
      "name": "ownerOf",
      "outputs": [
        {
          "name": "",
          "type": "address"
        }
      ],
      "payable": false,
      "stateMutability": "view",
      "type": "function"
    },
    {
      "constant": true,
      "inputs": [
        {
          "name": "_owner",
          "type": "address"
        }
      ],
      "name": "balanceOf",
      "outputs": [
        {
          "name": "",
          "type": "uint256"
        }
      ],
      "payable": false,
      "stateMutability": "view",
      "type": "function"
    },
    {
      "constant": false,
      "inputs": [],
      "name": "renounceOwnership",
      "outputs": [],
      "payable": false,
      "stateMutability": "nonpayable",
      "type": "function"
    },
    {
      "constant": false,
      "inputs": [],
      "name": "pause",
      "outputs": [],
      "payable": false,
      "stateMutability": "nonpayable",
      "type": "function"
    },
    {
      "constant": true,
      "inputs": [],
      "name": "owner",
      "outputs": [
        {
          "name": "",
          "type": "address"
        }
      ],
      "payable": false,
      "stateMutability": "view",
      "type": "function"
    },
    {
      "constant": true,
      "inputs": [],
      "name": "symbol",
      "outputs": [
        {
          "name": "",
          "type": "string"
        }
      ],
      "payable": false,
      "stateMutability": "view",
      "type": "function"
    },
    {
      "constant": false,
      "inputs": [
        {
          "name": "_to",
          "type": "address"
        },
        {
          "name": "_approved",
          "type": "bool"
        }
      ],
      "name": "setApprovalForAll",
      "outputs": [],
      "payable": false,
      "stateMutability": "nonpayable",
      "type": "function"
    },
    {
      "constant": false,
      "inputs": [
        {
          "name": "_from",
          "type": "address"
        },
        {
          "name": "_to",
          "type": "address"
        },
        {
          "name": "_tokenId",
          "type": "uint256"
        },
        {
          "name": "_data",
          "type": "bytes"
        }
      ],
      "name": "safeTransferFrom",
      "outputs": [],
      "payable": false,
      "stateMutability": "nonpayable",
      "type": "function"
    },
    {
      "constant": true,
      "inputs": [
        {
          "name": "_tokenId",
          "type": "uint256"
        }
      ],
      "name": "tokenURI",
      "outputs": [
        {
          "name": "",
          "type": "string"
        }
      ],
      "payable": false,
      "stateMutability": "view",
      "type": "function"
    },
    {
      "constant": true,
      "inputs": [
        {
          "name": "_owner",
          "type": "address"
        },
        {
          "name": "_operator",
          "type": "address"
        }
      ],
      "name": "isApprovedForAll",
      "outputs": [
        {
          "name": "",
          "type": "bool"
        }
      ],
      "payable": false,
      "stateMutability": "view",
      "type": "function"
    },
    {
      "constant": false,
      "inputs": [
        {
          "name": "_newOwner",
          "type": "address"
        }
      ],
      "name": "transferOwnership",
      "outputs": [],
      "payable": false,
      "stateMutability": "nonpayable",
      "type": "function"
    },
    {
      "inputs": [
        {
          "name": "_retailers",
          "type": "address"
        }
      ],
      "payable": false,
      "stateMutability": "nonpayable",
      "type": "constructor"
    },
    {
      "anonymous": false,
      "inputs": [],
      "name": "Pause",
      "type": "event"
    },
    {
      "anonymous": false,
      "inputs": [],
      "name": "Unpause",
      "type": "event"
    },
    {
      "anonymous": false,
      "inputs": [
        {
          "indexed": true,
          "name": "previousOwner",
          "type": "address"
        }
      ],
      "name": "OwnershipRenounced",
      "type": "event"
    },
    {
      "anonymous": false,
      "inputs": [
        {
          "indexed": true,
          "name": "previousOwner",
          "type": "address"
        },
        {
          "indexed": true,
          "name": "newOwner",
          "type": "address"
        }
      ],
      "name": "OwnershipTransferred",
      "type": "event"
    },
    {
      "anonymous": false,
      "inputs": [
        {
          "indexed": true,
          "name": "_from",
          "type": "address"
        },
        {
          "indexed": true,
          "name": "_to",
          "type": "address"
        },
        {
          "indexed": false,
          "name": "_tokenId",
          "type": "uint256"
        }
      ],
      "name": "Transfer",
      "type": "event"
    },
    {
      "anonymous": false,
      "inputs": [
        {
          "indexed": true,
          "name": "_owner",
          "type": "address"
        },
        {
          "indexed": true,
          "name": "_approved",
          "type": "address"
        },
        {
          "indexed": false,
          "name": "_tokenId",
          "type": "uint256"
        }
      ],
      "name": "Approval",
      "type": "event"
    },
    {
      "anonymous": false,
      "inputs": [
        {
          "indexed": true,
          "name": "_owner",
          "type": "address"
        },
        {
          "indexed": true,
          "name": "_operator",
          "type": "address"
        },
        {
          "indexed": false,
          "name": "_approved",
          "type": "bool"
        }
      ],
      "name": "ApprovalForAll",
      "type": "event"
    },
    {
      "constant": false,
      "inputs": [
        {
          "name": "_description",
          "type": "bytes32"
        },
        {
          "name": "_expiry",
          "type": "uint256"
        },
        {
          "name": "_price",
          "type": "uint256"
        },
        {
          "name": "_retailerId",
          "type": "uint256"
        },
        {
          "name": "_payloadUrl",
          "type": "bytes32"
        },
        {
          "name": "_signature",
          "type": "string"
        }
      ],
      "name": "createTicket",
      "outputs": [
        {
          "name": "",
          "type": "uint256"
        }
      ],
      "payable": true,
      "stateMutability": "payable",
      "type": "function"
    },
    {
      "constant": false,
      "inputs": [
        {
          "name": "_ticketId",
          "type": "uint256"
        },
        {
          "name": "_fulfilmentUrl",
          "type": "bytes32"
        }
      ],
      "name": "fulfilTicket",
      "outputs": [],
      "payable": false,
      "stateMutability": "nonpayable",
      "type": "function"
    },
    {
      "constant": true,
      "inputs": [
        {
          "name": "_ticketId",
          "type": "uint256"
        }
      ],
      "name": "getQueueIndex",
      "outputs": [
        {
          "name": "",
          "type": "uint256"
        }
      ],
      "payable": false,
      "stateMutability": "view",
      "type": "function"
    },
    {
      "constant": false,
      "inputs": [
        {
          "name": "_ticketId",
          "type": "uint256"
        }
      ],
      "name": "cancelTicket",
      "outputs": [],
      "payable": false,
      "stateMutability": "nonpayable",
      "type": "function"
    },
    {
      "constant": false,
      "inputs": [
        {
          "name": "_newRetailers",
          "type": "address"
        }
      ],
      "name": "setRetailerAddress",
      "outputs": [],
      "payable": false,
      "stateMutability": "nonpayable",
      "type": "function"
    },
    {
      "constant": true,
      "inputs": [
        {
          "name": "_ticketId",
          "type": "uint256"
        }
      ],
      "name": "getTicketDescriptionById",
      "outputs": [
        {
          "name": "",
          "type": "bytes32"
        }
      ],
      "payable": false,
      "stateMutability": "view",
      "type": "function"
    },
    {
      "constant": true,
      "inputs": [
        {
          "name": "_ticketId",
          "type": "uint256"
        }
      ],
      "name": "getTicketPayloadUrlById",
      "outputs": [
        {
          "name": "",
          "type": "bytes32"
        }
      ],
      "payable": false,
      "stateMutability": "view",
      "type": "function"
    },
    {
      "constant": true,
      "inputs": [
        {
          "name": "_ticketId",
          "type": "uint256"
        }
      ],
      "name": "getTicketStateById",
      "outputs": [
        {
          "name": "",
          "type": "uint8"
        }
      ],
      "payable": false,
      "stateMutability": "view",
      "type": "function"
    },
    {
      "constant": true,
      "inputs": [
        {
          "name": "_ticketId",
          "type": "uint256"
        }
      ],
      "name": "getFulfilmentUrlById",
      "outputs": [
        {
          "name": "",
          "type": "bytes32"
        }
      ],
      "payable": false,
      "stateMutability": "view",
      "type": "function"
    },
    {
      "constant": true,
      "inputs": [],
      "name": "getFulfilmentQueue",
      "outputs": [
        {
          "name": "",
          "type": "uint256[]"
        }
      ],
      "payable": false,
      "stateMutability": "view",
      "type": "function"
    }
  ],
  "bytecode": "0x6080604052600b805460a060020a60ff02191690553480156200002157600080fd5b50604051602080620026ba83398101604081815291518282018352600d82527f5469636b65742077616c6c65740000000000000000000000000000000000000060208084019182528451808601909552600b85527f504c4e522d57414c4c4554000000000000000000000000000000000000000000908501528251919391620000ad91600491620000fb565b508051620000c3906005906020840190620000fb565b5050600b805433600160a060020a031991821617909155600e8054909116600160a060020a03939093169290921790915550620001a0565b828054600181600116156101000203166002900490600052602060002090601f016020900481019282601f106200013e57805160ff19168380011785556200016e565b828001600101855582156200016e579182015b828111156200016e57825182559160200191906001019062000151565b506200017c92915062000180565b5090565b6200019d91905b808211156200017c576000815560010162000187565b90565b61250a80620001b06000396000f3006080604052600436106101ab5763ffffffff7c010000000000000000000000000000000000000000000000000000000060003504166306fdde0381146101b0578063081812fc1461023a578063095ea7b31461026e57806318160ddd1461029457806323b872dd146102bb5780632f745c59146102e55780633cafc8a2146103095780633e9ef84d1461031e5780633f4ba83a1461037d57806342842e0e1461039257806346eb3a2d146103bc5780634f558e79146103d45780634f6ccce71461040057806350b44712146104185780635c975abb1461047b5780635df336f4146104905780636352211e146104b157806370a08231146104c9578063715018a6146104ea57806380275a75146104ff5780638456cb59146105175780638a34d7571461052c5780638da5cb5b1461059157806395d89b41146105a65780639c9615fb146105bb578063a22cb465146105d3578063b88d4fde146105f9578063c87b56dd14610668578063cbed754614610680578063e985e9c5146106bc578063ee355b1f146106e3578063f2640abc146106fb578063f2fde38b14610713578063f734096314610734575b600080fd5b3480156101bc57600080fd5b506101c561074f565b6040805160208082528351818301528351919283929083019185019080838360005b838110156101ff5781810151838201526020016101e7565b50505050905090810190601f16801561022c5780820380516001836020036101000a031916815260200191505b509250505060405180910390f35b34801561024657600080fd5b506102526004356107e6565b60408051600160a060020a039092168252519081900360200190f35b34801561027a57600080fd5b50610292600160a060020a0360043516602435610801565b005b3480156102a057600080fd5b506102a96108e6565b60408051918252519081900360200190f35b3480156102c757600080fd5b50610292600160a060020a03600435811690602435166044356108ec565b3480156102f157600080fd5b506102a9600160a060020a036004351660243561099b565b34801561031557600080fd5b506102526109e8565b604080516020600460a43581810135601f81018490048402850184019095528484526102a99482359460248035956044359560643595608435953695929460c49492019181908401838280828437509497506109f79650505050505050565b34801561038957600080fd5b50610292610f4b565b34801561039e57600080fd5b50610292600160a060020a0360043581169060243516604435610fd4565b3480156103c857600080fd5b506102a960043561100c565b3480156103e057600080fd5b506103ec6004356110d0565b604080519115158252519081900360200190f35b34801561040c57600080fd5b506102a96004356110f3565b34801561042457600080fd5b50610430600435611128565b60408051878152602081018790529081018590526060810184600281111561045457fe5b60ff1681526020810193909352506040808301919091525190819003606001945092505050f35b34801561048757600080fd5b506103ec611172565b34801561049c57600080fd5b50610292600160a060020a0360043516611193565b3480156104bd57600080fd5b506102526004356111cc565b3480156104d557600080fd5b506102a9600160a060020a03600435166111f6565b3480156104f657600080fd5b50610292611229565b34801561050b57600080fd5b506102a960043561128a565b34801561052357600080fd5b50610292611337565b34801561053857600080fd5b506105416113d6565b60408051602080825283518183015283519192839290830191858101910280838360005b8381101561057d578181015183820152602001610565565b505050509050019250505060405180910390f35b34801561059d57600080fd5b50610252611436565b3480156105b257600080fd5b506101c5611445565b3480156105c757600080fd5b506102a96004356114a6565b3480156105df57600080fd5b50610292600160a060020a036004351660243515156115da565b34801561060557600080fd5b50604080516020601f60643560048181013592830184900484028501840190955281845261029294600160a060020a03813581169560248035909216956044359536956084940191819084018382808284375094975061165e9650505050505050565b34801561067457600080fd5b506101c560043561169d565b34801561068c57600080fd5b50610698600435611752565b604051808260028111156106a857fe5b60ff16815260200191505060405180910390f35b3480156106c857600080fd5b506103ec600160a060020a0360043581169060243516611803565b3480156106ef57600080fd5b50610292600435611831565b34801561070757600080fd5b506102a9600435611999565b34801561071f57600080fd5b50610292600160a060020a0360043516611a0a565b34801561074057600080fd5b50610292600435602435611a2d565b60048054604080516020601f60026000196101006001881615020190951694909404938401819004810282018101909252828152606093909290918301828280156107db5780601f106107b0576101008083540402835291602001916107db565b820191906000526020600020905b8154815290600101906020018083116107be57829003601f168201915b505050505090505b90565b600090815260016020526040902054600160a060020a031690565b600061080c826111cc565b9050600160a060020a03838116908216141561082757600080fd5b33600160a060020a038216148061084357506108438133611803565b151561084e57600080fd5b6000610859836107e6565b600160a060020a03161415806108775750600160a060020a03831615155b156108e1576000828152600160209081526040918290208054600160a060020a031916600160a060020a03878116918217909255835186815293519093918516927f8c5be1e5ebec7d5bd14f71427d1e84f3dd0314c0f7b2291e5b200ac8c7c3b925928290030190a35b505050565b60085490565b806108f73382611c33565b151561090257600080fd5b600160a060020a038416151561091757600080fd5b600160a060020a038316151561092c57600080fd5b6109368483611c92565b6109408483611d33565b61094a8383611e6c565b82600160a060020a031684600160a060020a03167fddf252ad1be2c89b69c2b068fc378daa952ba7f163c4a11628f55a4df523b3ef846040518082815260200191505060405180910390a350505050565b60006109a6836111f6565b82106109b157600080fd5b600160a060020a03831660009081526006602052604090208054839081106109d557fe5b9060005260206000200154905092915050565b600e54600160a060020a031681565b6000806000806000610a0761244b565b6040805160208082018b90527f5f00000000000000000000000000000000000000000000000000000000000000828401819052604183018e9052606183015260628083018f9052835180840390910181526082909201928390528151600093918291908401908083835b60208310610a905780518252601f199092019160209182019101610a71565b51815160209384036101000a6000190180199092169116179052604080519290940182900382207f19457468657265756d205369676e6564204d6573736167653a0a33320000000083830152603c80840182905285518085039091018152605c909301948590528251909c509195509293508392850191508083835b60208310610b2b5780518252601f199092019160209182019101610b0c565b6001836020036101000a03801982511681845116808217855250505050505090500191505060405180910390209450610b638a611eb5565b6040517f1052506f00000000000000000000000000000000000000000000000000000000815260048101878152600160a060020a03831660448301526060602483019081528b5160648401528b5193975073__ECTools_______________________________93631052506f938a938e938b9391929091608490910190602086019080838360005b83811015610c03578181015183820152602001610beb565b50505050905090810190601f168015610c305780820380516001836020036101000a031916815260200191505b5094505050505060206040518083038186803b158015610c4f57600080fd5b505af4158015610c63573d6000803e3d6000fd5b505050506040513d6020811015610c7957600080fd5b50511515610cd1576040805160e560020a62461bcd02815260206004820152601160248201527f496e76616c6964207369676e6174757265000000000000000000000000000000604482015290519081900360640190fd5b428c11610d28576040805160e560020a62461bcd02815260206004820152601160248201527f4f66666572206861732065787069726564000000000000000000000000000000604482015290519081900360640190fd5b610d318a611f4d565b8b019250348314610db2576040805160e560020a62461bcd02815260206004820152603d60248201527f5472616e73616374696f6e2076616c7565206d75737420636f7665722074696360448201527f6b657420707269636520616e64207472616e73616374696f6e20666565000000606482015290519081900360840190fd5b6040805160c0810182528e8152602081018581529181018b81526000606083018181526080840182905260a084018f9052600d8054600180820180845592909452855160069091027fd7b6990105719101dabeb77144f2a3385c8033acd3af97e9423a695e81ad1eb5810191825596517fd7b6990105719101dabeb77144f2a3385c8033acd3af97e9423a695e81ad1eb688015593517fd7b6990105719101dabeb77144f2a3385c8033acd3af97e9423a695e81ad1eb787015590517fd7b6990105719101dabeb77144f2a3385c8033acd3af97e9423a695e81ad1eb89095018054949750919490938793929060ff191686836002811115610eb057fe5b02179055506080820151600482015560a090910151600590910155039050610ed83382611fb3565b604051600160a060020a0385169084156108fc029085906000818181858888f19350505050158015610f0e573d6000803e3d6000fd5b50600160a060020a0384166000908152600c6020908152604082208054600181018255908352912001819055955050505050509695505050505050565b600b54600160a060020a03163314610f6257600080fd5b600b5474010000000000000000000000000000000000000000900460ff161515610f8b57600080fd5b600b805474ff0000000000000000000000000000000000000000191690556040517f7805862f689e2f13df9f062ff482ad3ad112aca9e0847911ed832e158c525b3390600090a1565b80610fdf3382611c33565b1515610fea57600080fd5b611006848484602060405190810160405280600081525061165e565b50505050565b600081600061103a600d8381548110151561102357fe5b906000526020600020906006020160050154611eb5565b9050600160a060020a038116331480611063575033611058836111cc565b600160a060020a0316145b15156110a7576040805160e560020a62461bcd02815260206004820152601960248201526000805160206124bf833981519152604482015290519081900360640190fd5b600d8054859081106110b557fe5b90600052602060002090600602016002015492505050919050565b600081815260208190526040902054600160a060020a0316801515905b50919050565b60006110fd6108e6565b821061110857600080fd5b600880548390811061111657fe5b90600052602060002001549050919050565b600d80548290811061113657fe5b60009182526020909120600690910201805460018201546002830154600384015460048501546005909501549395509193909260ff9092169186565b600b5474010000000000000000000000000000000000000000900460ff1681565b600b54600160a060020a031633146111aa57600080fd5b600e8054600160a060020a031916600160a060020a0392909216919091179055565b600081815260208190526040812054600160a060020a03168015156111f057600080fd5b92915050565b6000600160a060020a038216151561120d57600080fd5b50600160a060020a031660009081526002602052604090205490565b600b54600160a060020a0316331461124057600080fd5b600b54604051600160a060020a03909116907ff8df31144d9c2f0f6b59d69b8b98abd5459d07f2742c4df920b25aae33c6482090600090a2600b8054600160a060020a0319169055565b60008160006112a1600d8381548110151561102357fe5b9050600160a060020a0381163314806112ca5750336112bf836111cc565b600160a060020a0316145b151561130e576040805160e560020a62461bcd02815260206004820152601960248201526000805160206124bf833981519152604482015290519081900360640190fd5b600d80548590811061131c57fe5b90600052602060002090600602016000015492505050919050565b600b54600160a060020a0316331461134e57600080fd5b600b5474010000000000000000000000000000000000000000900460ff161561137657600080fd5b600b805474ff00000000000000000000000000000000000000001916740100000000000000000000000000000000000000001790556040517f6985a02210a168e66602d3235cb6db0e70f92b3ba4d376a33c0f3d9434bff62590600090a1565b336000908152600c60209081526040918290208054835181840281018401909452808452606093928301828280156107db57602002820191906000526020600020905b815481526020019060010190808311611419575050505050905090565b600b54600160a060020a031681565b60058054604080516020601f60026000196101006001881615020190951694909404938401819004810282018101909252828152606093909290918301828280156107db5780601f106107b0576101008083540402835291602001916107db565b60008160006114bd600d8381548110151561102357fe5b9050600160a060020a0381163314806114e65750336114db836111cc565b600160a060020a0316145b151561152a576040805160e560020a62461bcd02815260206004820152601960248201526000805160206124bf833981519152604482015290519081900360640190fd5b6001600d80548690811061153a57fe5b600091825260209091206003600690920201015460ff16600281111561155c57fe5b146115b1576040805160e560020a62461bcd02815260206004820152601e60248201527f5469636b6574207374617465206d7573742062652066756c66696c6c65640000604482015290519081900360640190fd5b600d8054859081106115bf57fe5b90600052602060002090600602016004015492505050919050565b600160a060020a0382163314156115f057600080fd5b336000818152600360209081526040808320600160a060020a03871680855290835292819020805460ff1916861515908117909155815190815290519293927f17307eab39ab6107e8899845ad3d59bd9653f200f220920489ca2b5937696c31929181900390910190a35050565b816116693382611c33565b151561167457600080fd5b61167f8585856108ec565b61168b85858585612002565b151561169657600080fd5b5050505050565b60606116a8826110d0565b15156116b357600080fd5b6000828152600a602090815260409182902080548351601f6002600019610100600186161502019093169290920491820184900484028101840190945280845290918301828280156117465780601f1061171b57610100808354040283529160200191611746565b820191906000526020600020905b81548152906001019060200180831161172957829003601f168201915b50505050509050919050565b6000816000611769600d8381548110151561102357fe5b9050600160a060020a038116331480611792575033611787836111cc565b600160a060020a0316145b15156117d6576040805160e560020a62461bcd02815260206004820152601960248201526000805160206124bf833981519152604482015290519081900360640190fd5b600d8054859081106117e457fe5b600091825260209091206006909102016003015460ff16949350505050565b600160a060020a03918216600090815260036020908152604080832093909416825291909152205460ff1690565b8033600160a060020a031661184e600d8381548110151561102357fe5b600160a060020a0316146118ac576040805160e560020a62461bcd02815260206004820152601060248201527f4d7573742062652072657461696c657200000000000000000000000000000000604482015290519081900360640190fd5b6001600d8054849081106118bc57fe5b600091825260209091206003600690920201015460ff1660028111156118de57fe5b14611933576040805160e560020a62461bcd02815260206004820152601e60248201527f5469636b6574207374617465206d7573742062652066756c66696c6c65640000604482015290519081900360640190fd5b6002600d8381548110151561194457fe5b60009182526020909120600360069092020101805460ff1916600183600281111561196b57fe5b02179055506000600d8381548110151561198157fe5b60009182526020909120600460069092020101555050565b6000805b336000908152600c60205260409020548110156119f357336000908152600c602052604090208054849190839081106119d257fe5b906000526020600020015414156119eb578091506110ed565b60010161199d565b5050336000908152600c6020526040902054919050565b600b54600160a060020a03163314611a2157600080fd5b611a2a8161218b565b50565b60008233600160a060020a0316611a4c600d8381548110151561102357fe5b600160a060020a031614611aaa576040805160e560020a62461bcd02815260206004820152601060248201527f4d7573742062652072657461696c657200000000000000000000000000000000604482015290519081900360640190fd5b611ab384611999565b336000908152600c6020526040902054909250821415611b42576040805160e560020a62461bcd028152602060048201526024808201527f5469636b6574206d7573742062652071756575656420666f722066756c66696c60448201527f6d656e7400000000000000000000000000000000000000000000000000000000606482015290519081900360840190fd5b6000600d805486908110611b5257fe5b600091825260209091206003600690920201015460ff166002811115611b7457fe5b14611bc9576040805160e560020a62461bcd02815260206004820152601960248201527f5469636b6574207374617465206d757374206265205061696400000000000000604482015290519081900360640190fd5b6001600d85815481101515611bda57fe5b60009182526020909120600360069092020101805460ff19166001836002811115611c0157fe5b021790555082600d85815481101515611c1657fe5b6000918252602090912060046006909202010155611006826121fc565b600080611c3f836111cc565b905080600160a060020a031684600160a060020a03161480611c7a575083600160a060020a0316611c6f846107e6565b600160a060020a0316145b80611c8a5750611c8a8185611803565b949350505050565b81600160a060020a0316611ca5826111cc565b600160a060020a031614611cb857600080fd5b600081815260016020526040902054600160a060020a031615611d2f5760008181526001602090815260408083208054600160a060020a031916905580518481529051600160a060020a038616927f8c5be1e5ebec7d5bd14f71427d1e84f3dd0314c0f7b2291e5b200ac8c7c3b925928290030190a35b5050565b6000806000611d4285856122b6565b600084815260076020908152604080832054600160a060020a0389168452600690925290912054909350611d7d90600163ffffffff61233e16565b600160a060020a038616600090815260066020526040902080549193509083908110611da557fe5b90600052602060002001549050806006600087600160a060020a0316600160a060020a0316815260200190815260200160002084815481101515611de557fe5b6000918252602080832090910192909255600160a060020a0387168152600690915260408120805484908110611e1757fe5b6000918252602080832090910192909255600160a060020a0387168152600690915260409020805490611e4e906000198301612481565b50600093845260076020526040808520859055908452909220555050565b6000611e788383612350565b50600160a060020a039091166000908152600660209081526040808320805460018101825590845282842081018590559383526007909152902055565b600e54604080517f6352211e000000000000000000000000000000000000000000000000000000008152600481018490529051600092600160a060020a031691636352211e91602480830192602092919082900301818787803b158015611f1b57600080fd5b505af1158015611f2f573d6000803e3d6000fd5b505050506040513d6020811015611f4557600080fd5b505192915050565b600e54604080517f31952080000000000000000000000000000000000000000000000000000000008152600481018490529051600092600160a060020a031691633195208091602480830192602092919082900301818787803b158015611f1b57600080fd5b611fbd82826123d2565b600880546000838152600960205260408120829055600182018355919091527ff3f7a9fe364faab93b216da50a3214154f22a0a2b415b23a84c8169e8b636ee3015550565b60008061201785600160a060020a0316612436565b15156120265760019150612182565b84600160a060020a031663f0b9e5ba8786866040518463ffffffff167c01000000000000000000000000000000000000000000000000000000000281526004018084600160a060020a0316600160a060020a0316815260200183815260200180602001828103825283818151815260200191508051906020019080838360005b838110156120be5781810151838201526020016120a6565b50505050905090810190601f1680156120eb5780820380516001836020036101000a031916815260200191505b50945050505050602060405180830381600087803b15801561210c57600080fd5b505af1158015612120573d6000803e3d6000fd5b505050506040513d602081101561213657600080fd5b50517fffffffff0000000000000000000000000000000000000000000000000000000081167ff0b9e5ba0000000000000000000000000000000000000000000000000000000014925090505b50949350505050565b600160a060020a03811615156121a057600080fd5b600b54604051600160a060020a038084169216907f8be0079c531659141344cd1fd0a4f28419497f9722a3daafe3b4186f6b6457e090600090a3600b8054600160a060020a031916600160a060020a0392909216919091179055565b336000908152600c6020526040902054811061221757611a2a565b336000908152600c602052604090208054600019810190811061223657fe5b6000918252602080832090910154338352600c909152604090912080548390811061225d57fe5b6000918252602080832090910192909255338152600c909152604090208054600019810190811061228a57fe5b60009182526020808320909101829055338252600c905260409020805490611d2f906000198301612481565b81600160a060020a03166122c9826111cc565b600160a060020a0316146122dc57600080fd5b600160a060020a03821660009081526002602052604090205461230690600163ffffffff61233e16565b600160a060020a0390921660009081526002602090815260408083209490945591815290819052208054600160a060020a0319169055565b60008282111561234a57fe5b50900390565b600081815260208190526040902054600160a060020a03161561237257600080fd5b6000818152602081815260408083208054600160a060020a031916600160a060020a038716908117909155835260029091529020546123b290600161243e565b600160a060020a0390921660009081526002602052604090209190915550565b600160a060020a03821615156123e757600080fd5b6123f18282611e6c565b604080518281529051600160a060020a038416916000917fddf252ad1be2c89b69c2b068fc378daa952ba7f163c4a11628f55a4df523b3ef9181900360200190a35050565b6000903b1190565b818101828110156111f057fe5b6040805160c081018252600080825260208201819052918101829052906060820190815260006020820181905260409091015290565b8154818355818111156108e1576000838152602090206108e19181019083016107e391905b808211156124ba57600081556001016124a6565b509056004d757374206265206f776e6572206f722072657461696c657200000000000000a165627a7a723058201000307bbd6760b3319802b5d4eadeba579908fbdbe1b2ec0090354b44a00edd0029",
  "source": "pragma solidity ^0.4.24;\n\nimport {ERC721Token} from \"zeppelin-solidity/contracts/token/ERC721/ERC721Token.sol\";\nimport {Pausable} from \"zeppelin-solidity/contracts/lifecycle/Pausable.sol\";\nimport {Retailers} from \"./Retailers.sol\";\nimport {ECTools} from \"./ECTools.sol\";\n\n/**\n * Manage the creation and storage of tickets.\n */\ncontract TicketWallet is ERC721Token(\"Ticket wallet\", \"PLNR-WALLET\"), Pausable {\n\n  /**\n   * Ticket lifecycle\n   */\n  enum TicketState {Paid, Fulfilled, Cancelled}\n\n  /**\n   * Ensure the given message sender is the owner or retailer of the token\n   */\n  modifier onlyRetailerOrOwnerOf(uint256 _ticketId) {\n    address _retailer = getAddressByRetailerId(tickets[_ticketId].retailerId);\n\n    require(_retailer == msg.sender || ownerOf(_ticketId) == msg.sender, \"Must be owner or retailer\");\n    _;\n  }\n\n  /**\n   * Ensure the given message sender is the retailer of the token\n   */\n  modifier onlyRetailerOf(uint256 _ticketId) {\n    require(getAddressByRetailerId(tickets[_ticketId].retailerId) == msg.sender, \"Must be retailer\");\n    _;\n  }\n\n  /**\n   * Ticket information\n   */\n  struct Ticket {\n    bytes32 description;\n    uint price;\n    bytes32 payloadUrl;\n    TicketState state;\n    bytes32 fulfilmentUrl;\n    uint retailerId;\n  }\n\n  /**\n   * Fulfilment queues\n   */\n  mapping(address => uint256[]) fulfilment;\n\n  /**\n   * Ticket storage\n   */\n  Ticket[] public tickets;\n\n  /**\n   * Retailers contract address\n   */\n  address public retailers;\n\n  /**\n   * Store a reference to the ERC-721 index of authorised retailers\n   */\n  constructor(address _retailers) public {\n    retailers = _retailers;\n  }\n\n  /**\n   * Add a ticket to the contract. \n   *\n   * This function will ensure the price, expiry time and payload were created by an authorised retailer, create the\n   * ticket and store it in the contract storage.\n   */\n  function createTicket(\n    bytes32 _description,\n    uint _expiry,\n    uint _price,\n    uint _retailerId,\n    bytes32 _payloadUrl,\n    string _signature\n  ) \n    public \n    payable \n    returns (uint) \n  {\n    bytes32 _expectedHash = keccak256(abi.encodePacked(_payloadUrl, \"_\", _price, \"_\", _expiry));\n    bytes32 _expectedSignature = keccak256(abi.encodePacked(\"\\x19Ethereum Signed Message:\\n32\", _expectedHash));\n    address _retailerAddress = getAddressByRetailerId(_retailerId);\n\n    require(ECTools.isSignedBy(_expectedSignature, _signature, _retailerAddress), \"Invalid signature\");\n\n    require(_expiry > now, \"Offer has expired\");\n    uint fullPrice = _price + getTxFeeAmountByRetailerId(_retailerId);\n    require(msg.value == fullPrice, \"Transaction value must cover ticket price and transaction fee\");\n\n    Ticket memory _ticket = Ticket({\n      description: _description,\n      price: fullPrice,\n      payloadUrl: _payloadUrl,\n      state: TicketState.Paid,\n      fulfilmentUrl: \"\",\n      retailerId: _retailerId\n    });\n\n    uint256 ticketId = tickets.push(_ticket) - 1;\n\n    _mint(msg.sender, ticketId);\n    _retailerAddress.transfer(fullPrice);\n\n    fulfilment[_retailerAddress].push(ticketId);\n\n    return ticketId;\n  }\n\n  /**\n   * Fulfil the ticket and attach the fulfilment URL\n   */\n  function fulfilTicket(uint256 _ticketId, bytes32 _fulfilmentUrl) public onlyRetailerOf(_ticketId) {\n    uint _indexInFulfilmentQueue = getQueueIndex(_ticketId);\n\n    require(_indexInFulfilmentQueue != fulfilment[msg.sender].length, \"Ticket must be queued for fulfilment\");\n    require(tickets[_ticketId].state == TicketState.Paid, \"Ticket state must be Paid\");\n\n    tickets[_ticketId].state = TicketState.Fulfilled;\n    tickets[_ticketId].fulfilmentUrl = _fulfilmentUrl;\n\n    removeFromQueue(_indexInFulfilmentQueue);\n  }\n\n  /**\n   * Get the index of the ticket in the queue\n   */\n  function getQueueIndex(uint256 _ticketId) public view returns (uint) {\n    for (uint i = 0; i < fulfilment[msg.sender].length; i++) {\n      if (fulfilment[msg.sender][i] == _ticketId) {\n        return i;\n      }\n    }\n\n    return fulfilment[msg.sender].length;\n  }\n\n  /**\n   * Remove the item from the fulfilment queue of the sender\n   */\n  function removeFromQueue(uint index) private {\n    if (index >= fulfilment[msg.sender].length) return;\n\n    fulfilment[msg.sender][index] = fulfilment[msg.sender][fulfilment[msg.sender].length - 1];\n\n    delete fulfilment[msg.sender][fulfilment[msg.sender].length - 1];\n    fulfilment[msg.sender].length--;\n  }\n\n  /**\n   * Cancel the ticket\n   */\n  function cancelTicket(uint256 _ticketId) public onlyRetailerOf(_ticketId) {\n    require(tickets[_ticketId].state == TicketState.Fulfilled, \"Ticket state must be fulfilled\");\n\n    tickets[_ticketId].state = TicketState.Cancelled;\n    tickets[_ticketId].fulfilmentUrl = \"\";\n  }\n\n  /**\n   * Get Retailer's address by retailerId\n   */\n  function getAddressByRetailerId(uint _retailerId) private view returns (address) {\n    return Retailers(retailers).ownerOf(_retailerId);\n  }\n\n  /**\n   * Get Retailer's transaction fee amount by retailerId\n   */\n  function getTxFeeAmountByRetailerId(uint _retailerId) private view returns (uint) {\n    return Retailers(retailers).txFeeAmountById(_retailerId);\n  }\n\n  /**\n   * Set new address of Retailers contract\n   */\n  function setRetailerAddress(address _newRetailers) public onlyOwner {\n    retailers = _newRetailers;\n  }\n\n  /**\n   * Return the description of the ticket \n   */\n  function getTicketDescriptionById(uint256 _ticketId) public onlyRetailerOrOwnerOf(_ticketId) view returns (bytes32) {\n    return tickets[_ticketId].description;\n  }\n\n  /**\n   * Return the URL of the full ticket details\n   */\n  function getTicketPayloadUrlById(uint256 _ticketId) public onlyRetailerOrOwnerOf(_ticketId) view returns (bytes32) {\n    return tickets[_ticketId].payloadUrl;\n  }\n\n  /**\n   * Return the state of the ticket\n   */\n  function getTicketStateById(uint256 _ticketId) public onlyRetailerOrOwnerOf(_ticketId) view returns (TicketState) {\n    return tickets[_ticketId].state;\n  }\n  \n  /**\n   * Return the URL containing the fulfilment information\n   */\n  function getFulfilmentUrlById(uint256 _ticketId) public onlyRetailerOrOwnerOf(_ticketId) view returns (bytes32) {\n    require(tickets[_ticketId].state == TicketState.Fulfilled, \"Ticket state must be fulfilled\");\n\n    return tickets[_ticketId].fulfilmentUrl;\n  }\n\n  /**\n   * Get fulfilment queue of retailer\n   */\n  function getFulfilmentQueue() public view returns (uint256[]) {\n    return fulfilment[msg.sender];\n  }\n\n}\n",
  "sourcePath": "/home/linus/Work/planar/ticket-wallet/contracts/TicketWallet.sol",
  "compiler": {
    "name": "solc",
    "version": "0.4.24+commit.e67f0147.Emscripten.clang"
  },
  "schemaVersion": "2.0.1",
  "updatedAt": "2018-07-18T19:43:13.366Z"
}