{
  "contractName": "TicketWallet",
  "abi": [
    {
      "constant": true,
      "inputs": [
        {
          "name": "_interfaceId",
          "type": "bytes4"
        }
      ],
      "name": "supportsInterface",
      "outputs": [
        {
          "name": "",
          "type": "bool"
        }
      ],
      "payable": false,
      "stateMutability": "view",
      "type": "function"
    },
    {
      "constant": true,
      "inputs": [],
      "name": "name",
      "outputs": [
        {
          "name": "",
          "type": "string"
        }
      ],
      "payable": false,
      "stateMutability": "view",
      "type": "function"
    },
    {
      "constant": true,
      "inputs": [
        {
          "name": "_tokenId",
          "type": "uint256"
        }
      ],
      "name": "getApproved",
      "outputs": [
        {
          "name": "",
          "type": "address"
        }
      ],
      "payable": false,
      "stateMutability": "view",
      "type": "function"
    },
    {
      "constant": false,
      "inputs": [
        {
          "name": "_to",
          "type": "address"
        },
        {
          "name": "_tokenId",
          "type": "uint256"
        }
      ],
      "name": "approve",
      "outputs": [],
      "payable": false,
      "stateMutability": "nonpayable",
      "type": "function"
    },
    {
      "constant": true,
      "inputs": [],
      "name": "totalSupply",
      "outputs": [
        {
          "name": "",
          "type": "uint256"
        }
      ],
      "payable": false,
      "stateMutability": "view",
      "type": "function"
    },
    {
      "constant": true,
      "inputs": [],
      "name": "InterfaceId_ERC165",
      "outputs": [
        {
          "name": "",
          "type": "bytes4"
        }
      ],
      "payable": false,
      "stateMutability": "view",
      "type": "function"
    },
    {
      "constant": false,
      "inputs": [
        {
          "name": "_from",
          "type": "address"
        },
        {
          "name": "_to",
          "type": "address"
        },
        {
          "name": "_tokenId",
          "type": "uint256"
        }
      ],
      "name": "transferFrom",
      "outputs": [],
      "payable": false,
      "stateMutability": "nonpayable",
      "type": "function"
    },
    {
      "constant": true,
      "inputs": [
        {
          "name": "_owner",
          "type": "address"
        },
        {
          "name": "_index",
          "type": "uint256"
        }
      ],
      "name": "tokenOfOwnerByIndex",
      "outputs": [
        {
          "name": "",
          "type": "uint256"
        }
      ],
      "payable": false,
      "stateMutability": "view",
      "type": "function"
    },
    {
      "constant": false,
      "inputs": [
        {
          "name": "_from",
          "type": "address"
        },
        {
          "name": "_to",
          "type": "address"
        },
        {
          "name": "_tokenId",
          "type": "uint256"
        }
      ],
      "name": "safeTransferFrom",
      "outputs": [],
      "payable": false,
      "stateMutability": "nonpayable",
      "type": "function"
    },
    {
      "constant": true,
      "inputs": [
        {
          "name": "_tokenId",
          "type": "uint256"
        }
      ],
      "name": "exists",
      "outputs": [
        {
          "name": "",
          "type": "bool"
        }
      ],
      "payable": false,
      "stateMutability": "view",
      "type": "function"
    },
    {
      "constant": true,
      "inputs": [
        {
          "name": "_index",
          "type": "uint256"
        }
      ],
      "name": "tokenByIndex",
      "outputs": [
        {
          "name": "",
          "type": "uint256"
        }
      ],
      "payable": false,
      "stateMutability": "view",
      "type": "function"
    },
    {
      "constant": true,
      "inputs": [
        {
          "name": "",
          "type": "uint256"
        }
      ],
      "name": "tickets",
      "outputs": [
        {
          "name": "description",
          "type": "string"
        },
        {
          "name": "price",
          "type": "uint256"
        },
        {
          "name": "state",
          "type": "uint8"
        },
        {
          "name": "fulfilmentURI",
          "type": "string"
        },
        {
          "name": "retailer",
          "type": "address"
        }
      ],
      "payable": false,
      "stateMutability": "view",
      "type": "function"
    },
    {
      "constant": true,
      "inputs": [
        {
          "name": "_tokenId",
          "type": "uint256"
        }
      ],
      "name": "ownerOf",
      "outputs": [
        {
          "name": "",
          "type": "address"
        }
      ],
      "payable": false,
      "stateMutability": "view",
      "type": "function"
    },
    {
      "constant": true,
      "inputs": [
        {
          "name": "_owner",
          "type": "address"
        }
      ],
      "name": "balanceOf",
      "outputs": [
        {
          "name": "",
          "type": "uint256"
        }
      ],
      "payable": false,
      "stateMutability": "view",
      "type": "function"
    },
    {
      "constant": true,
      "inputs": [],
      "name": "symbol",
      "outputs": [
        {
          "name": "",
          "type": "string"
        }
      ],
      "payable": false,
      "stateMutability": "view",
      "type": "function"
    },
    {
      "constant": false,
      "inputs": [
        {
          "name": "_to",
          "type": "address"
        },
        {
          "name": "_approved",
          "type": "bool"
        }
      ],
      "name": "setApprovalForAll",
      "outputs": [],
      "payable": false,
      "stateMutability": "nonpayable",
      "type": "function"
    },
    {
      "constant": false,
      "inputs": [
        {
          "name": "_from",
          "type": "address"
        },
        {
          "name": "_to",
          "type": "address"
        },
        {
          "name": "_tokenId",
          "type": "uint256"
        },
        {
          "name": "_data",
          "type": "bytes"
        }
      ],
      "name": "safeTransferFrom",
      "outputs": [],
      "payable": false,
      "stateMutability": "nonpayable",
      "type": "function"
    },
    {
      "constant": true,
      "inputs": [
        {
          "name": "_tokenId",
          "type": "uint256"
        }
      ],
      "name": "tokenURI",
      "outputs": [
        {
          "name": "",
          "type": "string"
        }
      ],
      "payable": false,
      "stateMutability": "view",
      "type": "function"
    },
    {
      "constant": true,
      "inputs": [
        {
          "name": "_owner",
          "type": "address"
        },
        {
          "name": "_operator",
          "type": "address"
        }
      ],
      "name": "isApprovedForAll",
      "outputs": [
        {
          "name": "",
          "type": "bool"
        }
      ],
      "payable": false,
      "stateMutability": "view",
      "type": "function"
    },
    {
      "anonymous": false,
      "inputs": [
        {
          "indexed": true,
          "name": "_from",
          "type": "address"
        },
        {
          "indexed": true,
          "name": "_to",
          "type": "address"
        },
        {
          "indexed": true,
          "name": "_tokenId",
          "type": "uint256"
        }
      ],
      "name": "Transfer",
      "type": "event"
    },
    {
      "anonymous": false,
      "inputs": [
        {
          "indexed": true,
          "name": "_owner",
          "type": "address"
        },
        {
          "indexed": true,
          "name": "_approved",
          "type": "address"
        },
        {
          "indexed": true,
          "name": "_tokenId",
          "type": "uint256"
        }
      ],
      "name": "Approval",
      "type": "event"
    },
    {
      "anonymous": false,
      "inputs": [
        {
          "indexed": true,
          "name": "_owner",
          "type": "address"
        },
        {
          "indexed": true,
          "name": "_operator",
          "type": "address"
        },
        {
          "indexed": false,
          "name": "_approved",
          "type": "bool"
        }
      ],
      "name": "ApprovalForAll",
      "type": "event"
    },
    {
      "constant": false,
      "inputs": [
        {
          "name": "_description",
          "type": "string"
        },
        {
          "name": "_itemUrl",
          "type": "string"
        },
        {
          "name": "_expiry",
          "type": "uint256"
        },
        {
          "name": "_retailer",
          "type": "address"
        },
        {
          "name": "_signature",
          "type": "bytes"
        }
      ],
      "name": "createTicket",
      "outputs": [
        {
          "name": "",
          "type": "uint256"
        }
      ],
      "payable": true,
      "stateMutability": "payable",
      "type": "function"
    },
    {
      "constant": false,
      "inputs": [
        {
          "name": "_ticketId",
          "type": "uint256"
        },
        {
          "name": "_fulfilmentURI",
          "type": "string"
        }
      ],
      "name": "fulfilTicket",
      "outputs": [],
      "payable": false,
      "stateMutability": "nonpayable",
      "type": "function"
    },
    {
      "constant": false,
      "inputs": [
        {
          "name": "_ticketId",
          "type": "uint256"
        }
      ],
      "name": "cancelTicket",
      "outputs": [],
      "payable": false,
      "stateMutability": "nonpayable",
      "type": "function"
    },
    {
      "constant": true,
      "inputs": [
        {
          "name": "_ticketId",
          "type": "uint256"
        }
      ],
      "name": "getTicketDescriptionById",
      "outputs": [
        {
          "name": "",
          "type": "string"
        }
      ],
      "payable": false,
      "stateMutability": "view",
      "type": "function"
    },
    {
      "constant": true,
      "inputs": [
        {
          "name": "_ticketId",
          "type": "uint256"
        }
      ],
      "name": "getTicketStateById",
      "outputs": [
        {
          "name": "",
          "type": "uint8"
        }
      ],
      "payable": false,
      "stateMutability": "view",
      "type": "function"
    },
    {
      "constant": true,
      "inputs": [
        {
          "name": "_ticketId",
          "type": "uint256"
        }
      ],
      "name": "getFulfilmentURIById",
      "outputs": [
        {
          "name": "",
          "type": "string"
        }
      ],
      "payable": false,
      "stateMutability": "view",
      "type": "function"
    },
    {
      "constant": true,
      "inputs": [],
      "name": "getFulfilmentQueue",
      "outputs": [
        {
          "name": "",
          "type": "uint256[]"
        }
      ],
      "payable": false,
      "stateMutability": "view",
      "type": "function"
    }
  ],
  "bytecode": "0x600d60809081527f5469636b65742077616c6c65740000000000000000000000000000000000000060a052610100604052600b60c09081527f504c4e522d57414c4c455400000000000000000000000000000000000000000060e0526200008f7f01ffc9a70000000000000000000000000000000000000000000000000000000064010000000062000193810204565b620000c37f80ac58cd0000000000000000000000000000000000000000000000000000000064010000000062000193810204565b620000f77f4f558e790000000000000000000000000000000000000000000000000000000064010000000062000193810204565b81516200010c90600590602085019062000200565b5080516200012290600690602084019062000200565b50620001577f780e9d630000000000000000000000000000000000000000000000000000000064010000000062000193810204565b6200018b7f5b5e139f0000000000000000000000000000000000000000000000000000000064010000000062000193810204565b5050620002a5565b7fffffffff000000000000000000000000000000000000000000000000000000008082161415620001c357600080fd5b7fffffffff00000000000000000000000000000000000000000000000000000000166000908152602081905260409020805460ff19166001179055565b828054600181600116156101000203166002900490600052602060002090601f016020900481019282601f106200024357805160ff191683800117855562000273565b8280016001018555821562000273579182015b828111156200027357825182559160200191906001019062000256565b506200028192915062000285565b5090565b620002a291905b808211156200028157600081556001016200028c565b90565b61241680620002b56000396000f3006080604052600436106101535763ffffffff7c010000000000000000000000000000000000000000000000000000000060003504166301ffc9a7811461015857806303fad4b21461018e57806306fdde031461027e578063081812fc14610308578063095ea7b31461033c57806318160ddd1461036257806319fa8f501461037757806323b872dd146103a95780632f745c59146103d357806342842e0e146103f75780634f558e79146104215780634f6ccce71461043957806350b44712146104515780636352211e1461057c57806370a082311461059457806380275a75146105b55780638a34d757146105cd57806395d89b4114610632578063a22cb46514610647578063b88d4fde1461066d578063c87b56dd146106dc578063cbed7546146106f4578063df06b5ef14610730578063e985e9c51461078e578063ee355b1f146107b5578063f7947fca146107cd575b600080fd5b34801561016457600080fd5b5061017a600160e060020a0319600435166107e5565b604080519115158252519081900360200190f35b6040805160206004803580820135601f810184900484028501840190955284845261026c94369492936024939284019190819084018382808284375050604080516020601f89358b018035918201839004830284018301909452808352979a99988101979196509182019450925082915084018382808284375050604080516020888301358a018035601f8101839004830284018301909452838352979a89359a8a830135600160a060020a03169a919990985060609091019650919450908101925081908401838280828437509497506108049650505050505050565b60408051918252519081900360200190f35b34801561028a57600080fd5b50610293610c3d565b6040805160208082528351818301528351919283929083019185019080838360005b838110156102cd5781810151838201526020016102b5565b50505050905090810190601f1680156102fa5780820380516001836020036101000a031916815260200191505b509250505060405180910390f35b34801561031457600080fd5b50610320600435610cd4565b60408051600160a060020a039092168252519081900360200190f35b34801561034857600080fd5b50610360600160a060020a0360043516602435610cef565b005b34801561036e57600080fd5b5061026c610da5565b34801561038357600080fd5b5061038c610dab565b60408051600160e060020a03199092168252519081900360200190f35b3480156103b557600080fd5b50610360600160a060020a0360043581169060243516604435610dcf565b3480156103df57600080fd5b5061026c600160a060020a0360043516602435610e74565b34801561040357600080fd5b50610360600160a060020a0360043581169060243516604435610ec1565b34801561042d57600080fd5b5061017a600435610ef9565b34801561044557600080fd5b5061026c600435610f1c565b34801561045d57600080fd5b50610469600435610f51565b604051808060200186815260200185600281111561048357fe5b60ff1681526020018060200184600160a060020a0316600160a060020a03168152602001838103835288818151815260200191508051906020019080838360005b838110156104dc5781810151838201526020016104c4565b50505050905090810190601f1680156105095780820380516001836020036101000a031916815260200191505b50838103825285518152855160209182019187019080838360005b8381101561053c578181015183820152602001610524565b50505050905090810190601f1680156105695780820380516001836020036101000a031916815260200191505b5097505050505050505060405180910390f35b34801561058857600080fd5b506103206004356110b7565b3480156105a057600080fd5b5061026c600160a060020a03600435166110e1565b3480156105c157600080fd5b50610293600435611114565b3480156105d957600080fd5b506105e261126d565b60408051602080825283518183015283519192839290830191858101910280838360005b8381101561061e578181015183820152602001610606565b505050509050019250505060405180910390f35b34801561063e57600080fd5b506102936112cd565b34801561065357600080fd5b50610360600160a060020a0360043516602435151561132e565b34801561067957600080fd5b50604080516020601f60643560048181013592830184900484028501840190955281845261036094600160a060020a0381358116956024803590921695604435953695608494019181908401838280828437509497506113b29650505050505050565b3480156106e857600080fd5b506102936004356113f1565b34801561070057600080fd5b5061070c6004356114a6565b6040518082600281111561071c57fe5b60ff16815260200191505060405180910390f35b34801561073c57600080fd5b5060408051602060046024803582810135601f810185900485028601850190965285855261036095833595369560449491939091019190819084018382808284375094975061157d9650505050505050565b34801561079a57600080fd5b5061017a600160a060020a03600435811690602435166117aa565b3480156107c157600080fd5b506103606004356117d8565b3480156107d957600080fd5b5061029360043561196b565b600160e060020a03191660009081526020819052604090205460ff1690565b6000806000610811612302565b60008834896040516020018084805190602001908083835b602083106108485780518252601f199092019160209182019101610829565b6001836020036101000a038019825116818451168082178552505050505050905001807f5f00000000000000000000000000000000000000000000000000000000000000815250600101838152602001807f5f0000000000000000000000000000000000000000000000000000000000000081525060010182815260200193505050506040516020818303038152906040526040518082805190602001908083835b602083106109095780518252601f1990920191602091820191016108ea565b51815160209384036101000a6000190180199092169116179052604080519290940182900382207f19457468657265756d205369676e6564204d6573736167653a0a33320000000083830152603c80840182905285518085039091018152605c909301948590528251909a509195509293508392850191508083835b602083106109a45780518252601f199092019160209182019101610985565b6001836020036101000a0380198251168184511680821785525050505050509050019150506040518091039020925086600160a060020a03166109e78488611b16565b600160a060020a031614610a45576040805160e560020a62461bcd02815260206004820152601160248201527f496e76616c6964207369676e6174757265000000000000000000000000000000604482015290519081900360640190fd5b428811610a9c576040805160e560020a62461bcd02815260206004820152601160248201527f4f66666572206861732065787069726564000000000000000000000000000000604482015290519081900360640190fd5b6040805160a0810182528b8152346020820152908101600081526040805160208181018352600080835281850192909252600160a060020a038c169290930191909152600d80546001818101808455929093528451805195975092949193879360059092027fd7b6990105719101dabeb77144f2a3385c8033acd3af97e9423a695e81ad1eb50192610b319284920190612332565b506020820151816001015560408201518160020160006101000a81548160ff02191690836002811115610b6057fe5b021790555060608201518051610b80916003840191602090910190612332565b50608091909101516004909101805473ffffffffffffffffffffffffffffffffffffffff1916600160a060020a03909216919091179055039050610bc43382611beb565b610bce818a611c3a565b604051600160a060020a038816903480156108fc02916000818181858888f19350505050158015610c03573d6000803e3d6000fd5b50600160a060020a0387166000908152600c6020908152604082208054600181018255908352912001819055935050505095945050505050565b60058054604080516020601f6002600019610100600188161502019095169490940493840181900481028201810190925282815260609390929091830182828015610cc95780601f10610c9e57610100808354040283529160200191610cc9565b820191906000526020600020905b815481529060010190602001808311610cac57829003601f168201915b505050505090505b90565b600090815260026020526040902054600160a060020a031690565b6000610cfa826110b7565b9050600160a060020a038381169082161415610d1557600080fd5b33600160a060020a0382161480610d315750610d3181336117aa565b1515610d3c57600080fd5b600082815260026020526040808220805473ffffffffffffffffffffffffffffffffffffffff1916600160a060020a0387811691821790925591518593918516917f8c5be1e5ebec7d5bd14f71427d1e84f3dd0314c0f7b2291e5b200ac8c7c3b92591a4505050565b60095490565b7f01ffc9a70000000000000000000000000000000000000000000000000000000081565b80610dda3382611c6d565b1515610de557600080fd5b600160a060020a0384161515610dfa57600080fd5b600160a060020a0383161515610e0f57600080fd5b610e198483611ccc565b610e238483611d3d565b610e2d8383611e76565b8183600160a060020a031685600160a060020a03167fddf252ad1be2c89b69c2b068fc378daa952ba7f163c4a11628f55a4df523b3ef60405160405180910390a450505050565b6000610e7f836110e1565b8210610e8a57600080fd5b600160a060020a0383166000908152600760205260409020805483908110610eae57fe5b9060005260206000200154905092915050565b80610ecc3382611c6d565b1515610ed757600080fd5b610ef384848460206040519081016040528060008152506113b2565b50505050565b600081815260016020526040902054600160a060020a0316801515905b50919050565b6000610f26610da5565b8210610f3157600080fd5b6009805483908110610f3f57fe5b90600052602060002001549050919050565b600d805482908110610f5f57fe5b60009182526020918290206005919091020180546040805160026001841615610100026000190190931692909204601f810185900485028301850190915280825291935091839190830182828015610ff85780601f10610fcd57610100808354040283529160200191610ff8565b820191906000526020600020905b815481529060010190602001808311610fdb57829003601f168201915b505050600180850154600280870154600388018054604080516020601f6000199985161561010002999099019093169590950496870182900482028501820190528584529798939760ff909216965092945090929083018282801561109e5780601f106110735761010080835404028352916020019161109e565b820191906000526020600020905b81548152906001019060200180831161108157829003601f168201915b50505060049093015491925050600160a060020a031685565b600081815260016020526040812054600160a060020a03168015156110db57600080fd5b92915050565b6000600160a060020a03821615156110f857600080fd5b50600160a060020a031660009081526003602052604090205490565b60608133600160a060020a0316600d8281548110151561113057fe5b6000918252602090912060046005909202010154600160a060020a0316148061116957503361115e826110b7565b600160a060020a0316145b15156111bf576040805160e560020a62461bcd02815260206004820152601960248201527f4d757374206265206f776e6572206f722072657461696c657200000000000000604482015290519081900360640190fd5b600d8054849081106111cd57fe5b6000918252602091829020600590910201805460408051601f60026000196101006001871615020190941693909304928301859004850281018501909152818152928301828280156112605780601f1061123557610100808354040283529160200191611260565b820191906000526020600020905b81548152906001019060200180831161124357829003601f168201915b5050505050915050919050565b336000908152600c6020908152604091829020805483518184028101840190945280845260609392830182828015610cc957602002820191906000526020600020905b8154815260200190600101908083116112b0575050505050905090565b60068054604080516020601f6002600019610100600188161502019095169490940493840181900481028201810190925282815260609390929091830182828015610cc95780601f10610c9e57610100808354040283529160200191610cc9565b600160a060020a03821633141561134457600080fd5b336000818152600460209081526040808320600160a060020a03871680855290835292819020805460ff1916861515908117909155815190815290519293927f17307eab39ab6107e8899845ad3d59bd9653f200f220920489ca2b5937696c31929181900390910190a35050565b816113bd3382611c6d565b15156113c857600080fd5b6113d3858585610dcf565b6113df85858585611ebf565b15156113ea57600080fd5b5050505050565b60606113fc82610ef9565b151561140757600080fd5b6000828152600b602090815260409182902080548351601f60026000196101006001861615020190931692909204918201849004840281018401909452808452909183018282801561149a5780601f1061146f5761010080835404028352916020019161149a565b820191906000526020600020905b81548152906001019060200180831161147d57829003601f168201915b50505050509050919050565b60008133600160a060020a0316600d828154811015156114c257fe5b6000918252602090912060046005909202010154600160a060020a031614806114fb5750336114f0826110b7565b600160a060020a0316145b1515611551576040805160e560020a62461bcd02815260206004820152601960248201527f4d757374206265206f776e6572206f722072657461696c657200000000000000604482015290519081900360640190fd5b600d80548490811061155f57fe5b600091825260209091206005909102016002015460ff169392505050565b60008233600160a060020a0316600d8281548110151561159957fe5b6000918252602090912060046005909202010154600160a060020a03161461160b576040805160e560020a62461bcd02815260206004820152601060248201527f4d7573742062652072657461696c657200000000000000000000000000000000604482015290519081900360640190fd5b6116148461202c565b336000908152600c60205260409020549092508214156116a3576040805160e560020a62461bcd028152602060048201526024808201527f5469636b6574206d7573742062652071756575656420666f722066756c66696c60448201527f6d656e7400000000000000000000000000000000000000000000000000000000606482015290519081900360840190fd5b6000600d8054869081106116b357fe5b60009182526020909120600260059092020181015460ff16908111156116d557fe5b1461172a576040805160e560020a62461bcd02815260206004820152601960248201527f5469636b6574207374617465206d757374206265205061696400000000000000604482015290519081900360640190fd5b6001600d8581548110151561173b57fe5b906000526020600020906005020160020160006101000a81548160ff0219169083600281111561176757fe5b021790555082600d8581548110151561177c57fe5b906000526020600020906005020160030190805190602001906117a0929190612332565b50610ef38261209d565b600160a060020a03918216600090815260046020908152604080832093909416825291909152205460ff1690565b600d805482913391839081106117ea57fe5b6000918252602090912060046005909202010154600160a060020a03161461185c576040805160e560020a62461bcd02815260206004820152601060248201527f4d7573742062652072657461696c657200000000000000000000000000000000604482015290519081900360640190fd5b6001600d80548490811061186c57fe5b60009182526020909120600260059092020181015460ff169081111561188e57fe5b146118e3576040805160e560020a62461bcd02815260206004820152601e60248201527f5469636b6574207374617465206d7573742062652066756c66696c6c65640000604482015290519081900360640190fd5b6002600d838154811015156118f457fe5b906000526020600020906005020160020160006101000a81548160ff0219169083600281111561192057fe5b0217905550604080516020810190915260008152600d80548490811061194257fe5b90600052602060002090600502016003019080519060200190611966929190612332565b505050565b60608133600160a060020a0316600d8281548110151561198757fe5b6000918252602090912060046005909202010154600160a060020a031614806119c05750336119b5826110b7565b600160a060020a0316145b1515611a16576040805160e560020a62461bcd02815260206004820152601960248201527f4d757374206265206f776e6572206f722072657461696c657200000000000000604482015290519081900360640190fd5b6001600d805485908110611a2657fe5b60009182526020909120600260059092020181015460ff1690811115611a4857fe5b14611a9d576040805160e560020a62461bcd02815260206004820152601e60248201527f5469636b6574207374617465206d7573742062652066756c66696c6c65640000604482015290519081900360640190fd5b600d805484908110611aab57fe5b6000918252602091829020600360059092020101805460408051601f60026000196101006001871615020190941693909304928301859004850281018501909152818152928301828280156112605780601f1061123557610100808354040283529160200191611260565b60008060008084516041141515611b305760009350611be2565b50505060208201516040830151606084015160001a601b60ff82161015611b5557601b015b8060ff16601b14158015611b6d57508060ff16601c14155b15611b7b5760009350611be2565b60408051600080825260208083018085528a905260ff8516838501526060830187905260808301869052925160019360a0808501949193601f19840193928390039091019190865af1158015611bd5573d6000803e3d6000fd5b5050506020604051035193505b50505092915050565b611bf5828261215a565b600980546000838152600a60205260408120829055600182018355919091527f6e1540171b6c0c960b71a7020d9f60077f6af931a8bbf590da0223dacf75c7af015550565b611c4382610ef9565b1515611c4e57600080fd5b6000828152600b60209081526040909120825161196692840190612332565b600080611c79836110b7565b905080600160a060020a031684600160a060020a03161480611cb4575083600160a060020a0316611ca984610cd4565b600160a060020a0316145b80611cc45750611cc481856117aa565b949350505050565b81600160a060020a0316611cdf826110b7565b600160a060020a031614611cf257600080fd5b600081815260026020526040902054600160a060020a031615611d39576000818152600260205260409020805473ffffffffffffffffffffffffffffffffffffffff191690555b5050565b6000806000611d4c85856121b5565b600084815260086020908152604080832054600160a060020a0389168452600790925290912054909350611d8790600163ffffffff61224b16565b600160a060020a038616600090815260076020526040902080549193509083908110611daf57fe5b90600052602060002001549050806007600087600160a060020a0316600160a060020a0316815260200190815260200160002084815481101515611def57fe5b6000918252602080832090910192909255600160a060020a0387168152600790915260408120805484908110611e2157fe5b6000918252602080832090910192909255600160a060020a0387168152600790915260409020805490611e589060001983016123b0565b50600093845260086020526040808520859055908452909220555050565b6000611e82838361225d565b50600160a060020a039091166000908152600760209081526040808320805460018101825590845282842081018590559383526008909152902055565b600080611ed485600160a060020a03166122ed565b1515611ee35760019150612023565b6040517f150b7a020000000000000000000000000000000000000000000000000000000081523360048201818152600160a060020a03898116602485015260448401889052608060648501908152875160848601528751918a169463150b7a0294938c938b938b93909160a490910190602085019080838360005b83811015611f76578181015183820152602001611f5e565b50505050905090810190601f168015611fa35780820380516001836020036101000a031916815260200191505b5095505050505050602060405180830381600087803b158015611fc557600080fd5b505af1158015611fd9573d6000803e3d6000fd5b505050506040513d6020811015611fef57600080fd5b5051600160e060020a031981167f150b7a020000000000000000000000000000000000000000000000000000000014925090505b50949350505050565b6000805b336000908152600c602052604090205481101561208657336000908152600c6020526040902080548491908390811061206557fe5b9060005260206000200154141561207e57809150610f16565b600101612030565b5050336000908152600c6020526040902054919050565b336000908152600c602052604090205481106120b857612157565b336000908152600c60205260409020805460001981019081106120d757fe5b6000918252602080832090910154338352600c90915260409091208054839081106120fe57fe5b6000918252602080832090910192909255338152600c909152604090208054600019810190811061212b57fe5b60009182526020808320909101829055338252600c905260409020805490611d399060001983016123b0565b50565b600160a060020a038216151561216f57600080fd5b6121798282611e76565b6040518190600160a060020a038416906000907fddf252ad1be2c89b69c2b068fc378daa952ba7f163c4a11628f55a4df523b3ef908290a45050565b81600160a060020a03166121c8826110b7565b600160a060020a0316146121db57600080fd5b600160a060020a03821660009081526003602052604090205461220590600163ffffffff61224b16565b600160a060020a03909216600090815260036020908152604080832094909455918152600190915220805473ffffffffffffffffffffffffffffffffffffffff19169055565b60008282111561225757fe5b50900390565b600081815260016020526040902054600160a060020a03161561227f57600080fd5b6000818152600160208181526040808420805473ffffffffffffffffffffffffffffffffffffffff1916600160a060020a03881690811790915584526003909152909120546122cd916122f5565b600160a060020a0390921660009081526003602052604090209190915550565b6000903b1190565b818101828110156110db57fe5b6040805160a081018252606081526000602082018190529091820190815260606020820152600060409091015290565b828054600181600116156101000203166002900490600052602060002090601f016020900481019282601f1061237357805160ff19168380011785556123a0565b828001600101855582156123a0579182015b828111156123a0578251825591602001919060010190612385565b506123ac9291506123d0565b5090565b815481835581811115611966576000838152602090206119669181019083015b610cd191905b808211156123ac57600081556001016123d65600a165627a7a72305820b6773b6441a2c47312d4e203d8457bdc839c83d5a6dff7f776e4ba4e87064e050029",
  "source": "pragma solidity ^0.4.24;\n\nimport {ERC721Token} from \"openzeppelin-solidity/contracts/token/ERC721/ERC721Token.sol\";\nimport {ECRecovery} from \"openzeppelin-solidity/contracts/ECRecovery.sol\";\n\n/**\n * Manage the creation and storage of tickets.\n */\ncontract TicketWallet is ERC721Token(\"Ticket wallet\", \"PLNR-WALLET\") {\n\n  /**\n   * Ticket lifecycle\n   */\n  enum TicketState {Paid, Fulfilled, Cancelled}\n\n  /**\n   * Ensure the given message sender is the owner or retailer of the token\n   */\n  modifier onlyRetailerOrOwnerOf(uint256 _ticketId) {\n    require(tickets[_ticketId].retailer == msg.sender || ownerOf(_ticketId) == msg.sender, \"Must be owner or retailer\");\n    _;\n  }\n\n  /**\n   * Ensure the given message sender is the retailer of the token\n   */\n  modifier onlyRetailerOf(uint256 _ticketId) {\n    require(tickets[_ticketId].retailer == msg.sender, \"Must be retailer\");\n    _;\n  }\n\n  /**\n   * Ticket information\n   */\n  struct Ticket {\n    string description;\n    uint price;\n    TicketState state;\n    string fulfilmentURI;\n    address retailer;\n  }\n\n  /**\n   * Fulfilment queues\n   */\n  mapping(address => uint[]) fulfilment;\n\n  /**\n   * Ticket storage\n   */\n  Ticket[] public tickets;\n\n  /**\n   * Add a ticket to the contract. \n   *\n   * This function will ensure the price, expiry time and payload were created by an authorised retailer, create the\n   * ticket and store it in the contract storage.\n   */\n  function createTicket(\n    string _description,\n    string _itemUrl,\n    uint _expiry,\n    address _retailer,\n    bytes _signature\n  ) \n    public \n    payable \n    returns (uint) \n  {\n    bytes32 _expectedHash = keccak256(abi.encodePacked(_itemUrl, \"_\", msg.value, \"_\", _expiry));\n    bytes32 _expectedSignature = keccak256(abi.encodePacked(\"\\x19Ethereum Signed Message:\\n32\", _expectedHash));\n\n    require(ECRecovery.recover(_expectedSignature, _signature) == _retailer, \"Invalid signature\");\n    require(_expiry > now, \"Offer has expired\");\n\n    Ticket memory _ticket = Ticket({\n      description: _description,\n      price: msg.value,\n      state: TicketState.Paid,\n      fulfilmentURI: \"\",\n      retailer: _retailer\n    });\n\n    uint _ticketId = tickets.push(_ticket) - 1;\n\n    _mint(msg.sender, _ticketId);\n    _setTokenURI(_ticketId, _itemUrl);\n    _retailer.transfer(msg.value);\n\n    fulfilment[_retailer].push(_ticketId);\n\n    return _ticketId;\n  }\n\n  /**\n   * Fulfil the ticket and attach the fulfilment URL\n   */\n  function fulfilTicket(uint _ticketId, string _fulfilmentURI) public onlyRetailerOf(_ticketId) {\n    uint _indexInFulfilmentQueue = getQueueIndex(_ticketId);\n\n    require(_indexInFulfilmentQueue != fulfilment[msg.sender].length, \"Ticket must be queued for fulfilment\");\n    require(tickets[_ticketId].state == TicketState.Paid, \"Ticket state must be Paid\");\n\n    tickets[_ticketId].state = TicketState.Fulfilled;\n    tickets[_ticketId].fulfilmentURI = _fulfilmentURI;\n\n    removeFromQueue(_indexInFulfilmentQueue);\n  }\n\n  /**\n   * Get the index of the ticket in the queue\n   */\n  function getQueueIndex(uint _ticketId) private view returns (uint) {\n    for (uint i = 0; i < fulfilment[msg.sender].length; i++) {\n      if (fulfilment[msg.sender][i] == _ticketId) {\n        return i;\n      }\n    }\n\n    return fulfilment[msg.sender].length;\n  }\n\n  /**\n   * Remove the item from the fulfilment queue of the sender\n   */\n  function removeFromQueue(uint index) private {\n    if (index >= fulfilment[msg.sender].length) return;\n\n    fulfilment[msg.sender][index] = fulfilment[msg.sender][fulfilment[msg.sender].length - 1];\n\n    delete fulfilment[msg.sender][fulfilment[msg.sender].length - 1];\n    fulfilment[msg.sender].length--;\n  }\n\n  /**\n   * Cancel the ticket\n   */\n  function cancelTicket(uint _ticketId) public onlyRetailerOf(_ticketId) {\n    require(tickets[_ticketId].state == TicketState.Fulfilled, \"Ticket state must be fulfilled\");\n\n    tickets[_ticketId].state = TicketState.Cancelled;\n    tickets[_ticketId].fulfilmentURI = \"\";\n  }\n\n  /**\n   * Return the description of the ticket \n   */\n  function getTicketDescriptionById(uint _ticketId) public onlyRetailerOrOwnerOf(_ticketId) view returns (string) {\n    return tickets[_ticketId].description;\n  }\n\n  /**\n   * Return the state of the ticket\n   */\n  function getTicketStateById(uint _ticketId) public onlyRetailerOrOwnerOf(_ticketId) view returns (TicketState) {\n    return tickets[_ticketId].state;\n  }\n  \n  /**\n   * Return the URI containing the fulfilment information\n   */\n  function getFulfilmentURIById(uint _ticketId) public onlyRetailerOrOwnerOf(_ticketId) view returns (string) {\n    require(tickets[_ticketId].state == TicketState.Fulfilled, \"Ticket state must be fulfilled\");\n\n    return tickets[_ticketId].fulfilmentURI;\n  }\n\n  /**\n   * Get fulfilment queue of retailer\n   */\n  function getFulfilmentQueue() public view returns (uint[]) {\n    return fulfilment[msg.sender];\n  }\n\n}\n",
  "sourcePath": "/home/linus/Work/planar/ticket-wallet/contracts/TicketWallet.sol",
  "compiler": {
    "name": "solc",
    "version": "0.4.24+commit.e67f0147.Emscripten.clang"
  },
  "schemaVersion": "2.0.1",
  "updatedAt": "2018-07-25T15:58:14.053Z"
}