{
  "contractName": "TicketWallet",
  "abi": [
    {
      "constant": true,
      "inputs": [],
      "name": "name",
      "outputs": [
        {
          "name": "",
          "type": "string"
        }
      ],
      "payable": false,
      "stateMutability": "view",
      "type": "function"
    },
    {
      "constant": true,
      "inputs": [
        {
          "name": "_tokenId",
          "type": "uint256"
        }
      ],
      "name": "getApproved",
      "outputs": [
        {
          "name": "",
          "type": "address"
        }
      ],
      "payable": false,
      "stateMutability": "view",
      "type": "function"
    },
    {
      "constant": false,
      "inputs": [
        {
          "name": "_to",
          "type": "address"
        },
        {
          "name": "_tokenId",
          "type": "uint256"
        }
      ],
      "name": "approve",
      "outputs": [],
      "payable": false,
      "stateMutability": "nonpayable",
      "type": "function"
    },
    {
      "constant": true,
      "inputs": [],
      "name": "totalSupply",
      "outputs": [
        {
          "name": "",
          "type": "uint256"
        }
      ],
      "payable": false,
      "stateMutability": "view",
      "type": "function"
    },
    {
      "constant": false,
      "inputs": [
        {
          "name": "_from",
          "type": "address"
        },
        {
          "name": "_to",
          "type": "address"
        },
        {
          "name": "_tokenId",
          "type": "uint256"
        }
      ],
      "name": "transferFrom",
      "outputs": [],
      "payable": false,
      "stateMutability": "nonpayable",
      "type": "function"
    },
    {
      "constant": true,
      "inputs": [
        {
          "name": "_owner",
          "type": "address"
        },
        {
          "name": "_index",
          "type": "uint256"
        }
      ],
      "name": "tokenOfOwnerByIndex",
      "outputs": [
        {
          "name": "",
          "type": "uint256"
        }
      ],
      "payable": false,
      "stateMutability": "view",
      "type": "function"
    },
    {
      "constant": false,
      "inputs": [
        {
          "name": "_from",
          "type": "address"
        },
        {
          "name": "_to",
          "type": "address"
        },
        {
          "name": "_tokenId",
          "type": "uint256"
        }
      ],
      "name": "safeTransferFrom",
      "outputs": [],
      "payable": false,
      "stateMutability": "nonpayable",
      "type": "function"
    },
    {
      "constant": true,
      "inputs": [
        {
          "name": "_tokenId",
          "type": "uint256"
        }
      ],
      "name": "exists",
      "outputs": [
        {
          "name": "",
          "type": "bool"
        }
      ],
      "payable": false,
      "stateMutability": "view",
      "type": "function"
    },
    {
      "constant": true,
      "inputs": [
        {
          "name": "_index",
          "type": "uint256"
        }
      ],
      "name": "tokenByIndex",
      "outputs": [
        {
          "name": "",
          "type": "uint256"
        }
      ],
      "payable": false,
      "stateMutability": "view",
      "type": "function"
    },
    {
      "constant": true,
      "inputs": [
        {
          "name": "",
          "type": "uint256"
        }
      ],
      "name": "tickets",
      "outputs": [
        {
          "name": "description",
          "type": "string"
        },
        {
          "name": "price",
          "type": "uint256"
        },
        {
          "name": "state",
          "type": "uint8"
        },
        {
          "name": "fulfilmentUrl",
          "type": "string"
        },
        {
          "name": "retailer",
          "type": "address"
        }
      ],
      "payable": false,
      "stateMutability": "view",
      "type": "function"
    },
    {
      "constant": true,
      "inputs": [
        {
          "name": "_tokenId",
          "type": "uint256"
        }
      ],
      "name": "ownerOf",
      "outputs": [
        {
          "name": "",
          "type": "address"
        }
      ],
      "payable": false,
      "stateMutability": "view",
      "type": "function"
    },
    {
      "constant": true,
      "inputs": [
        {
          "name": "_owner",
          "type": "address"
        }
      ],
      "name": "balanceOf",
      "outputs": [
        {
          "name": "",
          "type": "uint256"
        }
      ],
      "payable": false,
      "stateMutability": "view",
      "type": "function"
    },
    {
      "constant": true,
      "inputs": [],
      "name": "symbol",
      "outputs": [
        {
          "name": "",
          "type": "string"
        }
      ],
      "payable": false,
      "stateMutability": "view",
      "type": "function"
    },
    {
      "constant": false,
      "inputs": [
        {
          "name": "_to",
          "type": "address"
        },
        {
          "name": "_approved",
          "type": "bool"
        }
      ],
      "name": "setApprovalForAll",
      "outputs": [],
      "payable": false,
      "stateMutability": "nonpayable",
      "type": "function"
    },
    {
      "constant": false,
      "inputs": [
        {
          "name": "_from",
          "type": "address"
        },
        {
          "name": "_to",
          "type": "address"
        },
        {
          "name": "_tokenId",
          "type": "uint256"
        },
        {
          "name": "_data",
          "type": "bytes"
        }
      ],
      "name": "safeTransferFrom",
      "outputs": [],
      "payable": false,
      "stateMutability": "nonpayable",
      "type": "function"
    },
    {
      "constant": true,
      "inputs": [
        {
          "name": "_tokenId",
          "type": "uint256"
        }
      ],
      "name": "tokenURI",
      "outputs": [
        {
          "name": "",
          "type": "string"
        }
      ],
      "payable": false,
      "stateMutability": "view",
      "type": "function"
    },
    {
      "constant": true,
      "inputs": [
        {
          "name": "_owner",
          "type": "address"
        },
        {
          "name": "_operator",
          "type": "address"
        }
      ],
      "name": "isApprovedForAll",
      "outputs": [
        {
          "name": "",
          "type": "bool"
        }
      ],
      "payable": false,
      "stateMutability": "view",
      "type": "function"
    },
    {
      "anonymous": false,
      "inputs": [
        {
          "indexed": true,
          "name": "_from",
          "type": "address"
        },
        {
          "indexed": true,
          "name": "_to",
          "type": "address"
        },
        {
          "indexed": false,
          "name": "_tokenId",
          "type": "uint256"
        }
      ],
      "name": "Transfer",
      "type": "event"
    },
    {
      "anonymous": false,
      "inputs": [
        {
          "indexed": true,
          "name": "_owner",
          "type": "address"
        },
        {
          "indexed": true,
          "name": "_approved",
          "type": "address"
        },
        {
          "indexed": false,
          "name": "_tokenId",
          "type": "uint256"
        }
      ],
      "name": "Approval",
      "type": "event"
    },
    {
      "anonymous": false,
      "inputs": [
        {
          "indexed": true,
          "name": "_owner",
          "type": "address"
        },
        {
          "indexed": true,
          "name": "_operator",
          "type": "address"
        },
        {
          "indexed": false,
          "name": "_approved",
          "type": "bool"
        }
      ],
      "name": "ApprovalForAll",
      "type": "event"
    },
    {
      "constant": false,
      "inputs": [
        {
          "name": "_description",
          "type": "string"
        },
        {
          "name": "_itemUrl",
          "type": "string"
        },
        {
          "name": "_expiry",
          "type": "uint256"
        },
        {
          "name": "_retailer",
          "type": "address"
        },
        {
          "name": "_signature",
          "type": "bytes"
        }
      ],
      "name": "createTicket",
      "outputs": [
        {
          "name": "",
          "type": "uint256"
        }
      ],
      "payable": true,
      "stateMutability": "payable",
      "type": "function"
    },
    {
      "constant": false,
      "inputs": [
        {
          "name": "_ticketId",
          "type": "uint256"
        },
        {
          "name": "_fulfilmentUrl",
          "type": "string"
        }
      ],
      "name": "fulfilTicket",
      "outputs": [],
      "payable": false,
      "stateMutability": "nonpayable",
      "type": "function"
    },
    {
      "constant": false,
      "inputs": [
        {
          "name": "_ticketId",
          "type": "uint256"
        }
      ],
      "name": "cancelTicket",
      "outputs": [],
      "payable": false,
      "stateMutability": "nonpayable",
      "type": "function"
    },
    {
      "constant": true,
      "inputs": [
        {
          "name": "_ticketId",
          "type": "uint256"
        }
      ],
      "name": "getTicketDescriptionById",
      "outputs": [
        {
          "name": "",
          "type": "string"
        }
      ],
      "payable": false,
      "stateMutability": "view",
      "type": "function"
    },
    {
      "constant": true,
      "inputs": [
        {
          "name": "_ticketId",
          "type": "uint256"
        }
      ],
      "name": "getTicketStateById",
      "outputs": [
        {
          "name": "",
          "type": "uint8"
        }
      ],
      "payable": false,
      "stateMutability": "view",
      "type": "function"
    },
    {
      "constant": true,
      "inputs": [
        {
          "name": "_ticketId",
          "type": "uint256"
        }
      ],
      "name": "getFulfilmentUrlById",
      "outputs": [
        {
          "name": "",
          "type": "string"
        }
      ],
      "payable": false,
      "stateMutability": "view",
      "type": "function"
    },
    {
      "constant": true,
      "inputs": [],
      "name": "getFulfilmentQueue",
      "outputs": [
        {
          "name": "",
          "type": "uint256[]"
        }
      ],
      "payable": false,
      "stateMutability": "view",
      "type": "function"
    }
  ],
  "bytecode": "0x600d60808181527f5469636b65742077616c6c65740000000000000000000000000000000000000060a0908152610100604052600b60c09081527f504c4e522d57414c4c455400000000000000000000000000000000000000000060e05291926200006d916004916200008c565b508051620000839060059060208401906200008c565b50505062000131565b828054600181600116156101000203166002900490600052602060002090601f016020900481019282601f10620000cf57805160ff1916838001178555620000ff565b82800160010185558215620000ff579182015b82811115620000ff578251825591602001919060010190620000e2565b506200010d92915062000111565b5090565b6200012e91905b808211156200010d576000815560010162000118565b90565b61240a80620001416000396000f30060806040526004361061013d5763ffffffff7c010000000000000000000000000000000000000000000000000000000060003504166303fad4b2811461014257806306fdde0314610232578063081812fc146102bc578063095ea7b3146102f057806318160ddd1461031657806323b872dd1461032b5780632f745c591461035557806342842e0e146103795780634f558e79146103a35780634f6ccce7146103cf57806350b44712146103e75780636352211e1461051257806370a082311461052a57806380275a751461054b5780638a34d7571461056357806395d89b41146105c85780639c9615fb146105dd578063a22cb465146105f5578063b88d4fde1461061b578063c87b56dd1461068a578063cbed7546146106a2578063df06b5ef146106de578063e985e9c51461073c578063ee355b1f14610763575b600080fd5b6040805160206004803580820135601f810184900484028501840190955284845261022094369492936024939284019190819084018382808284375050604080516020601f89358b018035918201839004830284018301909452808352979a99988101979196509182019450925082915084018382808284375050604080516020888301358a018035601f8101839004830284018301909452838352979a89359a8a830135600160a060020a03169a9199909850606090910196509194509081019250819084018382808284375094975061077b9650505050505050565b60408051918252519081900360200190f35b34801561023e57600080fd5b50610247610bb4565b6040805160208082528351818301528351919283929083019185019080838360005b83811015610281578181015183820152602001610269565b50505050905090810190601f1680156102ae5780820380516001836020036101000a031916815260200191505b509250505060405180910390f35b3480156102c857600080fd5b506102d4600435610c4b565b60408051600160a060020a039092168252519081900360200190f35b3480156102fc57600080fd5b50610314600160a060020a0360043516602435610c66565b005b34801561032257600080fd5b50610220610d58565b34801561033757600080fd5b50610314600160a060020a0360043581169060243516604435610d5e565b34801561036157600080fd5b50610220600160a060020a0360043516602435610e0d565b34801561038557600080fd5b50610314600160a060020a0360043581169060243516604435610e5a565b3480156103af57600080fd5b506103bb600435610e92565b604080519115158252519081900360200190f35b3480156103db57600080fd5b50610220600435610eb5565b3480156103f357600080fd5b506103ff600435610eea565b604051808060200186815260200185600281111561041957fe5b60ff1681526020018060200184600160a060020a0316600160a060020a03168152602001838103835288818151815260200191508051906020019080838360005b8381101561047257818101518382015260200161045a565b50505050905090810190601f16801561049f5780820380516001836020036101000a031916815260200191505b50838103825285518152855160209182019187019080838360005b838110156104d25781810151838201526020016104ba565b50505050905090810190601f1680156104ff5780820380516001836020036101000a031916815260200191505b5097505050505050505060405180910390f35b34801561051e57600080fd5b506102d4600435611050565b34801561053657600080fd5b50610220600160a060020a036004351661107a565b34801561055757600080fd5b506102476004356110ad565b34801561056f57600080fd5b50610578611206565b60408051602080825283518183015283519192839290830191858101910280838360005b838110156105b457818101518382015260200161059c565b505050509050019250505060405180910390f35b3480156105d457600080fd5b50610247611266565b3480156105e957600080fd5b506102476004356112c7565b34801561060157600080fd5b50610314600160a060020a03600435166024351515611472565b34801561062757600080fd5b50604080516020601f60643560048181013592830184900484028501840190955281845261031494600160a060020a0381358116956024803590921695604435953695608494019181908401838280828437509497506114f69650505050505050565b34801561069657600080fd5b50610247600435611535565b3480156106ae57600080fd5b506106ba6004356115ea565b604051808260028111156106ca57fe5b60ff16815260200191505060405180910390f35b3480156106ea57600080fd5b5060408051602060046024803582810135601f81018590048502860185019096528585526103149583359536956044949193909101919081908401838280828437509497506116c19650505050505050565b34801561074857600080fd5b506103bb600160a060020a03600435811690602435166118ee565b34801561076f57600080fd5b5061031460043561191c565b60008060006107886122f6565b60008834896040516020018084805190602001908083835b602083106107bf5780518252601f1990920191602091820191016107a0565b6001836020036101000a038019825116818451168082178552505050505050905001807f5f00000000000000000000000000000000000000000000000000000000000000815250600101838152602001807f5f0000000000000000000000000000000000000000000000000000000000000081525060010182815260200193505050506040516020818303038152906040526040518082805190602001908083835b602083106108805780518252601f199092019160209182019101610861565b51815160209384036101000a6000190180199092169116179052604080519290940182900382207f19457468657265756d205369676e6564204d6573736167653a0a33320000000083830152603c80840182905285518085039091018152605c909301948590528251909a509195509293508392850191508083835b6020831061091b5780518252601f1990920191602091820191016108fc565b6001836020036101000a0380198251168184511680821785525050505050509050019150506040518091039020925086600160a060020a031661095e8488611aaa565b600160a060020a0316146109bc576040805160e560020a62461bcd02815260206004820152601160248201527f496e76616c6964207369676e6174757265000000000000000000000000000000604482015290519081900360640190fd5b428811610a13576040805160e560020a62461bcd02815260206004820152601160248201527f4f66666572206861732065787069726564000000000000000000000000000000604482015290519081900360640190fd5b6040805160a0810182528b8152346020820152908101600081526040805160208181018352600080835281850192909252600160a060020a038c169290930191909152600c80546001818101808455929093528451805195975092949193879360059092027fdf6966c971051c3d54ec59162606531493a51404a002842f56009d7e5cf4a8c70192610aa89284920190612326565b506020820151816001015560408201518160020160006101000a81548160ff02191690836002811115610ad757fe5b021790555060608201518051610af7916003840191602090910190612326565b50608091909101516004909101805473ffffffffffffffffffffffffffffffffffffffff1916600160a060020a03909216919091179055039050610b3b3382611b7f565b610b45818a611bce565b604051600160a060020a038816903480156108fc02916000818181858888f19350505050158015610b7a573d6000803e3d6000fd5b50600160a060020a0387166000908152600b6020908152604082208054600181018255908352912001819055935050505095945050505050565b60048054604080516020601f6002600019610100600188161502019095169490940493840181900481028201810190925282815260609390929091830182828015610c405780601f10610c1557610100808354040283529160200191610c40565b820191906000526020600020905b815481529060010190602001808311610c2357829003601f168201915b505050505090505b90565b600090815260016020526040902054600160a060020a031690565b6000610c7182611050565b9050600160a060020a038381169082161415610c8c57600080fd5b33600160a060020a0382161480610ca85750610ca881336118ee565b1515610cb357600080fd5b6000610cbe83610c4b565b600160a060020a0316141580610cdc5750600160a060020a03831615155b15610d5357600082815260016020908152604091829020805473ffffffffffffffffffffffffffffffffffffffff1916600160a060020a03878116918217909255835186815293519093918516927f8c5be1e5ebec7d5bd14f71427d1e84f3dd0314c0f7b2291e5b200ac8c7c3b925928290030190a35b505050565b60085490565b80610d693382611c01565b1515610d7457600080fd5b600160a060020a0384161515610d8957600080fd5b600160a060020a0383161515610d9e57600080fd5b610da88483611c60565b610db28483611d0e565b610dbc8383611e47565b82600160a060020a031684600160a060020a03167fddf252ad1be2c89b69c2b068fc378daa952ba7f163c4a11628f55a4df523b3ef846040518082815260200191505060405180910390a350505050565b6000610e188361107a565b8210610e2357600080fd5b600160a060020a0383166000908152600660205260409020805483908110610e4757fe5b9060005260206000200154905092915050565b80610e653382611c01565b1515610e7057600080fd5b610e8c84848460206040519081016040528060008152506114f6565b50505050565b600081815260208190526040902054600160a060020a0316801515905b50919050565b6000610ebf610d58565b8210610eca57600080fd5b6008805483908110610ed857fe5b90600052602060002001549050919050565b600c805482908110610ef857fe5b60009182526020918290206005919091020180546040805160026001841615610100026000190190931692909204601f810185900485028301850190915280825291935091839190830182828015610f915780601f10610f6657610100808354040283529160200191610f91565b820191906000526020600020905b815481529060010190602001808311610f7457829003601f168201915b505050600180850154600280870154600388018054604080516020601f6000199985161561010002999099019093169590950496870182900482028501820190528584529798939760ff90921696509294509092908301828280156110375780601f1061100c57610100808354040283529160200191611037565b820191906000526020600020905b81548152906001019060200180831161101a57829003601f168201915b50505060049093015491925050600160a060020a031685565b600081815260208190526040812054600160a060020a031680151561107457600080fd5b92915050565b6000600160a060020a038216151561109157600080fd5b50600160a060020a031660009081526002602052604090205490565b60608133600160a060020a0316600c828154811015156110c957fe5b6000918252602090912060046005909202010154600160a060020a031614806111025750336110f782611050565b600160a060020a0316145b1515611158576040805160e560020a62461bcd02815260206004820152601960248201527f4d757374206265206f776e6572206f722072657461696c657200000000000000604482015290519081900360640190fd5b600c80548490811061116657fe5b6000918252602091829020600590910201805460408051601f60026000196101006001871615020190941693909304928301859004850281018501909152818152928301828280156111f95780601f106111ce576101008083540402835291602001916111f9565b820191906000526020600020905b8154815290600101906020018083116111dc57829003601f168201915b5050505050915050919050565b336000908152600b6020908152604091829020805483518184028101840190945280845260609392830182828015610c4057602002820191906000526020600020905b815481526020019060010190808311611249575050505050905090565b60058054604080516020601f6002600019610100600188161502019095169490940493840181900481028201810190925282815260609390929091830182828015610c405780601f10610c1557610100808354040283529160200191610c40565b60608133600160a060020a0316600c828154811015156112e357fe5b6000918252602090912060046005909202010154600160a060020a0316148061131c57503361131182611050565b600160a060020a0316145b1515611372576040805160e560020a62461bcd02815260206004820152601960248201527f4d757374206265206f776e6572206f722072657461696c657200000000000000604482015290519081900360640190fd5b6001600c80548590811061138257fe5b60009182526020909120600260059092020181015460ff16908111156113a457fe5b146113f9576040805160e560020a62461bcd02815260206004820152601e60248201527f5469636b6574207374617465206d7573742062652066756c66696c6c65640000604482015290519081900360640190fd5b600c80548490811061140757fe5b6000918252602091829020600360059092020101805460408051601f60026000196101006001871615020190941693909304928301859004850281018501909152818152928301828280156111f95780601f106111ce576101008083540402835291602001916111f9565b600160a060020a03821633141561148857600080fd5b336000818152600360209081526040808320600160a060020a03871680855290835292819020805460ff1916861515908117909155815190815290519293927f17307eab39ab6107e8899845ad3d59bd9653f200f220920489ca2b5937696c31929181900390910190a35050565b816115013382611c01565b151561150c57600080fd5b611517858585610d5e565b61152385858585611e90565b151561152e57600080fd5b5050505050565b606061154082610e92565b151561154b57600080fd5b6000828152600a602090815260409182902080548351601f6002600019610100600186161502019093169290920491820184900484028101840190945280845290918301828280156115de5780601f106115b3576101008083540402835291602001916115de565b820191906000526020600020905b8154815290600101906020018083116115c157829003601f168201915b50505050509050919050565b60008133600160a060020a0316600c8281548110151561160657fe5b6000918252602090912060046005909202010154600160a060020a0316148061163f57503361163482611050565b600160a060020a0316145b1515611695576040805160e560020a62461bcd02815260206004820152601960248201527f4d757374206265206f776e6572206f722072657461696c657200000000000000604482015290519081900360640190fd5b600c8054849081106116a357fe5b600091825260209091206005909102016002015460ff169392505050565b60008233600160a060020a0316600c828154811015156116dd57fe5b6000918252602090912060046005909202010154600160a060020a03161461174f576040805160e560020a62461bcd02815260206004820152601060248201527f4d7573742062652072657461696c657200000000000000000000000000000000604482015290519081900360640190fd5b61175884612019565b336000908152600b60205260409020549092508214156117e7576040805160e560020a62461bcd028152602060048201526024808201527f5469636b6574206d7573742062652071756575656420666f722066756c66696c60448201527f6d656e7400000000000000000000000000000000000000000000000000000000606482015290519081900360840190fd5b6000600c8054869081106117f757fe5b60009182526020909120600260059092020181015460ff169081111561181957fe5b1461186e576040805160e560020a62461bcd02815260206004820152601960248201527f5469636b6574207374617465206d757374206265205061696400000000000000604482015290519081900360640190fd5b6001600c8581548110151561187f57fe5b906000526020600020906005020160020160006101000a81548160ff021916908360028111156118ab57fe5b021790555082600c858154811015156118c057fe5b906000526020600020906005020160030190805190602001906118e4929190612326565b50610e8c8261208a565b600160a060020a03918216600090815260036020908152604080832093909416825291909152205460ff1690565b600c8054829133918390811061192e57fe5b6000918252602090912060046005909202010154600160a060020a0316146119a0576040805160e560020a62461bcd02815260206004820152601060248201527f4d7573742062652072657461696c657200000000000000000000000000000000604482015290519081900360640190fd5b6001600c8054849081106119b057fe5b60009182526020909120600260059092020181015460ff16908111156119d257fe5b14611a27576040805160e560020a62461bcd02815260206004820152601e60248201527f5469636b6574207374617465206d7573742062652066756c66696c6c65640000604482015290519081900360640190fd5b6002600c83815481101515611a3857fe5b906000526020600020906005020160020160006101000a81548160ff02191690836002811115611a6457fe5b0217905550604080516020810190915260008152600c805484908110611a8657fe5b90600052602060002090600502016003019080519060200190610d53929190612326565b60008060008084516041141515611ac45760009350611b76565b50505060208201516040830151606084015160001a601b60ff82161015611ae957601b015b8060ff16601b14158015611b0157508060ff16601c14155b15611b0f5760009350611b76565b60408051600080825260208083018085528a905260ff8516838501526060830187905260808301869052925160019360a0808501949193601f19840193928390039091019190865af1158015611b69573d6000803e3d6000fd5b5050506020604051035193505b50505092915050565b611b898282612147565b600880546000838152600960205260408120829055600182018355919091527ff3f7a9fe364faab93b216da50a3214154f22a0a2b415b23a84c8169e8b636ee3015550565b611bd782610e92565b1515611be257600080fd5b6000828152600a602090815260409091208251610d5392840190612326565b600080611c0d83611050565b905080600160a060020a031684600160a060020a03161480611c48575083600160a060020a0316611c3d84610c4b565b600160a060020a0316145b80611c585750611c5881856118ee565b949350505050565b81600160a060020a0316611c7382611050565b600160a060020a031614611c8657600080fd5b600081815260016020526040902054600160a060020a031615611d0a576000818152600160209081526040808320805473ffffffffffffffffffffffffffffffffffffffff1916905580518481529051600160a060020a038616927f8c5be1e5ebec7d5bd14f71427d1e84f3dd0314c0f7b2291e5b200ac8c7c3b925928290030190a35b5050565b6000806000611d1d85856121ab565b600084815260076020908152604080832054600160a060020a0389168452600690925290912054909350611d5890600163ffffffff61224016565b600160a060020a038616600090815260066020526040902080549193509083908110611d8057fe5b90600052602060002001549050806006600087600160a060020a0316600160a060020a0316815260200190815260200160002084815481101515611dc057fe5b6000918252602080832090910192909255600160a060020a0387168152600690915260408120805484908110611df257fe5b6000918252602080832090910192909255600160a060020a0387168152600690915260409020805490611e299060001983016123a4565b50600093845260076020526040808520859055908452909220555050565b6000611e538383612252565b50600160a060020a039091166000908152600660209081526040808320805460018101825590845282842081018590559383526007909152902055565b600080611ea585600160a060020a03166122e1565b1515611eb45760019150612010565b84600160a060020a031663f0b9e5ba8786866040518463ffffffff167c01000000000000000000000000000000000000000000000000000000000281526004018084600160a060020a0316600160a060020a0316815260200183815260200180602001828103825283818151815260200191508051906020019080838360005b83811015611f4c578181015183820152602001611f34565b50505050905090810190601f168015611f795780820380516001836020036101000a031916815260200191505b50945050505050602060405180830381600087803b158015611f9a57600080fd5b505af1158015611fae573d6000803e3d6000fd5b505050506040513d6020811015611fc457600080fd5b50517fffffffff0000000000000000000000000000000000000000000000000000000081167ff0b9e5ba0000000000000000000000000000000000000000000000000000000014925090505b50949350505050565b6000805b336000908152600b602052604090205481101561207357336000908152600b6020526040902080548491908390811061205257fe5b9060005260206000200154141561206b57809150610eaf565b60010161201d565b5050336000908152600b6020526040902054919050565b336000908152600b602052604090205481106120a557612144565b336000908152600b60205260409020805460001981019081106120c457fe5b6000918252602080832090910154338352600b90915260409091208054839081106120eb57fe5b6000918252602080832090910192909255338152600b909152604090208054600019810190811061211857fe5b60009182526020808320909101829055338252600b905260409020805490611d0a9060001983016123a4565b50565b600160a060020a038216151561215c57600080fd5b6121668282611e47565b604080518281529051600160a060020a038416916000917fddf252ad1be2c89b69c2b068fc378daa952ba7f163c4a11628f55a4df523b3ef9181900360200190a35050565b81600160a060020a03166121be82611050565b600160a060020a0316146121d157600080fd5b600160a060020a0382166000908152600260205260409020546121fb90600163ffffffff61224016565b600160a060020a039092166000908152600260209081526040808320949094559181529081905220805473ffffffffffffffffffffffffffffffffffffffff19169055565b60008282111561224c57fe5b50900390565b600081815260208190526040902054600160a060020a03161561227457600080fd5b600081815260208181526040808320805473ffffffffffffffffffffffffffffffffffffffff1916600160a060020a038716908117909155835260029091529020546122c19060016122e9565b600160a060020a0390921660009081526002602052604090209190915550565b6000903b1190565b8181018281101561107457fe5b6040805160a081018252606081526000602082018190529091820190815260606020820152600060409091015290565b828054600181600116156101000203166002900490600052602060002090601f016020900481019282601f1061236757805160ff1916838001178555612394565b82800160010185558215612394579182015b82811115612394578251825591602001919060010190612379565b506123a09291506123c4565b5090565b815481835581811115610d5357600083815260209020610d539181019083015b610c4891905b808211156123a057600081556001016123ca5600a165627a7a723058200f91745396cd0f1ed1df0a92f49548a39801c6e9947730298e81e54c87e07fc10029",
  "source": "pragma solidity ^0.4.24;\n\nimport {ERC721Token} from \"zeppelin-solidity/contracts/token/ERC721/ERC721Token.sol\";\nimport {ECRecovery} from \"zeppelin-solidity/contracts/ECRecovery.sol\";\n\n/**\n * Manage the creation and storage of tickets.\n */\ncontract TicketWallet is ERC721Token(\"Ticket wallet\", \"PLNR-WALLET\") {\n\n  /**\n   * Ticket lifecycle\n   */\n  enum TicketState {Paid, Fulfilled, Cancelled}\n\n  /**\n   * Ensure the given message sender is the owner or retailer of the token\n   */\n  modifier onlyRetailerOrOwnerOf(uint256 _ticketId) {\n    require(tickets[_ticketId].retailer == msg.sender || ownerOf(_ticketId) == msg.sender, \"Must be owner or retailer\");\n    _;\n  }\n\n  /**\n   * Ensure the given message sender is the retailer of the token\n   */\n  modifier onlyRetailerOf(uint256 _ticketId) {\n    require(tickets[_ticketId].retailer == msg.sender, \"Must be retailer\");\n    _;\n  }\n\n  /**\n   * Ticket information\n   */\n  struct Ticket {\n    string description;\n    uint price;\n    TicketState state;\n    string fulfilmentUrl;\n    address retailer;\n  }\n\n  /**\n   * Fulfilment queues\n   */\n  mapping(address => uint[]) fulfilment;\n\n  /**\n   * Ticket storage\n   */\n  Ticket[] public tickets;\n\n  /**\n   * Add a ticket to the contract. \n   *\n   * This function will ensure the price, expiry time and payload were created by an authorised retailer, create the\n   * ticket and store it in the contract storage.\n   */\n  function createTicket(\n    string _description,\n    string _itemUrl,\n    uint _expiry,\n    address _retailer,\n    bytes _signature\n  ) \n    public \n    payable \n    returns (uint) \n  {\n    bytes32 _expectedHash = keccak256(abi.encodePacked(_itemUrl, \"_\", msg.value, \"_\", _expiry));\n    bytes32 _expectedSignature = keccak256(abi.encodePacked(\"\\x19Ethereum Signed Message:\\n32\", _expectedHash));\n\n    require(ECRecovery.recover(_expectedSignature, _signature) == _retailer, \"Invalid signature\");\n    require(_expiry > now, \"Offer has expired\");\n\n    Ticket memory _ticket = Ticket({\n      description: _description,\n      price: msg.value,\n      state: TicketState.Paid,\n      fulfilmentUrl: \"\",\n      retailer: _retailer\n    });\n\n    uint _ticketId = tickets.push(_ticket) - 1;\n\n    _mint(msg.sender, _ticketId);\n    _setTokenURI(_ticketId, _itemUrl);\n    _retailer.transfer(msg.value);\n\n    fulfilment[_retailer].push(_ticketId);\n\n    return _ticketId;\n  }\n\n  /**\n   * Fulfil the ticket and attach the fulfilment URL\n   */\n  function fulfilTicket(uint _ticketId, string _fulfilmentUrl) public onlyRetailerOf(_ticketId) {\n    uint _indexInFulfilmentQueue = getQueueIndex(_ticketId);\n\n    require(_indexInFulfilmentQueue != fulfilment[msg.sender].length, \"Ticket must be queued for fulfilment\");\n    require(tickets[_ticketId].state == TicketState.Paid, \"Ticket state must be Paid\");\n\n    tickets[_ticketId].state = TicketState.Fulfilled;\n    tickets[_ticketId].fulfilmentUrl = _fulfilmentUrl;\n\n    removeFromQueue(_indexInFulfilmentQueue);\n  }\n\n  /**\n   * Get the index of the ticket in the queue\n   */\n  function getQueueIndex(uint _ticketId) private view returns (uint) {\n    for (uint i = 0; i < fulfilment[msg.sender].length; i++) {\n      if (fulfilment[msg.sender][i] == _ticketId) {\n        return i;\n      }\n    }\n\n    return fulfilment[msg.sender].length;\n  }\n\n  /**\n   * Remove the item from the fulfilment queue of the sender\n   */\n  function removeFromQueue(uint index) private {\n    if (index >= fulfilment[msg.sender].length) return;\n\n    fulfilment[msg.sender][index] = fulfilment[msg.sender][fulfilment[msg.sender].length - 1];\n\n    delete fulfilment[msg.sender][fulfilment[msg.sender].length - 1];\n    fulfilment[msg.sender].length--;\n  }\n\n  /**\n   * Cancel the ticket\n   */\n  function cancelTicket(uint _ticketId) public onlyRetailerOf(_ticketId) {\n    require(tickets[_ticketId].state == TicketState.Fulfilled, \"Ticket state must be fulfilled\");\n\n    tickets[_ticketId].state = TicketState.Cancelled;\n    tickets[_ticketId].fulfilmentUrl = \"\";\n  }\n\n  /**\n   * Return the description of the ticket \n   */\n  function getTicketDescriptionById(uint _ticketId) public onlyRetailerOrOwnerOf(_ticketId) view returns (string) {\n    return tickets[_ticketId].description;\n  }\n\n  /**\n   * Return the state of the ticket\n   */\n  function getTicketStateById(uint _ticketId) public onlyRetailerOrOwnerOf(_ticketId) view returns (TicketState) {\n    return tickets[_ticketId].state;\n  }\n  \n  /**\n   * Return the URL containing the fulfilment information\n   */\n  function getFulfilmentUrlById(uint _ticketId) public onlyRetailerOrOwnerOf(_ticketId) view returns (string) {\n    require(tickets[_ticketId].state == TicketState.Fulfilled, \"Ticket state must be fulfilled\");\n\n    return tickets[_ticketId].fulfilmentUrl;\n  }\n\n  /**\n   * Get fulfilment queue of retailer\n   */\n  function getFulfilmentQueue() public view returns (uint[]) {\n    return fulfilment[msg.sender];\n  }\n\n}\n",
  "sourcePath": "/home/linus/Work/planar/ticket-wallet/contracts/TicketWallet.sol",
  "compiler": {
    "name": "solc",
    "version": "0.4.24+commit.e67f0147.Emscripten.clang"
  },
  "schemaVersion": "2.0.1",
  "updatedAt": "2018-07-23T21:53:04.084Z"
}